:1000000000000220097E0000317E0000090E000081
:10001000357E0000377E0000397E000000000000C1
:100020000000000000000000000000003B7E000017
:100030003D7E0000000000003F7E0000417E000089
:10004000AB750000215200002D290000ED2E0000AC
:10005000FD2E0000437E000091270000812A000051
:10006000E92C0000F92C0000437E0000437E0000D4
:10007000437E0000437E0000437E0000437E00007C
:10008000437E0000350A0000437E0000437E0000EE
:10009000D10A0000437E0000437E0000437E000042
:1000A000437E0000437E0000437E0000437E00004C
:1000B000492A0000437E000000000000000000000C
:1000C000437E0000592A0000437E0000392C0000C6
:1000D000597B0000437E0000437E0000437E000009
:1000E000553D00000000000000000000000000007E
:1000F00000000000437E000000000000437E00007E
:1001000000000000000000000000000000000000EF
:1001100000000000000000000000000000000000DF
:1001200000000000000000000000000000000000CF
:1001300000000000000000000000000000000000BF
:1001400000000000000000000000000000000000AF
:10015000000000000000000000000000000000009F
:10016000000000000000000000000000000000008F
:10017000000000000000000000000000000000007F
:10018000000000000000000000000000000000006F
:10019000000000000000000000000000000000005F
:1001A000000000000000000000000000000000004F
:1001B000000000000000000000000000000000003F
:1001C000000000000000000000000000000000002F
:1001D000000000000000000000000000000000001F
:1001E000000000000000000000000000000000000F
:1001F00000000000000000000000000000000000FF
:100200000348044B834202D0034B03B118477047A5
:10021000E4090020E4090020000000000548064928
:100220000B1AD90F01EBA301491002D0034B03B104
:1002300018477047E4090020E4090020000000008E
:1002400010B5064C237843B9FFF7DAFF044B13B11E
:100250000448AFF300800123237010BDE80900209B
:1002600000000000981D010008B5044B1BB10449B3
:100270000448AFF30080BDE80840CFE7000000006D
:10028000EC090020981D0100A3F5803A704700BFDB
:10029000154B002B08BF114B9D46FFF7F5FF0021C2
:1002A0008B460F461148124A121A07F0ABFF0C4B4F
:1002B000002B00D098470B4B002B00D09847002014
:1002C000002104000D000B4807F0E2FD07F02EFEB0
:1002D0002000290000F08CF807F0E0FD0000080085
:1002E000000000000000000000000220E8090020DB
:1002F000841E0020BD7E000000B58BB00DF10F0301
:10030000069344F20103ADF81C30012300218DF85F
:100310000F008DF81E300E4800910DF11703089361
:1003200044F20113ADF8243000688DF81710022351
:1003300006AA8DF8261002F097F9014610B105487B
:1003400007F0C2FF9DF817000BB05DF804FB00BF7B
:10035000040A0020ACF3000008B5054B186000202B
:10036000FFF7CAFFBDE808400146024807F0ACBFEE
:10037000040A0020D0F3000038B50320FFF7BCFFCB
:1003800005460420FFF7B8FF40EA05208511052047
:10039000FFF7B2FF04460620FFF7AEFF40EA042055
:1003A000841122461148294607F08EFFB5F5FA7FE1
:1003B00006DD312C15DDB4F57A7F09DD022006E07B
:1003C000312D10DCB4F5FA7FD4BF0520032038BDF1
:1003D000B5F57A7F07DDB4F5FA7FD4BF0520042098
:1003E000F5E70120F3E70520F1E700BFE2F30000A5
:1003F0002DE9F0413848394D394F3A4EACB007F04D
:1004000063FF394B0FCB08AC84E80F001A2220237E
:10041000CDE908232146002334488DF82C3002F022
:10042000B7F83248FFF798FF314807F04DFF03F067
:1004300052FF304807F048FF0B2003F039FF4AF61F
:10044000CD3302A8ADF8083003F041FF2A4807F089
:100450003BFF2A4A1068516804AB03C304A803F0A9
:1004600038FF274A1068516806AB03C345F0010501
:10047000FFF782FF03AB00248DF80E00009306AA5D
:100480000CAB02A904A88DF80C408DF80D4000F0CB
:100490004FF8384607F018FF0DF130089DF830305E
:1004A000023BA3420FDC01210CA803F039FF88B9FD
:1004B000144807F009FF4FF47A744FF47A40A847C4
:1004C000013CFAD1D4E718F8011B304607F0FCFED6
:1004D0000134E3E70C48ECE7FAF30000B0F4000065
:1004E00042F400004DF400009CF40000B8F4000059
:1004F0000AF400001FF400002FF4000088F400004C
:1005000091F4000053F4000072F40000014807F079
:10051000DBBE00BFD0F40000014807F0D5BE00BF2D
:10052000DCF40000014807F0CFBE00BFF1F400008A
:10053000F8B51C461C23237001236370CC23A370E1
:100540000023E370FF232371637106460F46A01D4D
:1005500011460822069D07F03FFD0222394604F1AC
:100560000E0007F039FD0822314604F1100007F0B3
:1005700033FD2B7823766B786376AB78A376F8BD62
:1005800010B50368292B044604D9074940F2CD1061
:1005900000F054FC23681F2B83BF03F01F030348A4
:1005A00023604FF0A04010BD09F50000000300508B
:1005B00007B5019001A8FFF7E3FF019A01239340DB
:1005C000C0F80C3503B05DF804FB07B5019001A835
:1005D000FFF7D6FF019A01239340C0F8083503B016
:1005E0005DF804FB38B5054D044645F001054FF4B0
:1005F0007A40A847013CFAD138BD00BF20FC00007A
:100600002DE9F3413D4F3E4E0524022517F8013BED
:10061000019301A8FFF7B4FF019B03F5E07340F8D5
:10062000235001A816F8013B0193FFF7A9FF019B96
:1006300003F5E073013C40F82350E7D1152501A8EC
:100640000195FFF79DFF019B03F5E07340F2032640
:1006500040F82360132401A80194FFF791FF019B48
:1006600003F5E07340F2031840F823601C2601A84C
:100670000196FFF785FF019B03F5E0731E2740F805
:10068000238001A80197FFF77BFF019B03F5E0732F
:1006900040F823802846FFF798FF2046FFF795FF94
:1006A0003046FFF785FF3846FFF782FF1C20FFF733
:1006B0007FFF1E20FFF77CFF4FF4FA70FFF792FFD9
:1006C0001C20FFF782FF1E20FFF77FFF3220FFF77D
:1006D00089FF1C20FFF76CFF1E20FFF769FF4FF416
:1006E000FA70FFF77FFF1C20FFF76FFF1E20FFF758
:1006F0006CFFFA20FFF776FFD8E700BFADFB0000E4
:10070000A8FB00007FB506460D46144672B601F000
:1007100007FB01F045F90028FBD1134807F0D4FD91
:1007200044F201039E420AD044F202039E4215D1D4
:10073000228861680D4807F0C7FDFFF761FFA168D7
:100740000391084601F016FE2368019500930246C6
:1007500063680399064807F0B7FDEEE729460548A8
:1007600007F0B2FDE9E700BF4CF5000065F50000B9
:1007700080F50000AAF500002DE9F743054601F0D9
:10078000CFFA01F00DF90028FBD12A4C2A482B4B57
:10079000241AE40824049E6A44F00104002D44D085
:1007A000AA692749204601F06DFAEB680193AB680E
:1007B0000093D5E900232349204601F078FAEB693C
:1007C0000093D5E904232049204601F064FA1B4B2D
:1007D000DB6A990703D51D49204601F04FFADFF87F
:1007E0007C80DFF87C900025012707FA05F333426F
:1007F00006D058F825201AB14946204601F042FAA1
:1008000001351A2DF1D1320605D50C4B10495A6B22
:10081000204601F037FA330405D5084B0D499A6B91
:10082000204601F02FFAFFF7EBFE0B49204601F0BE
:1008300025FACCE7EC1D01009C1D010000ED00E055
:10084000C4F50000D9F500000EF6000069F60000BE
:10085000B8F60000D8F6000036F60000B4FB000041
:10086000ADF600007047704770477047704770479B
:1008700038B50E4B1B680021986807F05FFD4FF4F8
:100880000041002001F032F818B1094A142100F0AB
:10089000BBF8084D00F052FF0A2445F001054FF463
:1008A0007A40A847013CFAD138BD00BF280000209B
:1008B00026FC000080FC00007047000007B5044BD8
:1008C0000093044A402300F0D7FE03B05DF804FB18
:1008D0002D090000390A002030B50F4D0FCD89B029
:1008E0006C460FC495E80F0084E80F000622282309
:1008F000CDE9002309480A4B06930022694600F01F
:100900006FFC18B1074A462100F07EF8064B002222
:100910001A7009B030BD00BFDCFC000000000020F0
:1009200000509D0086FC0000380A002038B50E48B3
:100930000E4C0F4D002323700378EB5CD2B273B1E1
:10094000043003F08FFB18B10A4A562100F05CF81E
:10095000094B1A7812B12378002BFBD038BD0C302C
:1009600003F024F8EFE700BF00000020790A002020
:10097000C40B002086FC0000380A002008B5084897
:10098000084A0378D35C33B1043003F0E9FABDE8D8
:100990000840FFF7A1BF0C3002F09CFFF7E700BF53
:1009A00000000020C40B0020FFF796BF10B50848D8
:1009B000D4B20378074AD35C224623B1043003F053
:1009C00051FB204610BD0C3002F0F0FFF9E700BFEC
:1009D00000000020C40B002008B50948094A03782C
:1009E000D35C012243B1043003F0B8FB00280CBFF4
:1009F00001204FF0FF3008BD0C3003F047F8F5E759
:100A000000000020C40B002000B583B002900091CC
:100A1000019244F2010071466A46FFF773FE03B08B
:100A200000BD0000024B4FF43C6043F00103184747
:100A300010FD0000F8B51F491F4B0025C1F84051BB
:100A4000C1F84451C1F84851C1F84C51C1F80051A6
:100A5000C1F804511B684BB3D1F804451749096824
:100A6000641A24F07F442F461A68A24209D8A41AB7
:100A700015441A7CDE691AB1D3E905201F7490472A
:100A8000AEB90F4A0F4B11781B788B4205D1013359
:100A9000DBB2022B08BF0023137012780A4B43F815
:100AA00022500A4B4FF48012C3F80021F8BD3346A0
:100AB000DAE700BF001001409C0B0020980B0020DB
:100AC000950B0020940B00208C0B002000E100E02F
:100AD0002DE9F04FA14AA24913780978A14D994216
:100AE00085B03CD00133DBB2022B08BF002313706A
:100AF0009D4912789D4B0F6853F822003B1823F054
:100B00007F4300220B602B6816461446944613B9A7
:100B100042B12B6006E0196881420ED902B12B6008
:100B2000091A196001272B68DFF848A201934FF0DA
:100B30000008BEB9DFF844B262E0401A0C44D9683C
:100B4000D3F81CE0C3F800C031B13A1922F07F425B
:100B5000C3E90121DE611E4673460122D7E7002664
:100B60003746E0E73446F6697F4B60681B68DFF87C
:100B700010C2A168C21A22F07F42624500F2A8802A
:100B80000A442260012222742A680023C4E9013346
:100B9000E361002A40F0A5802C60CAE79BF80210B0
:100BA0005A1CD2B291428BF8002004BF00228BF86D
:100BB0000020182202FB03B32A6819799C680229D5
:100BC00077D0032900F08180012919D1207CB8B9A0
:100BD000D96861601A69A2605A69E2609B69A36181
:100BE000634B1B78002B18BF01466160BCE78C4249
:100BF00000F091808946C9690029F8D10023237447
:100C00009BF800309BF801209A42C7D12B68B8F1BD
:100C1000000F04D1019A9A4201D1002F43D0002B3A
:100C200041D0D3F800A0534D4F4BD5F804751C6844
:100C3000DFF850813E1B98F8003026F07F460336DF
:100C40009BB94FF48033C5F84433C5F804334A4B9D
:100C50004FF40032C3F880211A604FF00109C5F843
:100C60000090FFF7DFFE88F80090B2452CBF544497
:100C7000A41924F07F44C5F84045D5F80435DB1BA2
:100C800023F07F43E41B033324F07F44A3420AD9BB
:100C9000D5F80435C5F84035FFF7C4FE364B4FF4A0
:100CA0000032C3F80021324B00221A7005B0BDE8B3
:100CB000F08F114691469FE71174D2690123002AF3
:100CC000FAD1002B9CD02A609AE700231946F6E758
:100CD0001B1A23F07F438B4234BFCB1A00232360BF
:100CE00050E721681368994213D85B1A1360E261D8
:100CF00052E7091AD8691A4638B10346186888427B
:100D0000F7D3401A1860184613462160E061DC6191
:100D10000FE71346F2E74C4511D1D3692B6073B945
:100D2000DFF844E00120CDE90212CAF80800CEF84D
:100D300000300F4B1870FFF775FEDDE902120B68EB
:100D4000C969C9F81C1011B1086803440B602B680D
:100D5000934218BF4FF0010850E700BF940B0020EA
:100D6000950B00209C0B0020980B00208C0B002082
:100D7000880B00200010014000E100E07C0A002008
:100D8000FEFF7F00890B002072B6024A1368013310
:100D900013607047A00B0020034A1368013B1360E7
:100DA00003B962B6704700BFA00B0020EFF30583C4
:100DB000C3F308032BB9EFF31480C04300F0010024
:100DC000704701207047000008B5FFF7EFFF0128CA
:100DD00003D00449432000F031F8BDE80840FFF794
:100DE000D3BF00BF16FD000008B5FFF7DFFF0128E5
:100DF00003D00449512000F021F8BDE80840FFF776
:100E0000CBBF00BF16FD00001EF0040F1CBFEFF3A8
:100E100009800AE0EFF308800549064A884201D8B4
:100E2000904202D88D464FF00000034B1847000057
:100E30000000022000E001207907000007B5ADF8AE
:100E4000000001916A46002144F20200FFF75AFCBB
:100E500003B05DF804FB10B5034653E8000F0A46E3
:100E600043E8002494F0000FF7D110BD10B50346FD
:100E700053E8002F42EA010043E8000494F0000F19
:100E8000F6D110BD10B5034653E8000F00EA010289
:100E900043E8002494F0000FF6D110BD10B50346CE
:100EA00053E8002F02EB010043E8000494F0000F28
:100EB000F6D110BD10B5034653E8002FA2EB010098
:100EC00043E8000494F0000FF6D110BD0121FFF7B4
:100ED000CDBF0021FFF7D6BF10B50446002834D09F
:100EE00003681BB91A49FF20FFF7A8FF636823B9FD
:100EF00017494FF48070FFF7A1FFA36823B9144985
:100F000040F20110FFF79AFFE36823B910494FF44C
:100F10008170FFF793FF238A23B90D4940F2031034
:100F2000FFF78CFFD4E9012321689B1ADBB20A602A
:100F3000013BDBB2FF2B226802D10020107110BDF3
:100F40001168481C10600B70F2E70E20F7E700BF35
:100F50006BFD000038B5044620B912494FF4927079
:100F6000FFF76CFF0020FFF72FFF2268616813680E
:100F70008B4215D9591E116013F8013C228AE5688D
:100F800002FB03552268A36811685B1A1179DBB272
:100F9000994200D213710020FFF726FF284638BD82
:100FA0000025F8E76BFD000038B50C46054620B972
:100FB0000E4940F24710FFF741FF24B90B494FF4A7
:100FC000A470FFF73BFF0020FFF7FEFE2A681368BE
:100FD000591C1160E968641A298AB4FBF1F41C7089
:100FE000BDE838400020FFF7FFBE00BF6BFD0000EA
:100FF0001FB503788DF800308388ADF8043083681E
:101000008DF80630C3688DF8073003690293436991
:10101000054A0393054B684653F8213052F82110D6
:10102000984705B05DF804FBA40B0020AC0B002032
:1010300010B50368292B044604D9074940F2CD10A6
:10104000FFF7FCFE23681F2B83BF03F01F03034839
:1010500023604FF0A04010BD09F5000000030050D0
:1010600007B5019001A8FFF7E3FF019A0123934020
:10107000C0F8083503B05DF804FB0000024B4FF4E4
:10108000807043F001031847D0FD00002DE9F743BD
:10109000154690F80080354A42F82850344A42F804
:1010A00028304B7B06460C4683B30B684FF0A047B5
:1010B00003F5E07340F20C6247F823204B6803F518
:1010C000E0734FF0010947F823200868FFF7C8FFD5
:1010D0006068FFF7C5FF236803F5E07340F20D6217
:1010E00047F82320636803F5E07347F82320FFF7F0
:1010F000C5FF00276368019301A8FFF799FF019AD4
:10110000D0F81035D340DB070CD5FFB9194A002DB4
:10111000434608BF2A462146301D03B0BDE8F043D0
:1011200001F0F4BE2368019301A8FFF781FF019B42
:1011300009FA03F3C0F80C35FFF7A0FF0137206868
:10114000FFF78EFFFFF79AFF092FD3D16368019352
:1011500001A8FFF76DFF019A01239340C0F80C35F9
:10116000FFF78CFF6068FFF77BFFCFE7AC0B002039
:10117000A40B0020F10F00001FB503788DF800309C
:101180004368019383688DF80830C368054A039368
:10119000054B684653F8213052F82110984705B0A6
:1011A0005DF804FBB40B0020BC0B00201FB50378D6
:1011B0008DF800304368019383688DF80830C36868
:1011C000054A0393054B684653F8213052F8211025
:1011D000984705B05DF804FBB40B0020BC0B002061
:1011E000F0B5194B90F800C0DFF86CE043F82C2004
:1011F000164B16460A6943F82C204B7F0EF80C302C
:101200000C4607460FCC89B06D460FC594E80F0019
:1012100085E80F003B78CDF810C01EF803304BB1C5
:10122000002E0B4A694608BF3246381D02F09AFD6F
:1012300009B0F0BD002E074A694608BF324607F1E3
:101240000C0002F057FAF3E7BC0B0020B40B0020AF
:1012500079110000AD110000C40B002010B5044648
:1012600018B906493120FFF7E9FDA2682AB1636980
:101270002168206998470023A36010BDD6FD0000B7
:101280000EB433B5059D044618B911494220FFF745
:10129000D5FD63691BB90E494320FFF7CFFD2368D5
:1012A0001BB90B494420FFF7C9FD63681BB9084906
:1012B0004520FFF7C3FD35B106AB01AA29462046FC
:1012C000019300F071F802B0BDE8304003B0704700
:1012D000D6FD0000826830B40468551C8560A154B6
:1012E000D0E901329A4202D330BCFFF7B7BF30BC1D
:1012F000704700002DE9F84F9846DDE90A4315468E
:1013000082460F460A464FF00109AA420FD2C14554
:1013100038BFC14613F0010B01D16CB9002401267E
:10132000B8F1010F1BD908F1FF386E43F8E709F156
:101330000109B2FBF5F2E8E79B070ED5B8F1000F03
:101340000CBF30262026A145E9D2013C314650464B
:10135000FFF7C0FF002CF6D1E0E72026F3E7B7FB4C
:10136000F6F39D42E1D9DFF83C80B7FBF6F3504637
:1013700018F8031006FB1377FFF7ACFF3346AB42B8
:10138000B6FBF5F6F1D2BBF1000F02D00CB1A145CE
:1013900001D3BDE8F88F20215046013CFFF79AFFAA
:1013A000F4E700BF69FE00002DE9F74F88461746B5
:1013B000054620B9AF4940F25220FFF73FFD6B6967
:1013C00023B9AC494FF41570FFF738FD2B6823B9EA
:1013D000A84940F25520FFF731FD6B6823B9A549B4
:1013E00040F25620FFF72AFDB8F1000F00F03E81D1
:1013F00018F8011B49B92B7B002B00F037812846D8
:1014000003B0BDE8F04FFFF729BF252940F0B780B2
:10141000002698F800302D2B424608F1010823D011
:10142000302B24D02B2B25D000242A2B02F10101B4
:1014300023D13B681A1D3A601B680A461C44137886
:101440002E2B26D101324FF0000A104610F8011B56
:10145000A1F1300CBCF1090F1DD80A2303FB0A13BC
:10146000A3F1300A0246F0E746F00106D1E746F064
:101470000206CEE746F00406CBE711F8013CA3F1E3
:1014800030000928DBD80A2202FB0434303C0A462B
:10149000CBE74FF0000A12F8011B01F0FB006828AF
:1014A0009046F8D0782909D86F290CD8632962D0E2
:1014B00022D8252963D0582900F0888098F8003078
:1014C000002B95D197E770390829F7D801A353F875
:1014D00021F000BF47160000BD140000BD1400003D
:1014E000DD150000BD140000BB150000BD14000098
:1014F000BD140000CD150000642901D06929DDD19B
:101500003A68111D3960D2F8009089EAE972A2EBBD
:10151000E9724FF0010B092A35DCD34538BFD346B9
:101520002CB1B9F1000F01DB720700D5013CB30704
:1015300002D5BAF1000F03D0F00701D44CBB002450
:10154000B9F1000F2DDAC9F100092D212846FFF766
:10155000C1FE06F00302022A04D1BAF1000F01D144
:101560001CBB0024CDE9004653460A2249462846C2
:10157000FFF7C0FEA2E73B681A1D3A6019782846BB
:10158000FFF7A8FE9AE70A230BF1010BB2FBF3F277
:10159000C1E7A345D4D220212846013CFFF79AFE9B
:1015A000CCE77107D5D52B21D0E7A345DAD230217E
:1015B0002846013CFFF78EFED2E73968CDE90046A8
:1015C0000A1D3A6053460A220968D0E739680A1DA5
:1015D0003A60CDE9004653461022F5E73B681A1DF4
:1015E0003A6016F00106D3F8009024D1B9F1000F4B
:1015F00003D0484606F064FF0646B4421DD809F100
:10160000FF3919F8011F00293FF458AF2846FFF7AA
:1016100061FEF6E728460136FFF75CFE19F8061072
:101620000029F7D1A642BFF449AF20212846013C4A
:10163000FFF750FEF6E70026F0E720212846013CA0
:10164000FFF748FED9E73B681A1D3A60302128466B
:101650001C68FFF73FFE78212846FFF73BFE00227B
:101660000823CDE900322146102280E703B0BDE80F
:10167000F08F00BF1CFE0000F0B595B01D46164669
:1016800008460C4600F01FFD1A9B0D93CDE9086536
:1016900000252B46082205A920460A958DF82C50D6
:1016A0000C9500F037FD079B0293069B03939DF872
:1016B00014308DF8115003F00302012A1DD1BDF83A
:1016C0001420059DC3F3C203C2F383168DF81030B6
:1016D000B20008230EA9204600F01CFDC5F3952595
:1016E00008AB0093324602AB0EA9284600F08CFBF3
:1016F000204600F0ECFC15B0F0BD022AF8D1BDF890
:101700001650C3F3C203C5F389158DF810300827AE
:10171000082D2E4628BF08263B4632460EA92046F5
:1017200000F0F8FCAD1B08AB02AA31460EA8374406
:1017300000F0CEFB002DEBD1DAE7000008B5FFF793
:1017400033F90748042100F0C1FA002803DA0549FB
:101750004820FFF773FB044B01225A7108BD00BFFC
:101760002C1E010079FE000014000020037813F005
:10177000040216D003F00303012B03D0022B09D07F
:10178000012070470A6800880232C0F383100244C7
:101790000A60F5E70B684288023303EB92130B6093
:1017A000EEE71046704700002DE9F04FDFF838A152
:1017B0000F4687B00446861C00201546FFF704FB41
:1017C000DAF800103960DAE90132134401335B1AA8
:1017D0000AF21C470AF583690AF21448B3421BD384
:1017E0000020002D7AD004F00F039B0143F0050385
:1017F00063F30F00DAF80020DAF8083013400333FF
:1018000032444AF823000020CAF80020FFF7ECFA1F
:10181000012007B0BDE8F08F01213846FFF73EFBFD
:101820004846FFF753FB4046FFF750FBDAF8040049
:10183000DAF808B0029000EA0B0003300AEB8000EF
:1018400002A9FFF793FF029B0246F8B90BEA0301D6
:101850000AEB810103F1020CC8680390013303EA2B
:101860000B0B0AEB8B0B00F003000128DBF80C10CC
:10187000CDF808C02AD002280BD01A49019240F2B4
:101880008910FFF7DBFA019A93460CE00BEA03009C
:10189000D3E7BDF80E30C3F3891303334FEA114B7E
:1018A0000CEB930302934046FFF713FB10B1029B2E
:1018B000CAF8043059463846FFF7F0FADAE901234E
:1018C0001344DAF8002001339B1A87E7BDF80C3087
:1018D000C3F383134FEA114B6344E3E7A40544F0D9
:1018E000060087E7E9FE0000980C00200B4B0C482F
:1018F000FF2210B59A600022C3F81824C3E9002221
:10190000C3F81424012283F8202400F095FB044638
:1019100010B9044800F002FD204610BD980C0020CC
:10192000041E010058FF000030B50A4C71B10A4A8C
:101930000A49121BD20800239A4201D1002030BD6F
:1019400031F82350854202D00133F5E7034654F8BD
:101950003300F4E79C1D0100041E0100E40900208F
:10196000094B013903EBC000032909D8DFE801F076
:101970000A020406042070470079704740797047D6
:1019800000207047022070479C1D0100034BD3E9E3
:101990000030C31A58425841704700BF980C0020CD
:1019A0002DE9F04385B0FFF7F1FF0646002840F02F
:1019B000FA807E4CC4F81804BFF34F8F6368A568A3
:1019C00000932B40033304EB83006946FFF7CEFE00
:1019D000009B18B1D4F81824002A62D005EA03024B
:1019E000991C013304EB82022B4004EB8303D26881
:1019F000DB68029302F00303022B0192009163D192
:101A0000BDF806306A48C3F38917502FB84628BF7F
:101A10004FF0500808F1080168F38F13C1F3090172
:101A2000ADF8063000F020FB0646002800F0A68046
:101A300000F049FB0023082201A9304600F056FBC4
:101A4000009925EA01020132B8EB820F4FEA8203C6
:101A500033D95FFA88F863B32940DDB2A8EB0508F3
:101A600003315FFA88F9A846524D04EB810108233F
:101A70004246304600F03AFB3DB108F10803DBB2C4
:101A80004A462946304600F031FB009B033703EB02
:101A900097070097D4F81834002B4BD1D4F8105482
:101AA0005BE0226893428CD36260304605B0BDE8AB
:101AB000F08340491D469946D9E729400331082360
:101AC000424604EB8101DDE7012B57D1BDF804301C
:101AD0003748C3F38311062928BF062161F3891310
:101AE000023101F00F018900ADF8043000F0BCFABA
:101AF0000646002842D000F0E6FA0023082201A999
:101B0000304600F0F3FA0027BDF80420C2F3831238
:101B1000BB00974203F10803BCD200994A1C29403C
:101B20000331009204EB81010422304600F0DEFA1A
:101B30000137E9E7304600F0CAFAFFF727FF80F0E7
:101B40000100C6B2B1E7EB685B7923B12B6831467F
:101B50001B6828469847EB681D68002DF3D1304676
:101B600000F0B5FA2846FFF72FF9D4F818340BB96E
:101B7000009B63600020FFF737F9DEE7D4F81044DC
:101B800054B90D4B0D480E49C01AC008000440F06E
:101B9000020000F073F8D0E7236820469B6898475E
:101BA000E3681C68ECE700267FE700BF980C002084
:101BB000041E0100A40C00209C1D0100EC1D01006E
:101BC00040FF00002DE9F74F274E04460F4691468F
:101BD00001A901221846D6F808A09846FFF7E4FDAF
:101BE00078B3019D0023A81C434503EB000132D1CB
:101BF00000211E48FFF72FF94FEA144980F3100B1C
:101C00001B4B1C4A9B1AB9EBD30F04D31A494FF450
:101C1000D770FFF713F96B1C03EA0A03E40006EB25
:101C2000830304F0380449EA0B4005EA0A0544F04E
:101C30000104D860033544EA881343EA872346F851
:101C4000253096F820341BB1FFF7AAFE0028FBD1FF
:101C500003B0BDE8F08F0AEA010106EB810159F8F3
:101C60002320CA600133BFE7980C0020B410002085
:101C7000041E01009C1D0100E9FE000000231A461D
:101C8000FFF7A0BF07B50123019201AAFFF79AFF52
:101C900003B05DF804FB1FB5CDE90123069B039358
:101CA00001AA0323FFF78EFF05B05DF804FB1FB503
:101CB000CDE90023069B0293079B03936A46042306
:101CC000FFF780FF05B05DF804FB000030B5134955
:101CD000D1F810440346002022464AB9DC6820713E
:101CE000D1F8104454B9C1F81034DB681A6030BD23
:101CF000D268157985420AD01268EEE7E468DA689E
:101D000024681460D1F81024D2681360EFE7013022
:101D10000A28E1D14FF0FF30E9E700BF980C00201E
:101D200038B5084B0125D3F8104483F8205404B982
:101D300038BDE3685D71236820465B689847E368B7
:101D40001C68F4E7980C002030B5C38885B00446C1
:101D50000D4633B1144A00921449154A2846FFF73C
:101D60008FFA217A05291DD0637A4BB1A088FFF73D
:101D7000F7FD104B104953F820202846FFF780FA52
:101D8000227A0E4BA08853F8222003920021FFF7FD
:101D9000CBFD039A0A490346284605B0BDE830400A
:101DA000FFF76EBA05B030BD84FF00006CFF000085
:101DB00064FF0000F0FF000089FF00001400010034
:101DC0008CFF000007B503460846197A052911D093
:101DD0005B7A2BB1094A0A490190FFF751FA019841
:101DE00008490190FFF74CFA019803B05DF804EB45
:101DF000FFF734BA002AF8D0F2E700BF84FF0000F2
:101E000089FF000081FF00002DE9F04385B01F46E7
:101E10000C9D002395F80C902B7306460C469046BB
:101E200029463846FFF790FFB8F1060F09D8DFE8DA
:101E300008F00412181F2833400031462846FFF7E7
:101E40001FFA002229463846FFF7BCFF85F80C90A0
:101E500005B0BDE8F083226831462846FFF710FA46
:101E6000EFE7D4E9002331462846FFF709FAE8E70F
:101E7000A36800933146D4E900232846FFF700FA0F
:101E8000DFE7E3680193A36800933146D4E90023B8
:101E90002846FFF7F5F9D4E723690293E368019335
:101EA000A36800933146D4E900232846FFF7E8F9F8
:101EB000C7E76369039323690293E3680193A36807
:101EC00000933146D4E900232846FFF7D9F9B8E753
:101ED00008292DE9F84F80460E4617461C463DD886
:101EE000002593F80C901D7319461046FFF72CFF40
:101EF000DFF890A0DFF890B0AE4231D918F8052095
:101F000059462046FFF7BCF90135082DF4D11A498E
:101F10001A4DDFF878A02046FFF7B2F94FF0000B1A
:101F20005E4524D918F80B207E2A1ED8511C144B6C
:101F3000C9B2C95C11F0970F08BF2E225146204646
:101F4000FFF79EF90BF1010BBBF1080FE8D101225D
:101F500021463846FFF736FF84F80C90BDE8F88F2D
:101F600051462046FFF78CF9CEE72E22E6E72946B8
:101F70002046FFF785F9E5E7A0FF00009EFF00007F
:101F8000441A01009CFF000096FF0000A2FF000021
:101F90002DE9F74F99469DF83030009388469346D7
:101FA000064618B92349B620FEF748FFF288717932
:101FB0004A43043A4A4505D81E490192C420FEF717
:101FC0003DFF019ADBF80070B6F806A007EB0901A7
:101FD000914209F1040488BFA2EB0907B4FBFAF5AA
:101FE000CBF800700AFB154445B9AAEB040BBB45BE
:101FF00028BFBB462FB903B0BDE8F08F3668013D5E
:10200000F2E7009B043408EB050034445A466BB1F8
:102010002146A7EB0B0705F0DFFFBA455D443668A4
:10202000D3464FF0000428BFBB46E3E701462046F5
:10203000EFE700BF28000100FEF74EBFF8B5467974
:102040000146721E0546002393422D6803D30024E7
:10205000A64202D8F8BD0133F6E70F682846FEF71E
:10206000A3FF01343946F3E72DE9F843CD1C068A76
:102070000746FEF76FFF043E35440446B5FBF6F510
:10208000F0B14FF48073EDB28380C680013D0760EC
:1020900081464FF00008A84512D23846FEF75AFF95
:1020A000064648B163790133637108F10108C9F844
:1020B000000007608146EEE72046FFF7BFFF344689
:1020C0002046BDE8F88301210430FEF7E7BE10B5D5
:1020D000012104460430FEF7EDFEC0B220B92046CF
:1020E000BDE81040FFF7AABF10BD00001FB51446A1
:1020F00003920022009203AAFFF74AFF039BA34228
:1021000003D00349F620FEF799FE04B010BD00BFCE
:10211000280001001FB5144603920122009203AA71
:10212000FFF736FF039BA34204D003494FF48070AE
:10213000FEF784FE04B010BD280001000268136899
:102140005268934291BFD01A80680130801888BFCE
:10215000C01A704738B50C46054618B904498320A3
:10216000FEF76CFEAB68A3428CBF601C002038BD3C
:102170008100010038B5044618B907499820FEF7D8
:102180005DFE236820461D685968FFF7E3FF431B87
:102190005842584138BD00BF810001002DE9F0418F
:1021A0000D46044618B92C49A320FEF747FE1DB979
:1021B0002949A420FEF742FE0020FEF705FE204636
:1021C000FFF7D8FF074610B1237C002B3DD1D4F890
:1021D00000802046D8F80460D8F80410FFF7BAFF52
:1021E000C8F804002FB1276820463968FFF7B2FF0E
:1021F0003860E2686068531E072B20D8DFE803F0E0
:1022000004101F141F1F1F182B7883552046FFF73B
:1022100095FF23689A68824200D29860002415E0F6
:102220002B8820F81630F1E72B6840F82630EDE7D0
:10223000D5E9002300EBC600C0E90023E6E7294604
:1022400006FB020005F0C8FEE0E704240020FEF7CC
:10225000CBFD2046BDE8F0818100010010B50446A9
:1022600020B9064940F22B20FEF7E8FD23681868E4
:102270005B68C31A5842584110BD00BF810001007D
:102280002DE9F0410C469046054618B92249E72051
:10229000FEF7D4FD1CB92049E820FEF7CFFD002051
:1022A000FEF792FD2846FFF7D9FF002832D12F68AC
:1022B0003E68B8F1000F04D139682846FFF74AFF9D
:1022C0003860EA686968531E072B1DD8DFE803F001
:1022D000040D1C111C1C1C158B5D23700024002098
:1022E000FEF782FD2046BDE8F08131F816302380EC
:1022F000F4E751F826302360F0E701EBC601D1E99D
:102300000023C4E90023E9E706FB0211204605F09B
:1023100063FEE3E70524E2E7810001008268002311
:10232000936082681361826853618268D3608268B7
:10233000536082681360704710B50D49A1F58C7227
:10234000914201D800200FE08C1AE30F03EBE40365
:102350005B1002EBC30452F83330834205D802D23B
:1023600004F10802ECE7606810BD2146E8E700BF11
:102370008C05010008B5FFF7DFFF024B002808BFFE
:10238000184608BD60040100C0B2002348700B70FD
:102390007047000070B50D46044618B90849712011
:1023A000FEF74CFD23681A6812683AB11A681B6878
:1023B00051681B682846BDE87040184770BD00BFD3
:1023C0008C050100F0B5044687B018B92D493720B7
:1023D000FEF734FD21680A7E0B689E6806EBC20E8C
:1023E0005FFA82FC56F832609EF805309EF8047061
:1023F000D0009EF8062012F0010F4FEA530503F0BB
:10240000010337D0B3BBD1F800E09EF80CE00CF12B
:10241000010CF4452EDAD1F800C0DCF808C0083011
:1024200084449CF805C0B5EB5C0F23D10B689B6816
:102430001A1853F800C05379087E92F804E0927994
:1024400003F001030130C3F103035201C0B2DBB258
:1024500002F02002087601A904F10C00CDE9027E09
:10246000CDE9046C8DF804308DF8055000F094FE31
:1024700007B0F0BD52014FF0000C02F02002E6461A
:10248000E9E700BF8C0501002DE9F84F0E46044630
:1024900018B927498720FEF7D1FC2568DFF894900A
:1024A0004FF000080020FEF78FFC16B923681B6868
:1024B00043B9606800222946FFF7E2FE88B3C5F8F9
:1024C000008000260020FEF78FFC7EB32B681B697E
:1024D0004BBB2F1D68691022394605F04BFDA8B192
:1024E00004F10C0B584604F1080A00F0FBFD2346EA
:1024F0004A4639465046FEF7C9FD18B10C49B4208A
:10250000FEF79CFC584600F0A3FD6F6185F818802B
:102510002046FFF757FF014640B12046FFF73AFF3C
:10252000C0E70126CEE72B681F69D3E7BDE8F88F27
:102530008C0501003925000038B50C46054618B950
:102540001249D220FEF77AFC23681B681BB90F4999
:10255000D820FEF773FC287868B92268137E1168CA
:102560000133097BDBB2994206D913762046FFF787
:1025700029FF08B938BD032001462046FFF70AFFAE
:1025800020460121BDE83840FFF77EBF8C050100E1
:10259000F8B50D46044620B919494FF48470FEF78A
:1025A0004DFC636823B9164940F20910FEF746FC5A
:1025B00063689B6823B912494FF48570FEF73EFCAF
:1025C00025B90F4940F20B10FEF738FC0D4A23469F
:1025D000294604F10800FEF759FD074670B904F1D9
:1025E0000C0000F035FD23681F6095E80F00266899
:1025F000043686E80F0023681A1D5A613846F8BD74
:102600008C0501003925000037B50546019120B938
:10261000144940F22D10FEF711FC019B23B911491A
:102620004FF49770FEF70AFC019B9B6823B90D4994
:1026300040F22F10FEF702FC019B1B7B23B90949D6
:102640004FF49870FEF7FAFB686801A9FFF7A6FD42
:10265000044618B901462846FFF716FF204603B086
:1026600030BD00BF8C0501002DE9F04186B00F465A
:10267000DDF8308016461D46044620B9194940F25F
:102680004F10FEF7DBFB26B916494FF4A870FEF792
:10269000D5FB25B9134940F25110FEF7CFFB0023BB
:1026A000ADF8003001238DF8003001A90E4B0193E5
:1026B0002046CDF808D003968DF810500597FFF707
:1026C000A3FF30B106B0BDE8F081B8F1000F00D033
:1026D000C0479DF80030002BF7D19DF80100C0B233
:1026E000F0E700BF8C0501008923000000F1804065
:1026F00000F5C040002382B0036003680193019B92
:1027000002B07047C208012300F0070003FA00F08E
:102710008B5C18438854704710B50368292B044616
:1027200004D9074940F2CD10FEF788FB23681F2B20
:1027300083BF03F01F03034823604FF0A04010BD88
:1027400009F500000003005013B5019001A80C46E4
:10275000FFF7E2FF019B00EB8300D0F8003723F482
:102760004033C0F80037D0F8003743EA0443C0F8DC
:10277000003702B010BD00004FF0A043D3F8103571
:102780000360024BD3F810354360704700030050DC
:102790002DE9F04F00248BB0CDE90244604D4FF499
:1027A0008072012102F1804303F5C04390B21B689F
:1027B000012B06D1D5F804330B4202D0FFF796FF68
:1027C0000C430432B2F5907F4FEA4101EAD1544BF9
:1027D000D3F87C31012B08D14FF4BE70FFF786FF90
:1027E00002A844F00044FFF7C7FFE3B2D3B14D4F56
:1027F00000250126344210D0AB0003F1804303F5DD
:10280000C043D3F81005D3F8101557F8253023B17D
:10281000C1F30141C0F3052098470135082D4FEA67
:102820004606E7D1002C78DA0023CDE904334FF0D7
:10283000FF33CDE90633DFF8ECA03B4B01930026D4
:102840003546019B13F9014B0193631C4FD0C4F330
:10285000C2070122E3B204F03F0B04F0070402FABE
:1028600004F407F128020DEB020717F8101C2142AF
:102870003DD00AEB0B014FEA931991F930105AF849
:102880002180B8F1000F07D1B9F1030F2FD104A9AE
:102890005846FFF737FF02E0B9F1030FF7D008A859
:1028A000CDF820B0FFF738FF089901F5E07150F836
:1028B000211017F8200C2042C1F3014106D0022953
:1028C00015D1B9F1030F0CD1494605E003290ED10A
:1028D000B9F1030F05D102215846FFF735FF013545
:1028E000EDB2B8F1000F02D049465846C047013654
:1028F000042EA6D18DB108A8FFF73EFF029B089ACF
:102900009A42099B02D103998B4206D0029203930B
:10291000049A059B069207938FE70BB0BDE8F08FF2
:102920000060004054110020AE11002010B5054C8D
:1029300023681BB904495120FEF780FA2368BDE8DB
:1029400010401847BC110020EB05010038B50D46BA
:1029500028B90C497720FEF771FA002038BD0A4BE0
:102960009842FAD10020FEF72FFA084B1C7914B9CF
:1029700001221D601A710020FEF736FA002CECD0FF
:102980001120EBE7EB05010000200040BC11002006
:1029900018B906499B20FEF751BA054B984201BF72
:1029A000044B00221A601A71704700BFEB0501004A
:1029B00000200040BC1100200023435082B0435847
:1029C0000193019B02B0704770B5D0F810310546F5
:1029D0000C4653B14FF48871FFF7EEFF63795A0745
:1029E00003D523680BB101209847D5F814315BB1AA
:1029F0004FF48A712846FFF7DFFF63791B0703D581
:102A000023680BB102209847D5F81C315BB12846EA
:102A10004FF48E71FFF7D0FF607910F0100002D1F3
:102A2000236803B19847D5F8043163B14FF482713C
:102A30002846FFF7C1FF0123237123681BB1BDE8BE
:102A400070400320184770BD01490248FFF7BCBF22
:102A5000C411002000C0014001490248FFF7B4BF83
:102A6000CC1100200010024000F1804000F5E04051
:102A7000002382B0036003680193019B02B070479A
:102A8000F0B5524B524CD3F8043185B0002B3DD0F9
:102A900094F82E204FF48270FFF7E6FF2AB394F8E3
:102AA0002F3013BB494AD2F80031002B32D04FF4FB
:102AB0008070FFF7D9FF638B94F82D00834250D9C3
:102AC00021891B1A9BB289B26383CB1A616801EB1F
:102AD0004303C2F82C36C2F830064FF48270FFF779
:102AE000C3FF3A4B01225A6014E0636802932389C2
:102AF000ADF80C30E36800218DF8041033BB23746B
:102B0000236801A89847002384F82F3094F82E30CA
:102B1000002BC7D12D4BD3F810315BB14FF4887027
:102B2000FFF7A2FF0023237402238DF8043001A8CD
:102B300023689847254BD3F81431EBB14FF48A70D2
:102B4000FFF792FF0023237405B0F0BD208B608354
:102B500063602081E160002AD2D11C4B01221A60FF
:102B6000CEE7BAD1E368012184F82F1013B1002118
:102B70006183AEE76383B0E766694FF000470125E4
:102B8000002EE1D0B6FA86F227FA02F3463292001E
:102B900026EA030602F1804303F5E0431B68002B9D
:102BA000EED01046A2F58C72FFF75EFFD30882F0DC
:102BB0000402C2F380028DF808308DF804502368B7
:102BC0008DF8092001A89847DAE700BF007000409F
:102BD000D411002010B50368292B044604D90749F5
:102BE00040F2CD10FEF72AF923681F2B83BF03F0B4
:102BF0001F03034823604FF0A04010BD09F50000FB
:102C00000003005007B5019001A8FFF7E3FF019A08
:102C100001239340C0F80C3503B05DF804FB07B501
:102C2000019001A8FFF7D6FF019A01239340C0F855
:102C3000083503B05DF804FB13B5144BD3F8182125
:102C400012B30022C3F81821D3F81831104C0193A5
:102C5000019B236823B90F494FF42770FEF7EEF864
:102C6000E07FFF2803D0A37F5BB1FFF7CBFF0023FA
:102C700063772372D4E90031074802B0BDE8104001
:102C80001847FFF7CCFFF2E702B010BD003002405A
:102C900004120020480601000C1200202DE9F74321
:102CA000002406460F4600F5A0754FF48038A14673
:102CB0002B688BB1D6F8043308FA04F21A420BD011
:102CC000C5F800902B680193019BA30003F5A07346
:102CD00098B2D7E9003198470134042C05F1040576
:102CE000E6D103B0BDE8F08301490248FFF7D6BF43
:102CF000281200200080004001490248FFF7CEBFA3
:102D000034120020009000400023435082B043580A
:102D10000193019B02B070470B7B032B2DD8DFE89A
:102D200003F025291D028A68154B9A4204D1D0F878
:102D30004C350A699A4209D18A6840F202239A42C4
:102D40001BD1D0F84C354A699A4216D0002306228E
:102D5000C0F80035C0F8002518467047D0F84C354B
:102D60000A699A42F2D1D0F83C35ECE7D0F84C35FC
:102D70000A69E9E7D0F83C35FAE70120704700BF5F
:102D80000002040010B50368292B044604D9074942
:102D900040F2CD10FEF752F823681F2B83BF03F0DB
:102DA0001F03034823604FF0A04010BD09F5000049
:102DB00000030050F0B50B6887B005460C4623B9F8
:102DC000484940F28620FEF739F8D5F82431B3B1EE
:102DD0004FF492712846FFF797FFD5F8043173B985
:102DE000A368C5F808330223A360A368C5F80433B9
:102DF00001232B626B6184F82E3007B0F0BDD5F84B
:102E000004316BB34FF48271284604F10C07FFF7CD
:102E10007BFF0FCF01AE0FC63B68336094F82E30B6
:102E20003BB921462846FFF777FF80F0010084F880
:102E30002E004FF4B0712846FFF766FF4FF4AE71D5
:102E4000FFF762FF94F8303013B194F82E30CBB115
:102E50000023C5F80032A360234BC5F8083311E006
:102E60004FF4A4712846FFF74FFF237BEBB904F121
:102E70000C070FCF01AE0FC63B68336094F83030BB
:102E8000002BE6D0D5F8C434C5F8C4349A071ED553
:102E900001238DF8003094F830300BB984F82F30CE
:102EA000D4E9003168469847A7E74FF40073C5F8A6
:102EB000003240F20223A36003F1CE73C5F8083359
:102EC000A368C5F804330123AB602B6295E713F0C8
:102ED000050F01D00223DCE794F82E30002BD8D068
:102EE0000423D6E79F06010002029C010149024823
:102EF000FFF760BF401200200030004002494FF051
:102F00004020FFF757BF00BF741200202DE9F04F9B
:102F100085B08146934601930C4619B94649E22093
:102F2000FDF78CFFD4E900239A4203D14249E32004
:102F3000FDF784FF99F80480404F342303FB08FA1F
:102F400007EB0A0696F82D20002A71D13C4AD9F8E1
:102F5000000052F82810FFF7F9FC0546002869D157
:102F6000019B47F80AB07360B06086F8300086F8BD
:102F70002F00627B86F832202268039203A8FFF7B5
:102F800001FF039A02F5E07240F20C6640F82260FD
:102F900003A862680392FFF7F5FE039A57F80A3018
:102FA00002F5E07240F82260D4E90010D9F8002060
:102FB000C2F80815C2F80C05A168C2F824156BB355
:102FC000247BD9F80060072C4FEA163A46F30736FF
:102FD00003D91C496B20FDF731FF002EAEBF06F16F
:102FE0006043194B0AF00F0A4FEA4414A8BF03F5D7
:102FF0006143E4B2B4BF03F80A4083F80043D9F850
:1030000000301A0B43F30733002B07DB02F01F01DC
:1030100001228A405B090D4941F82320342303FB38
:103020000877012387F82D30284605B0BDE8F08FDA
:103030000825F9E71125F7E79F0601004012002057
:1030400034070100EB06010014ED00E000E100E0B0
:1030500070B50D4C0679342303FB0643054693F8FF
:103060002D30012B04D009494FF4A570FDF7E6FE81
:103070002B680622C3F80025342303FB06440223F1
:1030800084F82D3070BD00BF401200209F06010063
:1030900070B5114C0679342303FB0643054693F8BB
:1030A0002D3023B90D4940F25510FDF7C7FE3422EB
:1030B0002B6802FB06440021094AA160C3F80823DB
:1030C000D3F8002222F4BC52C3F80022C3F8001542
:1030D000012384F82D3070BD401200209F060100AE
:1030E00002029C01F7B5294D0679342303FB0653F0
:1030F000044693F82D3023B9254940F23110FDF7ED
:103100009DFE34237343EB5893B123681A0B43F3AA
:103110000733002B0CDB02F01F015B0901228A4000
:1031200020331C4941F82320BFF34F8FBFF36F8F2B
:103130002046FFF7ADFF2068FFF72AFC342303FB8E
:10314000065393F83230C3B9236801A8D3F8083581
:103150000193FFF717FE019B03F5E073022740F888
:103160002370236801A8D3F80C350193FFF70AFEFA
:10317000019B03F5E07340F82370342303FB0655ED
:10318000002385F82D3003B0F0BD00BF40120020B1
:103190009F06010000E100E02DE9F8430379012BCF
:1031A00004460D46174607D84B68B3F5803F03D257
:1031B0008B68B3F5803F04D3BF4940F22F20FDF761
:1031C0003DFE94F80490DFF8FC82342606FB09F6F5
:1031D00058F80630A3B92B78022B08D02B78032B94
:1031E0000ED1B5494FF40E70FDF728FE08E0B24944
:1031F00040F23720FDF722FE58F80630002BEDD0C4
:10320000342606FB09860023246886F82E30EB68F6
:1032100003F06043B3F1005F03D010263046BDE8F1
:10322000F883A64BC4F8083396F82F3023B1B3685F
:10323000C4F804331126F1E717F0140F0CBF012373
:10324000002386F82F30AE46BEE80F0006F10C0CC6
:10325000ACE80F00DEF80030CCF80030C7F3001304
:1032600086F830306B78C4F888354FF48271204688
:10327000FFF74AFD4FF49271FFF746FD17F0010387
:1032800018BF0123C4F8503517F0020318BF0123FB
:10329000C4F840352B78032B00F2E380DFE803F01D
:1032A000A5CB8602FE0604D5834940F2AB10FDF79C
:1032B000C5FD380704D580494FF4D670FDF7BEFD33
:1032C000790704D57C4940F2AD10FDF7B7FD2B69B5
:1032D00003F06043B3F1005F9FD14FF48073C4F8F3
:1032E00000326B68EA68C4F844252046C4F84835C3
:1032F0004FF4A871FFF708FD4FF4B071FFF704FD1C
:103300004FF4A471FFF700FD01232362A360D4F8FA
:103310005031002BFBD04FF4A8712046FFF7F4FC8E
:10332000AB682A69C4F84425C4F84835342303FB44
:103330000983634A9A604FF48271082300263A0792
:1033400004D42A78032A1CBF0122E250342303FB51
:1033500009F308EB030258F80330002B40F0868095
:10336000012221440B68002B00F08D803421D4F819
:10337000C434C4F8C43401FB0982002082F82F0051
:10338000002B00F08F8013F0010F14BF4FF40246A2
:10339000032648F2012213F0020F18BF164613F05D
:1033A000040F48F2022318BF1E4637E76B68EA682D
:1033B000C4F84425C4F848352B6903F06042B2F1E3
:1033C000005F7FF42AAFAA68C4F834354FF4845301
:1033D000C4F83825C4F80032342303FB098340F2D3
:1033E00002229A6001232362A5E76B68EA68C4F8A9
:1033F000442517F0200FC4F848354FF034030ED0A1
:103400004FF4807203FB0983C4F800222C4A9A60AF
:103410004FF4A471FFF778FC012323628DE74FF48A
:10342000007203FB0983C4F8002240F202229A6072
:103430004FF48271F0E76B68EA68C4F83425C4F889
:1034400038354FF48053C4F80032342303FB09832A
:1034500040F202229A60012323624FF4827100231A
:103460006CE74FF482710823072668E77B0744BFA7
:103470004FF400739360342303FB0988D8F80830B5
:10348000C4F80433CAE6D4F82431002B3FF46AAF01
:103490004FF492712046FFF737FC22624FF482719D
:1034A00062615EE709FB01812046FFF735FC0028D9
:1034B00008BF0326B2E600BF9F06010002029C017E
:1034C00000020400401200200023435082B0435801
:1034D0000193019B02B070470A4610B54FF48E71FC
:1034E000FFF7F2FF136A9168C95C136A0133136234
:1034F000C0F81C1510BD08B502464FF49271006863
:10350000FFF7E2FF10684FF48471FFF7DDFF1368E7
:1035100001221A6008BD000010B50368292B04467B
:1035200004D9074940F2CD10FDF788FC23681F2B12
:1035300083BF03F01F03034823604FF0A04010BD7A
:1035400009F500000003005007B5019001A8FFF73E
:10355000E3FF019B03F5E073022240F8232003B050
:103560005DF804FB10B58B690A464FF4847123B9EA
:10357000FFF7AAFFD0F8183510BDFFF7A5FF536A73
:10358000D168D0F81805C854536A01335362F3E781
:103590001FB501238DF80030044BCDE90110D3E9AC
:1035A00000126846904705B05DF804FBA8120020A1
:1035B00030B54E4DD5F804339A0585B051D5D5F8C0
:1035C0002431002B4DD04FF492712846FFF77CFF39
:1035D0004FF40173C5F80833454B93F829200AB915
:1035E00001226A60414902228DF80020D1F880242E
:1035F000C1F8802403929A690292DA68019200224B
:10360000C3E906226846D3E9001290473748D0F84C
:103610001C315BB1364A5169136A99424ED992F80E
:103620002830002B4AD11146FFF756FF2F48D0F81B
:103630004431002B57D04FF4A271FFF745FF2C4BBC
:1036400093F829200AB1012202609A69002A4AD01F
:10365000586AD96800229A6105B0BDE83040FFF78A
:1036600097BFD5F804335B07D0D5D5F80831002BC8
:10367000CCD01F4C1D482146FFF774FF636AA26936
:103680009A42C3D1E36953B1A3612369E168E3605E
:103690000023606AE3616362FFF77AFFB6E794F89C
:1036A00029300BB901236B60104B4FF40172C3F842
:1036B00008230023606AE168A361EDE70B484FF43B
:1036C0008E71FFF701FF5369002BAFD05169029152
:1036D000002391688DF80030019153616846D2E96A
:1036E00000139847A2E705B030BD00BF002000409E
:1036F000A81200202DE9F347054691460C4619B95A
:103700006D49AA20FDF79AFB95F804806B4E2C2397
:1037100003FB086393F82A30002B40F0C980684906
:103720002868FFF713F90746002840F0C380236894
:103730005A1C14D001A80193FFF7EEFE019B012251
:1037400002FA03F3C0F808352368019301A8FFF7D4
:10375000E3FE019B03F5E073032240F82320636836
:10376000581C09D001A80193FFF7D6FE019B03F571
:10377000E073002240F823202B68A269C3F82425B7
:10378000217D637D2A680B43C2F86C35D4E90012B1
:103790002B68C3F81425C3F80C15237D012B2BD1FE
:1037A000A368591C09D001A80193FFF7B5FE019B3E
:1037B00003F5E073002240F82320E3685A1C14D07C
:1037C00001A80193FFF7A8FE019B012202FA03F36F
:1037D000C0F80835E368019301A8FFF79DFE019B3F
:1037E00003F5E073032240F82320D4E902122B688A
:1037F000C3F80825C3F810152C2303FB08F3F218AF
:10380000C2F804902269F250B9F1000F3CD0286848
:1038100094F81C902B4A4FF48E71FFF755FE2868E0
:103820004FF4A271FFF750FE2B68C3F804232C68F5
:10383000B9F1070F4FEA143A44F3073403D9224988
:103840006B20FDF7FBFA002CAEBF04F160431F4B69
:103850000AF00F0A4FEA4919A8BF03F561435FFA5E
:1038600089F9B4BF03F80A9083F800932B681A0B08
:1038700043F30733002B07DB02F01F0101228A40CC
:103880005B09134941F823202B680422C3F8002563
:103890002C2303FB08630022C3E9062283F82920B6
:1038A0005A61012283F82A20384602B0BDE8F08729
:1038B0000827F9E71127F7E73C070100A8120020C5
:1038C000B135000080000200EB06010014ED00E0BD
:1038D00000E100E02DE9F843036806792A4D002253
:1038E000C3F800252C2303FB065304465B68B3B1E1
:1038F0000368264AC3F8082303681A0B43F3073307
:10390000002B0CDB02F01F015B0901228A402033EF
:103910001F4941F82320BFF34F8FBFF36F8F2368F8
:103920004FF0FF32D3F80C05D3F81495D3F808758F
:10393000D3F81085C3F81425C3F80C2523689042EA
:10394000C3F80825C3F8102501D0FFF7FDFDB9F134
:10395000FF3F02D04846FFF7F7FDB8F1FF3F02D026
:103960004046FFF7F1FD7B1C02D03846FFF7ECFD27
:103970002068FFF70DF82C2303FB0655002385F87C
:103980002A306B60BDE8F883A81200208402020090
:1039900000E100E00279044B2C2101FB023358695D
:1039A000003818BF01207047A81200202DE9F84FF9
:1039B000344F90F804802C2303FB0873064693F8D9
:1039C0002A30012B8946924604D02F494FF48C703F
:1039D000FDF734FAB9F1000F04D12B4940F2191068
:1039E000FDF72CFABAF1000F04D127494FF48D707E
:1039F000FDF724FA3046FFF7CDFF044600283CD1FE
:103A00002C2508FB057B4FF48E71CBF814A0CBF866
:103A10000890CBF820008BF828003068FFF754FDA1
:103A2000336801229A6030685946FFF755FDDBF88C
:103A300004305D461BBB3068DBF814402B6A9C42A7
:103A400011D83368D3F81C21002AFBD00122DA6098
:103A500000202C2303FB087700237B61BDE8F88F4F
:103A600095F828303BB9D0F81C31002BF8D05946D6
:103A7000FFF732FDE2E70F20EBE71120EEE72046EB
:103A8000ECE700BFA81200203C0701002DE9F04739
:103A9000494C07792C2303FB0743064693F82A3049
:103AA000012B8846154604D044494FF4B670FDF703
:103AB000C5F9B8F1000F04D1404940F26D10FDF78F
:103AC000BDF925B93D494FF4B770FDF7B7F92C237F
:103AD00003FB07435A6822B133684FF40171C3F8FE
:103AE00008132C2303FB0743986950B1D9690029B7
:103AF00042D022B133684FF40172C3F80423112578
:103B000037E09D61C3F80C805862D8612C2303FB19
:103B1000074393F829301BB910B93046FFF7EBFC87
:103B20004FF02C0808FB074A3068DAF80430002B05
:103B300038D14FF4A271D046FFF7C6FC3068D0F8F8
:103B40002491D0F80831D0F84451D3B915B9B9F15E
:103B5000000FF3D02C2303FB07440023A361B9F12A
:103B6000000F25D135BB94F8291033680122B9B173
:103B70001A602846BDE8F087C3F81080DD61012097
:103B8000C4E7B9F1000FE5D1002DE3D14146FFF7BD
:103B9000E9FCDAF82430DAF818209A42CED8D9E7CE
:103BA0005A60E6E74FF40173C0F804330025E0E7FC
:103BB0000325DEE70F25DCE7A81200203C07010003
:103BC0000023435082B043580193019B02B07047D9
:103BD0001FB50123CDE901218DF80030D0E9001394
:103BE0006846984705B05DF804FB000010B503680F
:103BF000292B044604D9074940F2CD10FDF71EF9E0
:103C000023681F2B83BF03F01F03034823604FF07B
:103C1000A04010BD09F500000003005007B5019059
:103C200001A8FFF7E3FF019B03F5E073022240F8D0
:103C3000232003B05DF804FB7FB5D0F8246105466E
:103C40000C46002E5CD04FF49271FFF7B9FF0223AF
:103C50008DF80030D0F88034C0F880340393D0F869
:103C60003C350293E36801930023C4E906336846B8
:103C7000D4E900139847D5F844317BB14FF4A271D1
:103C80002846FFF79DFFA36943B10023C4E906332B
:103C9000E268D5F83C152046FFF79AFFD5F82031A9
:103CA000ABB14FF490712846FFF78AFF0123EB6018
:103CB000636963B1D5F84C2502920023A2688DF8A0
:103CC000003063610192D4E9001368469847D5F843
:103CD00058319BB14FF4AC712846FFF771FF63690F
:103CE00063B1D5F84C2502920023A2688DF800300C
:103CF00063610192D4E900136846984704B070BD2F
:103D0000D0F81031002BB6D04FF48871FFF758FF70
:103D1000D0F83C35A1699942ADD1E369E26873B14D
:103D2000D0F8003223F02003C0F80032E369A36129
:103D30002369E360E6612046FFF74AFF9BE7A36142
:103D4000F9E7000001490248FFF776BFD4120020CE
:103D50000020004001490248FFF76EBFF812002022
:103D6000008002402DE9F347054691460C4619B9FB
:103D70007449CF20FDF762F895F80480724E242331
:103D800003FB086393F82030002B40F0D6806F4B84
:103D9000286853F82810FEF7D9FD0746002840F0A0
:103DA000CE8023685A1C13D001A80193FFF71EFF91
:103DB000019A01239340C0F808352368019301A8B4
:103DC000FFF714FF019B03F5E073032240F8232063
:103DD0006368581C09D001A80193FFF707FF019BF6
:103DE00003F5E073002240F823202B68A269C3F892
:103DF0002425217D637D2A680B43C2F86C35D4E904
:103E000000122B68C3F80C15C3F81425237D012B71
:103E10002AD1A368591C09D001A80193FFF7E6FE37
:103E2000019B03F5E073002240F82320E3685A1C4D
:103E300013D001A80193FFF7D9FE019A0123934003
:103E4000C0F80835E368019301A8FFF7CFFE019B96
:103E500003F5E073032240F82320D4E902212B6804
:103E6000C3F80815C3F81025242303FB08F3F21840
:103E7000C2F804902269F250B9F1000F4BD02868C3
:103E800094F81C90324A4FF48871FFF799FE286825
:103E90004FF49071FFF794FE28684FF49271FFF78A
:103EA0008FFE28684FF4A271FFF78AFE28684FF44E
:103EB000AC71FFF785FE2B68C3F804232C68B9F1B9
:103EC000070F4FEA143A44F3073403D921496B2012
:103ED000FCF7B4FF002CAEBF04F160431E4B0AF0A8
:103EE0000F0A4FEA4919A8BF03F561435FFA89F940
:103EF000B4BF03F80A9083F800932B681A0B43F3BE
:103F00000733002B07DB02F01F0101228A405B0907
:103F1000124941F823202B680822C3F800252423E6
:103F200003FB08660023C6E906337361012386F8A4
:103F30002030384602B0BDE8F0870827F9E711279E
:103F4000F7E700BF8D070100D4120020E007010051
:103F500010034200EB06010014ED00E000E100E078
:103F60002DE9F843364D0679242303FB0653044616
:103F70005B68B3B10368334AC3F8082303681A0BBC
:103F800043F30733002B0CDB02F01F015B09012216
:103F90008A4020332C4941F82320BFF34F8FBFF3D1
:103FA0006F8F2268D2F8003223F02003C2F800326B
:103FB000236801225A6020684FF4AC71FFF700FEBD
:103FC0002368DA602368D3F85821002AFBD0002246
:103FD000C3F8002523684FF0FF32D3F80C05D3F85F
:103FE0001495D3F80875D3F81085C3F80C25C3F8D9
:103FF000142523689042C3F80825C3F8102501D082
:10400000FFF70CFEB9F1FF3F02D04846FFF706FE6E
:10401000B8F1FF3F02D04046FFF700FE7B1C02D004
:104020003846FFF7FBFD2068FEF7B2FC242303FBB4
:104030000655002385F820306B60BDE8F88300BF8B
:10404000D41200201003420000E100E00279044B8A
:10405000242101FB02335869003818BF0120704742
:10406000D41200202DE9F0473A4F90F804A0242301
:1040700003FB0A73054693F82030012B88469146CE
:1040800004D0354940F22D10FCF7D8FEB8F1000FEE
:1040900004D131494FF49770FCF7D0FEB9F1000F0D
:1040A00004D12D4940F22F10FCF7C8FE2B79012BCB
:1040B00002D8B9F5803F04D327494FF49870FCF734
:1040C000BDFE08F06043B3F1005F3CD12846FFF726
:1040D000BDFF0446002838D1242606FB0A764FF49B
:1040E0009071C6F81490C6F808802868FFF768FD3C
:1040F0004FF4AC712868FFF763FD2B687269B168F3
:10410000C3F84415C3F848252B6801229A607368E8
:10411000EBB92B68D3F82021D3F858011AB900283D
:10412000F8D00F2008E00028FBD10122DA602A68CD
:10413000D2F85831002BFBD0242303FB0A7700234D
:104140007B61BDE8F0871020FBE71120F9E72046EE
:10415000F7E700BFD41200208D0701002DE9F041E0
:10416000494E0579242303FB0563044693F8203068
:10417000012B8846174604D044494FF4C070FCF721
:104180005DFEB8F1000F04D1404940F28110FCF708
:1041900055FE27B93D494FF4C170FCF74FFE237916
:1041A000012B02D8B7F5803F04D3384940F2831081
:1041B000FCF744FE08F06043B3F1005F61D12423B3
:1041C00003FB0563596821B123684FF40472C3F8F7
:1041D0000823242303FB05639A6952B1DA69002A94
:1041E0003DD021B123684FF40472C3F80423112099
:1041F00033E09F61C3F80C80DA6120684FF4887166
:10420000FFF7DEFC20684FF4A271FFF7D9FC2368AA
:10421000C3F83485C3F8387523682ABB01221A60B5
:1042200025792368242202FB056252681ABBD3F861
:104230001011D3F84421D3F82401114302D10028EE
:10424000F5D00A46242303FB05660023984218BFD5
:1042500003209A42B36118BF0F20BDE8F081C3F874
:104260001080DF610122C8E7D3F8002242F020026B
:10427000C3F80022D4E74FF40472C3F804230020EB
:10428000EBE71020E9E700BFD41200208D07010002
:1042900007B501A801F0F2FE20B90190019803B022
:1042A0005DF804FB019B002BF8D101230193F5E796
:1042B00038B5044601F0D8FD0546204601F0DAFD88
:1042C000A54203D0BDE8384003F0E8B838BD01F09E
:1042D0000BBE01F015BE08B502F0C8FB00F080FE71
:1042E00003F02CF901F078FC01F088FD03F0B4F83C
:1042F00003F008FB01F084FD03F0BFF803F080FC3D
:1043000003F0BFF802F0E6FE02F06EFE01F048FE98
:1043100003F088FC01F064FEBDE8084002F0D6BF5F
:1043200007B50B4600210246CDE90011084603F00F
:10433000ABF803B05DF804FB08B590F8803033B1FA
:10434000074B084A4FF4F871074803F07BFD03F070
:10435000A3F820B9054B034A4FF4FB71F4E708BDFD
:10436000E80701006708010000080100AB0901002F
:104370007047FFF7E1BF13B50446CDE90021FFF711
:1043800087FFDDE9002103462046FFF7F2FF02B078
:1043900010BD7047704770477047704700F180400C
:1043A00000F58050002382B0036003680193019BF5
:1043B00002B07047034B186808B190F8800000F015
:1043C000010070472C13002008B5FFF7F3FF08B178
:1043D000014B186808BD00BF2C13002000BF00BFB0
:1043E00000BF00BF00BF00BF70470000134B144A5E
:1043F000C3F8482500F1804000F58050C3F84C0513
:1044000021B102F5FD424832C3F82C290D4AC3F808
:10441000402502F5AF3202F59672C3F8442529B162
:10442000D3F8002842F08002C3F80028034B802212
:10443000C3F804254022C3F80425704700F001406A
:104440003C71014010110040074B01221A61D3F862
:10445000002222F48072C3F8002203F5B0334FF437
:104460008072C3F80825704700900040034B1B780A
:104470001BB1034B1022C3F80823704725130020FB
:104480000010004010B5044602F010FEB0F5C07FE9
:104490000B4A12D3C009811EB1EBD41F4FEAD413CB
:1044A00096BFA4EBC1140024C31E1460054AC3F3D5
:1044B0001403C2F86436012010BD14600020FBE72D
:1044C000201300200010004013B501A801F024FDC6
:1044D0009DF805009DF8044001F05AFD9DF8073055
:1044E0009DF806201B0643EA0243234343EA0020CB
:1044F000024BC3F86C0602B010BD00BF00100040B4
:1045000008B501F09FFDBDE80840002002F0E8BDBD
:1045100008B5054BD3F8480500F07F0001F023FDF6
:10452000404240B208BD00BF0010004013B5044631
:10453000FFF7EEFF23780190234413F8010C01F0FC
:1045400019FD02B29200FF2A28BFFF220199D2B2C0
:10455000204602B0BDE8104002F07FBF13B5084B03
:1045600001901C680146204601F0D0FA019928B15B
:10457000204602B0BDE8104002F075BF02B010BD89
:104580003013002007B5019001F012FC019802F0F1
:1045900066FF03B05DF804EB01F03CBB07B501908A
:1045A00001F006FC0198FFF7C1FF03B05DF804EBD2
:1045B00001F030BB144B4022C3F808258022C3F819
:1045C00008254FF48072C3F80825104A01211161B3
:1045D000D3F8000820F08000C3F800080020C3F8DA
:1045E0002C091161D2F8003223F48073C2F8003232
:1045F000074B1B783BB1074B4FF45052C3F80823CD
:10460000C3F800021961704700F0014000900040BB
:104610002513002000100040134908B54023C1F8BD
:1046200008358023C1F80835FFF70EFFD1F80038B0
:1046300023F08003C1F8003800220C4BC1F82C296C
:104640001B787BB10A4B0A21C3F808130121C3F878
:1046500000221961C3F84426BDE808404FF4AE704B
:10466000FFF79CBE08BD00BF00F0014025130020ED
:1046700000100040104908B54023C1F808358023D8
:10468000C1F80835FFF7E0FED1F8003823F08003C9
:10469000C1F800380022094BC1F82C291B784BB116
:1046A000074B4FF40041C3F80813C3F8002201225E
:1046B0009A621A6108BD00BF00F001402513002076
:1046C00000100040104908B54023C1F80835802388
:1046D000C1F80835FFF7B8FED1F8003823F08003A1
:1046E000C1F800380022094BC1F82C291B784BB1C6
:1046F000074B4FF4C021C3F80813C3F8002201226E
:104700001A631A6108BD00BF00F0014025130020A4
:104710000010004008B50E4B01211961D3F80022AA
:1047200022F44072C3F800220A4A1278043A8A42FC
:1047300006D9094B094A0A4840F29E3103F082FB30
:10474000196120B1074B4FF48072C3F8082508BDEA
:104750000090004026130020FA0701000B0A010018
:104760008208010000F0014010B5104C4023C4F84D
:1047700008358023C4F808350120FFF7CBFFD4F8B3
:10478000003823F08003C4F800380022084BC4F836
:104790002C291B7843B1074B0749C3F80813C3F80A
:1047A000002201221A631A6110BD00BF00F001400F
:1047B0002513002000100040020004080B3808B543
:1047C000C3B20F2B06D9094B094A0A4840F205210A
:1047D00003F038FB00EB800000F66510064B80B25A
:1047E000A0F51660C3F8080508BD00BFEE0801007B
:1047F000490A0100820801000010004008B5084B7A
:10480000D3F85035DBB243B9064BFFF7E7FDD3F8D9
:104810003C01003818BF012008BD0120FCE700BFA3
:104820000010004000700140F8B505460F461646DE
:1048300001F056F9044680B14F4B1B78092B00F26A
:104840009280DFE803F0050C0F22565660656E7704
:10485000022F02D0042002F043FC2046F8BDFFF7EF
:1048600005FEFAE7454B1B785B070BD5002D00F0E2
:104870008180FFF79FFE002EEFD0062002F0EFFDB3
:104880003446EAE7FFF796FEE7E7002D72D03C4B8F
:104890004022C3F808258022C3F808254FF480720F
:1048A000C3F80825374A01211161D3F8000820F028
:1048B0008000C3F800080020C3F82C091161D2F869
:1048C000003223F48073C2F800322F4B1B7833B1CF
:1048D0002E4B2F4AC3F80823C3F800021961002E9B
:1048E000BBD02C4B1868002380F88030FFF71EFEE9
:1048F000C6E7002D3ED0FFF737FF002EADD00620D3
:10490000FFF72CFEA9E7002D34D0FFF785FEF4E772
:1049100085B3FFF7AFFE002E9FD0012002F0A7FD68
:10492000AEE73DB3FFF7CEFE002E96D0012002F099
:10493000A2FDA5E7124B13494022C3F808258022A7
:10494000C3F8082501220A614FF48071C3F80815E5
:104950000D4B1B7803F0FF01002B3FF47EAF0B4B98
:104960000C461A6179E70C4B0C4A0D4840F2BC51D9
:1049700003F068FA2C4670E7261300202413002069
:1049800000F001400090004025130020001000407E
:10499000020000082C130020FA0701001C0A010085
:1049A00082080100054B002282B0C3F83C21D3F8F5
:1049B0003C310193019B02B0704700BF0070014081
:1049C000F8B52C4B1B7806460D4617460BB9002050
:1049D000F8BD047801F02AFE631C5B0100283ED17B
:1049E00003F1CE0015B100F1A80398B202F034FB38
:1049F00004460028EBD001F045FA1F4B1F4AC3F8CC
:104A00000C05002D08BF4FF4A012C3F804654FF445
:104A1000B670C3F80022FFF7C1FC1DB34FF4A470B9
:104A2000FFF7BCFC164A144E4FF48270FFF7B6FC39
:104A3000144B197842F002026FF3C3011970C6F8E3
:104A40000423FFF7AFFF002D14BF04200020012135
:104A5000FFF7CCFC4FB9012333612046B8E703F2DE
:104A60002E40BFE74FF00062DDE7FFF7C7FE0028EA
:104A7000F1D0ADE7251300200010004000381400ED
:104A8000000004082413002038B5144B1B78054699
:104A9000EBB1AE2002F0E0FAC8B1114C4FF4205354
:104AA000C4F800324FF4A470FFF778FC4FF4A27002
:104AB000FFF774FC4FF4C023C4F804330121042031
:104AC000FFF770FFFFF792FC15B90123236138BD92
:104AD000FFF794FE0028F8D0F9E700BF2513002067
:104AE00000100040144938B54023C1F8083518B10A
:104AF000124B5222C3F80022114B124A0F4C0125CF
:104B00001D618023C1F80435137823F00703137067
:104B10004FF49470FFF742FC1823C4F86035FFF798
:104B200041FF40230848C1F8043501F093FAFFF72C
:104B300065FE00B9256138BD00F00140001000405D
:104B400000900040241300203011004038B5044686
:104B500001F098F9084D0021C5F80C050846FFF74B
:104B600021FFFFF743FC14B901232B6138BDFFF788
:104B700045FE0028F8D0F9E70010004038B5114B89
:104B80001B780546C3B1104B1868FFF77BFC98B142
:104B90000E4C4FF40042C4F800224FF49E70FFF711
:104BA000FDFB0121C4F804230420FFF7FBFEFFF7FF
:104BB0001DFC15B90123236138BDFFF71FFE002836
:104BC000F8D0F9E725130020201300200010004042
:104BD000084B0222C3F88020BFF34F8FBFF36F8FC3
:104BE000C3F88021002283F80123BFF34F8FBFF366
:104BF0006F8F704700E100E008B5064B1B7833B1BA
:104C000002F054FA3B2894BF0020012008BD012087
:104C1000FCE700BF2513002010B501F0C7F80446DB
:104C200028B1FFF7E9FF044608B901F05FF8204614
:104C300010BD000038B5464B1B780546002B7FD0D1
:104C4000444A137823F01703137001F01BF9424A0A
:104C5000C2F80C05FFF7AEFB0446002871D0FFF741
:104C6000B3FB3E4BC2F80405C2F800321823C2F869
:104C700060354FF49A70FFF791FB4FF49470FFF793
:104C80008DFB4FF49870FFF789FB354935484FF499
:104C90005053C2F80433D1F8003243F48073C1F8A2
:104CA00000320123C1F840358223C1F84435FFF7B3
:104CB00079FE2D4B2D4AC3F84825C3F84C0500F565
:104CC000F030C3F82C09C3F85025C3F85415D3F8B5
:104CD000002842F08002C3F80028254AC3F8402586
:104CE00002F5AF3202F59672C3F844258022C3F86C
:104CF00004254FF48072C3F80425A0F5EF3040225C
:104D0000C3F80425D43801F0A5F9E5B9124B012206
:104D10001A61ACB901F052F9164B1860FFF74AFB63
:104D200070B1FFF751FB0C4B0C4AC3F80405C3F8F4
:104D30000022D3F85025D2B2022A04BF01229A6081
:104D400038BD522390E7FFF759FD0028DED0E0E799
:104D500025130020241300200010004052000800FA
:104D6000009000400410004000F001403C71014000
:104D7000101100402C1300202DE9FF4104460028AB
:104D800000F0BC8002F092F93B2840F20881854E89
:104D9000337803F0FF07002B40F00181824C01259E
:104DA0000F233946C4F8FC7F0D22C4F8FC5F684627
:104DB000C4F8103503F026FA08238DF800307F235D
:104DC0008DF808309DF802309DF801208DF80650CE
:104DD0001B0443EA02239DF80320002A18BF4FF466
:104DE00080119DF8042008BF00210B4343EA825341
:104DF0009DF8072043EA427343F0C0634FF0020876
:104E000043F008038DF80580C4F814359DF80A3086
:104E10009DF809209DF80C101B0443EA02239DF81D
:104E20000B20002A14BF4FF080720022002914BF0B
:104E30004FF0007100210B43134343F07F03C4F88C
:104E4000183540F20223C4F85056C4F83435574B95
:104E5000C4F83835FFF738FB554BC4F84476C4F82E
:104E6000483601F001F8FFF7A9FC524B83F80173B3
:104E7000C3F88081D4F8003233B14F4B4F4A40F22F
:104E80002C714F4802F0DEFF357001F0CDF84D4B2C
:104E90001B78092B2DD8DFE803F0822C052C0B148E
:104EA0002C171D23002004B0BDE8F041FFF7C2BE5F
:104EB00000220121444B186804B0BDE8F041FFF71F
:104EC0007FBD00221146F5E7002004B0BDE8F041A7
:104ED000FFF754BE002004B0BDE8F041FFF7D4BD99
:104EE0003378002B5BD0002004B0BDE8F041FFF721
:104EF0002DBE364B314A40F25371C2E7294B1A7826
:104F00003AB3187002F0AAF838B1FFF761FE264BE9
:104F10000122C3F8FC4FC3F8FC2F01F093F80022E4
:104F200002210120FFF780FC20B9294B294A40F2D9
:104F30007171A6E7234B1A78092A2BD8DFE802F013
:104F400009050E1620202009090900221A70FFF712
:104F5000D7FA04B0BDE8F04102F07CB81E4B1B78D4
:104F60005B07F6D50520FFF70DFBF2E702221A706A
:104F70001A4B1868002380F88030FFF70FFBE8E732
:104F800002221A7000F014FF0420FFF7E7FA00F085
:104F900041FEDEE70D4B0F4A4FF4F36171E704B0B9
:104FA000BDE8F08125130020001000402110010011
:104FB000000700FF00E100E00D090100550A0100B3
:104FC000820801002613002030130020FA07010098
:104FD000AB090100380A0100241300202C13002023
:104FE0000D4A002313700D4A13700D4BD3F804259E
:104FF00022F00302C3F80425D3F8082542F0030287
:10500000C3F80825D3F8102522F00F0242F004025D
:10501000C3F8102501F0BCBD261300202513002085
:10502000009000402DE9F84307468846154699460A
:1050300000F0BCFE044600B3124E3378022B06D0BB
:105040003378032B03D0FFF7D7FD40B900240DB10F
:105050002046A84700F04AFE2046BDE8F8834A46AD
:1050600041463846FFF7E0FB04460028EED0022315
:1050700001203370FFF7DEFDE9E7002DECD0A847F3
:10508000EAE700BF261300202DE9F7430B9D0191AD
:105090009DF82890804617461E46FFF7BDFD0199F2
:1050A000044638B301224046FFF7BEFB044648B928
:1050B00000240DB12046A84700F018FE204603B09A
:1050C000BDE8F083DFF83880022388F800300B4B0E
:1050D0000122314638461F60FFF772FCB9F1000F1C
:1050E00001D00028E4D0002E14BF0423052388F843
:1050F0000030DEE7002DE1D0A847DFE730130020C5
:105100002613002010B50446FFF786FD012184F820
:10511000801058B1204B1B7833B1204B1B78022BE9
:10512000DAB205D0062A1FD000F0E0FD012010BD44
:105130001B4AD2F85035DBB2022BF5D1D2F800323F
:10514000522B06D0174B184A40F62E41174802F052
:1051500079FE174B1C60FFF737F9164BC2F80405B0
:10516000C2F800329160DFE70D4AD2F85035DBB269
:10517000022BD9D1D2F80032122B04D00E4B0A4A9E
:1051800040F63D41E2E70A4B1C60FFF71DF90B4B6F
:10519000C2F80405E4E700BF251300202613002011
:1051A0000010004033090100E809010082080100F5
:1051B0002C130020520008005709010012000800BB
:1051C00038B5FFF729FD044678B1124D2B781BB195
:1051D00000F04AFEFFF7F2FA0F4B1B78022BDAB20F
:1051E00005D0092A0ED000F081FD204638BD0122ED
:1051F00011460020FFF718FB0028F4D00120FFF72C
:1052000019FDF0E72B78002BEDD0044B01221A6139
:10521000E9E700BF251300202613002000100040FE
:105220002DE9F04F8FB000F0E3FCAA4BD3F8042334
:10523000920728D5D3F804312BB34FF48270FFF7CF
:10524000ADF8A54B1A78052AD3B209D8032B0CD890
:1052500038D0A24BA24A40F68521A24802F0F2FDC6
:10526000062BF6D100F07AFC0DE09F4B1C6820461F
:1052700000F060FC10B12046FBF748F99B4A137818
:1052800043F008031370934ED6F804335F0547D5F7
:10529000D6F82831002B43D04FF49470FFF77EF8F6
:1052A0008D4B1B78022B40F00A81D6F86075C7F34E
:1052B000C707022F8DF8207009D88D4B8D4A4FF407
:1052C000FA61CAE78C4B1868FFF752F8DBE7D6F8AB
:1052D00034312BBB854D2B7813F0010800F0B480DE
:1052E0004FF001082B789E071AD4B8F1000F17D0A1
:1052F000824E3068047801F099F9631C5B01002844
:1053000040F0D48003F1A00001F0A6FE002800F0D8
:10531000D0802B78306843F002032B7000F01CFC27
:105320006C4BD3F80423940412D5D3F834317BB1F9
:105330004FF49A70FFF732F8674B1B78022BDCB200
:1053400040F0C2800020FFF7CDFB2046FFF71AF99E
:10535000604BD3F80423D00440F11681D3F83031E8
:10536000002B00F011815C4E4FF49870FFF716F897
:105370003378022B40F0B3815C4F604C3B7825685A
:1053800043F01003D9073B7040F1BE80206801F064
:105390004DF9002800F0C18000F056FD002800F013
:1053A000BC80206801F0FCFB534B1860002800F023
:1053B000B480484A5249C2F804054FF4A013C2F819
:1053C00000324FF4AA70FEF7E9FF4E4BC3F85815B0
:1053D0004FF40071C3F85C25C3F80415A3F5B0338E
:1053E0000121D3F84405D964D3F84C15D3F84035DE
:1053F000884205D9984240F2B580994200F2B280C5
:10540000FEF7ECFFD2F85035DBB2092B00F0AA8092
:10541000D2F85431002B40F0A580226882F8803009
:10542000384A4FF40071C2F80815C2F85835C2F86E
:105430005C35C2F83439FFF7BDF80120FFF7FAFBFD
:105440002846FFF7ABF89FE0DFF8B09043F0040385
:10545000D9F800002B7008A900F0DAFF044660B903
:105460009DF820309F4203D0DB00C6F8603537E757
:105470002B7843F001032B7032E7092810D1FFF796
:1054800099F80120FFF7D6FBD9F800305B7803F0DC
:105490000703022B3FF426AF2046FFF773F821E7FE
:1054A00000F0CAFC00287FF41BAFE8E703F530707A
:1054B0002AE7FFF77FF8052001F0D1FF30E7074B1F
:1054C000074A40F69A21C8E6044B054A4FF42B617F
:1054D000C3E600BF0010004026130020FA070100B9
:1054E000DC09010082080100301300202413002091
:1054F0007F090100C7090100281300202C13002098
:105500004491004000F0014000F096FC002800F0BB
:10551000DD803B78DA073FF539AF0120FFF7E2FA8B
:105520006B7803F00703022B00F0BE802368002293
:1055300083F8802000F042FD2060FEF73BFF00284A
:105540003FF47EAFFEF740FFB94BBA4AC3F80405FB
:10555000C3F80022D3F85025D2B2022A04BF012298
:105560009A606DE7B24A032333704FF45053C2F888
:1055700008334FF4B670FEF711FF4FF48270FEF758
:105580000DFFAD4BC2F80433A94CD4F804331B0112
:1055900040F11081D4F86C31002B00F00B81A74E44
:1055A000A74F4FF4B670FEF7F9FE3278032AD3B254
:1055B00000F09A80043B012B00F273813B781F07B7
:1055C00040F1F8809F4F386801F030F80546002818
:1055D00000F05081FEF7EEFE9B4A9C4B051E08BF73
:1055E00012234FF04001C2F80815C4F8003203D06E
:1055F000FEF7EAFEC4F804054FF48670FEF7CEFE0F
:10560000934BC4F808334FF48270FEF7C7FE0A23A9
:10561000C4F804330020FFF77DF88B498D4BC1F8A7
:105620004835A3F5B033A3F59C73C1F84C3503F5A9
:10563000F033C1F82C39FFF7B5F98023C1F80435F0
:105640004023C1F8043506233370FFF7D7F808B9B3
:1056500001232361ADB900F0B1FC7F4B1860FEF768
:10566000A9FE70B1FEF7B0FE714B784AC3F804058D
:10567000C3F80022D3F85025D2B2022A04BF012277
:105680009A603A68937803F03003202B00F0928000
:105690004FF4AE70FEF782FED378654A1B0643F4E2
:1056A0000073C2F8443685E000F0C6FB00287FF4A2
:1056B0003DAF5F4B5F4AC3F80022D3F85025D2B20A
:1056C000022A7FF461AF01229A605DE7FEF772FF64
:1056D0000120FFF7AFFA0420FEF754FF54E75F4BB9
:1056E0005F4A40F6C421B8E557495E4ADFF8689141
:1056F0004FF0400B4FF0010A5223D9F80080C1F857
:1057000008B5C2F810A0C4F800321823C4F86035F8
:10571000494BC4F808334FF49A70FEF73FFE4FF43C
:105720009470FEF73BFE4FF49870FEF737FE4FF48F
:105730005053C4F804334FF40073C2F810A000258E
:10574000C1F808358023C1F85855C1F85C55C1F837
:105750003459C1F80435FFF725F94348C1F804B5B9
:1057600000F078FCFFF74AF808B9C4F810A0D9F89F
:10577000003083F8805000F021FCC9F80000FEF7EB
:1057800019FE70B1FEF720FE294B2A4AC3F8040522
:10579000C3F80022D3F85025D2B2022A04BF012256
:1057A0009A60022333703B7823F007033B70404636
:1057B000FEF7F4FE1E4AD2F804331D0740F1B8800C
:1057C000D2F80C31002B00F0B3801C4E4FF48670E1
:1057D000FEF7E4FD3378062B40F02D811E4FD2F802
:1057E0005C313D681BB1D2F80034DC0773D4154B33
:1057F0001868837803F03003202B69D1AB7803F06D
:105800003003202B64D16B7803F00703022B5FD1A8
:10581000074BD3F8004414F001045AD002A900F059
:10582000A3FF002842D1114B114A4FF4206114E527
:10583000001000405200080002000008261300205B
:10584000241300203013002000F001401200080053
:10585000020004083C7101402C130020FA070100EB
:10586000DC0901000090004030110040A509010052
:10587000B2090100FEF778FF022301203370FFF721
:10588000D9F93868009000F093FA009800F03CF9DC
:1058900000982B462A46294601F0E3FD00F0BAF9AC
:1058A00088E7884B884A40F6DC21D6E408A92846D8
:1058B00000F05AFF60B1059850B1099941B19DF8C7
:1058C0001D309DF834209A4202D102F053FB10B1F2
:1058D0000024254604E03D68002385F8803001243B
:1058E000FEF79AFE022701203770FFF7A3F9002C7C
:1058F00000F09B80FEF70CFE2B7801902B4413F8F0
:10590000010C00F037FB714B04B218680090BC40EA
:1059100000F04EFA009800F0F7F8FF2C28BFFF24A3
:10592000019A0098E3B2294601F09BFD00F072F95C
:10593000674BD3F80423D00610D5D3F810316BB1E0
:1059400064494FF48870FEF729FD0B78012B77D15D
:10595000FEF78CFD00230B70FEF7D2FD5C4BD3F8F5
:105960000423910318D5D3F84431ABB14FF4A2709E
:10597000FEF714FD57480378082B66D1FEF7A2FE08
:10598000022303700120FFF755F900F011FA0120FE
:1059900001F06FFD00F03EF94D4BD3F804235203A4
:1059A0001CD5D3F84831CBB14A4C4FF4A470FEF764
:1059B000F5FC2278052AD3B24FF002054AD8032B12
:1059C0004AD9FEF7D1FE01202570FFF733F900F028
:1059D000EFF90120FEF7C2FD00F01CF93C4CD4F8B1
:1059E00004331B041CD5D4F83C31CBB1394E4FF4F1
:1059F0009E70FEF7D3FC3378072B5DD1364DD4F87B
:105A000068362A78DBB2934238BF13462B70334B8B
:105A10001868002835D0FEF735FD78B3012363629E
:105A20000FB0BDE8F04F00F061B900F0C1F93846A1
:105A3000FEF794FD7AE7234B234A40F6EF210CE46E
:105A4000204B214A40F6023107E41E4B1E4A40F625
:105A5000153102E4082B05D01A4B1B4A40F62D31B4
:105A6000FFF7FBBB0120FEF72DFE2570FFF7E2F8E4
:105A700000F09EF9002001F0FCFCADE7FEF7E4FC2D
:105A8000CEE700F0F1F9FEF799FEFEF7F3FD0120F5
:105A900002233370FFF7CEF8287800F072FA00B2D4
:105AA000840000F085F9FF2C28BFFF24E0B201F04C
:105AB000DCFC00F0AFF8B3E7024B034A4FF434616B
:105AC000FFF7CBBBFA070100DC090100301300200F
:105AD00000100040261300201C130020201300207B
