:10000000000002206D810000958100006512000053
:10001000998100009B8100009D810000000000008C
:100020000000000000000000000000009F810000B0
:10003000A181000000000000A3810000A581000054
:10004000CD79000081580000952D0000B5360000E4
:10005000C5360000A7810000F92B000041320000E6
:10006000B1340000C1340000A7810000A781000066
:10007000A7810000A7810000A7810000A7810000E0
:10008000A7810000590D0000A7810000A781000092
:10009000F50D0000A7810000A7810000A7810000E6
:1000A000A7810000A7810000A7810000A7810000B0
:1000B00009320000A78100000000000000000000DD
:1000C000A781000019320000A78100000134000060
:1000D000E17E0000A7810000A7810000A781000049
:1000E000ED440000000000000000000000000000DF
:1000F00000000000A781000000000000A7810000B0
:1001000000000000000000000000000000000000EF
:1001100000000000000000000000000000000000DF
:1001200000000000000000000000000000000000CF
:1001300000000000000000000000000000000000BF
:1001400000000000000000000000000000000000AF
:10015000000000000000000000000000000000009F
:10016000000000000000000000000000000000008F
:10017000000000000000000000000000000000007F
:10018000000000000000000000000000000000006F
:10019000000000000000000000000000000000005F
:1001A000000000000000000000000000000000004F
:1001B000000000000000000000000000000000003F
:1001C000000000000000000000000000000000002F
:1001D000000000000000000000000000000000001F
:1001E000000000000000000000000000000000000F
:1001F00000000000000000000000000000000000FF
:100200000348044B834202D0034B03B118477047A5
:10021000FC060020FC060020000000000548064BFC
:100220001B1AD90F01EBA301491002D0034B03B1F4
:1002300018477047FC060020FC0600200000000064
:1002400010B5064C237843B9FFF7DAFF044B13B11E
:100250000448AFF300800123237010BD0007002085
:1002600000000000C036010008B5044B1BB1044972
:100270000448AFF30080BDE80840CFE7000000006D
:1002800004070020C0360100A3F5803A704700BF84
:10029000154B002B08BF114B9D46FFF7F5FF0021C2
:1002A0008B460F461148124A121A08F015F80C4BEB
:1002B000002B00D098470B4B002B00D09847002014
:1002C000002104000D000B4808F044FB08F0FAF987
:1002D0002000290000F0AAF908F02EFB0000080019
:1002E00000000000000000000000022000070020C5
:1002F0006C9F0020298C000000B58BB00DF10F031E
:100300000693012398408DF81D0018438DF80F10B7
:100310008DF8250000210F4800910DF117028DF88E
:100320001C308DF81E3008928DF8243000688DF84E
:100330001710022306AA8DF8261002F0C9FB014609
:1003400010B1054808F01CFB9DF817000BB05DF8D4
:1003500004FB00BF1C070020F40501007FB541EA43
:1003600002214000ADF80E100DF10E0300218DF8B2
:1003700015000A480091049302238DF81430006898
:100380008DF81610012304AA02F0A2FB014610B159
:10039000034808F0F5FA07B05DF804FB1C070020DD
:1003A000F405010038B5054D642445F001054FF40E
:1003B0007A40A847013CFAD138BD00BF802901002E
:1003C00008B51E4B8022186024211920FFF7C6FFB4
:1003D000FFF7E8FF802223211920FFF7BFFF5722F4
:1003E00020211920FFF7BAFF0F211920FFF784FF02
:1003F0000146134808F0C4FA402260211E20FFF78E
:10040000ADFFFFF7CFFF102262211E20FFF7A6FFEE
:100410000C2260211E20FFF7A1FF4F211E20FFF7B5
:100420006BFF0146074808F0ABFAC0221F211920D4
:10043000FFF794FFBDE80840FFF7B4BF1C0700209A
:10044000180601003006010010B52DED028B2921A0
:1004500088B01920FFF750FF282104461920FFF724
:100460004BFF40EA042040F3891007EE900AF8EEB3
:10047000E77A17EE900A0FF081FB2DA3D3E9002352
:100480000FF0D4FB2C4B00220FF0FAFC0FF0A6FE6D
:100490002B2108EE900A1920FFF72EFF2A2104468F
:1004A0001920FFF729FF40EA042040F3891007EEE6
:1004B000900AF8EEE77A17EE900A0FF05FFB1CA3A4
:1004C000D3E900230FF0B2FB1B4B00220FF0D8FC46
:1004D0000FF084FE2D2108EE100A1920FFF70CFF03
:1004E0002C2104461920FFF707FF40EA042040F3BF
:1004F000891007EE900AF8EEE77A17EE900A0FF0EF
:100500003DFB0BA3D3E900230FF090FB0A4B002225
:100510000FF0B6FC0FF062FE01EE100AB0EE680AB2
:10052000F0EE480A08B0BDEC028B10BDAFF30080BE
:100530003333333333330F4000408F40000000002B
:1005400030B585B0FFF780FF60EEA00A8DED031A8D
:10055000E0EE000A10EE900A0FF010FB41EC100BD9
:100560000EF05CFC039855EC104B0FF007FB0246B5
:100570000B46204629460FF083FC41EC100B0EF091
:10058000BBFE0B4B51EC100B00220FF04FFB06A3F0
:10059000D3E900230FF074FC0FF020FE00EE100AE8
:1005A00005B030BDAFF30080182D4454FB21094045
:1005B0000080664038B52DED028BFFF7C1FF10EECD
:1005C000104A20460FF0DAFA02460B461448154D41
:1005D00008F0D6F907EE904AB1EE678AB0EE480A05
:1005E00000F07EF818EE100A0FF0C8FA0E4B002249
:1005F0000FF01CFB41EC100B0DF052FD51EC100BF9
:100600000FF0C4FD04462868201A07F0DDFE052817
:1006100003DDA0B200F0F0F82C60BDEC028B38BD19
:100620004706010020070020000010401FB51B48AE
:1006300008F0A6F91A4B0FCB6C4684E80F00002592
:1006400010230822214617488DF80C50CDE90023CD
:1006500002F0D2F91348144CFFF7B2FE00F02CF868
:1006600000F076F840F2F31000F086F800F01AFD82
:100670000E4A0F48012100F05DFD0E482A464FF456
:10068000C86100F069FD44F001044FF47A754FF43D
:100690007A40A047013DFAD1F7E700BF56060100B6
:1006A000B42901009829010090290100B505000036
:1006B000B0290100540700201FB56FF0FC024FF471
:1006C000A063CDE9012301A94FF4FA730022034886
:1006D000039302F06FFC05B05DF804FBC429010030
:1006E0009FED157AB4EEC70AF1EE10FA07DCB5EE0D
:1006F000C00AF1EE10FA04D59FED100A01E0B0EE49
:10070000470AC0EE076A0E4B0E4A0F490F4803F521
:10071000A163D3ED007AF8EE677A67EEA67AFDEE74
:10072000E77A17EE903A6FEA43436FEA5343138038
:100730000223012202F016BD0000C84200000000A2
:1007400000C001407407002000000020C4290100FF
:100750001FB5074A1068516801AB03C39068186061
:10076000002201A9034802F025FC05B05DF804FB56
:10077000D4290100CC29010038B51C4D2DED048B86
:1007800008EE100ADFED1A9A9FED1A9A0024F7EE90
:10079000008A07EE904AB8EEE77A0134C7EE297A6C
:1007A00067EE897A17EE900A0FF0E8F941EC100B2A
:1007B0000DF02EFC51EC100B0FF010FD07EE900A1F
:1007C00077EEA87AB6EE007A67EE877AB8EEC87A46
:1007D000B4F5FA7F67EE877AFCEEE77A17EE903A87
:1007E00025F8023BD5D1BDEC048B38BD76840020C2
:1007F0000000FA43D00FC94007EE900A9FED197A26
:10080000DFED196A1949F8EE677A30B567EE877A35
:10081000174C87EEA67A85B000224FF4FA7007EEE7
:10082000902AF8EEE77A013267EE877AB2F57A5FBE
:10083000FDEEE77A17EE903A93FBF0F500FB1533E7
:1008400034F8133021F8023BE9D10A4B0FCB6C4648
:1008500084E80F00022301222146074802F082FCAF
:1008600005B030BD0000FA4300007A46760700204C
:1008700076840020E0290100CC29010010B503682E
:10088000292B044604D9074940F2CD1000F004FD9D
:1008900023681F2B83BF03F01F03236002484FF020
:1008A000A04010BD660601000003005007B501908E
:1008B00001A8FFF7E3FF019A01239340C0F80C352C
:1008C00003B05DF804FB07B5019001A8FFF7D6FF60
:1008D000019A01239340C0F8083503B05DF804FB8A
:1008E00038B5054D044645F001054FF47A40A84758
:1008F000013CFAD138BD00BF602A01002DE9F34167
:100900003D4F3E4E0524022517F8013B019301A8F7
:10091000FFF7B4FF019B03F5E07340F8235001A8F3
:1009200016F8013B0193FFF7A9FF019B03F5E07364
:10093000013C40F82350E7D1152501A80195FFF7A8
:100940009DFF019B03F5E07340F2032640F823600E
:10095000132401A80194FFF791FF019B03F5E073B5
:1009600040F2031840F823601C2601A80196FFF707
:1009700085FF019B03F5E0731E2740F8238001A843
:100980000197FFF77BFF019B03F5E07340F823809D
:100990002846FFF798FF2046FFF795FF3046FFF700
:1009A00085FF3846FFF782FF1C20FFF77FFF1E20E0
:1009B000FFF77CFF4FF4FA70FFF792FF1C20FFF760
:1009C00082FF1E20FFF77FFF3220FFF789FF1C20E8
:1009D000FFF76CFF1E20FFF769FF4FF4FA70FFF777
:1009E0007FFF1C20FFF76FFF1E20FFF76CFFFA2030
:1009F000FFF776FFD8E700BF6B2A0100662A0100E7
:100A000073B506460D46144672B601F0C5FB01F0FB
:100A100005FA0028FBD1124807F0B2FF44F20103A7
:100A20009E420AD044F202039E4214D12288616899
:100A30000C4807F0A5FFFFF761FFA668304601F0FC
:100A4000CDFE23680195009302466368064831464F
:100A500007F096FFEFE72946044807F091FFEAE721
:100A6000CB060100E4060100FF0601002907010092
:100A70002DE9F743054601F08FFB01F0CFF900287F
:100A8000FBD12A4B2A4C9E6A2A4BE41AE408240420
:100A900044F00104002D44D0AA692749204601F002
:100AA0002DFBEB680193AB680093D5E90023234944
:100AB000204601F038FBEB690093D5E90423204977
:100AC000204601F024FB194BDB6A990703D51D4929
:100AD000204601F00FFBDFF87C80DFF87C900025DA
:100AE000012707FA05F3334206D058F825201AB13A
:100AF0004946204601F002FB01351A2DF1D132069C
:100B000005D50A4B10495A6B204601F0F7FA330419
:100B100005D5064B0D499A6B204601F0EFFAFFF719
:100B2000EDFE0B49204601F0E5FACCE700ED00E0D0
:100B3000C437010074370100430701005807010062
:100B40008D070100E8070100370801005708010080
:100B5000B5070100F02901002C080100704770471B
:100B6000704770477047704738B50E4B1B680021BF
:100B7000986807F0B5FC4FF40041002001F0F4F84C
:100B800018B1094A142100F0BBF8084D01F018F81B
:100B90000A2445F001054FF47A40A847013CFAD1F8
:100BA00038BD00BF38000020270D0100702A010069
:100BB0007047000007B5044B0093044A402300F03F
:100BC0009DFF03B05DF804FB250C00006088002049
:100BD00030B50F4D0FCD89B06C460FC495E80F00AE
:100BE00084E80F0006222823CDE9002309480A4B98
:100BF00006930022694600F021FD18B1074A4621FC
:100C000000F07EF8064B00221A7009B030BD00BF1C
:100C1000842A01001000002000509D007E0D01007C
:100C20005E88002038B50E480E4C0F4D002323700F
:100C30000378EB5CD2B273B1043003F0DBFD18B182
:100C40000A4A562100F05CF8094B1B7813B123784F
:100C5000002BFCD038BD0C3003F07AFAEFE700BF70
:100C6000100000205F880020D48900207E0D010044
:100C70005E88002008B50848084A0378D35C33B181
:100C8000043003F035FDBDE80840FFF7A1BF0C308C
:100C900003F0F2F9F7E700BF10000020D48900202C
:100CA000FFF796BF10B50848D4B20378074AD35C63
:100CB000224623B1043003F09DFD204610BD0C30C8
:100CC00003F046FAF9E700BF10000020D4890020A5
:100CD00008B50948094A0378D35C012243B10430BE
:100CE00003F002FE002814BF4FF0FF30012008BDC2
:100CF0000C3003F09DFAF5E710000020D4890020A5
:100D000000B583B002900091019244F20100714657
:100D10006A46FFF775FE03B000BD0000094B5A7824
:100D200099780132D2B2914208BF002219789142DB
:100D30001FBF02705A78182101FB023014BF043023
:100D400000207047B4880020024B4FF43C6043F011
:100D500001031847B02A0100F8B51F491F4B0025B1
:100D6000C1F84051C1F84451C1F84851C1F84C5143
:100D7000C1F80051C1F804511B684BB3D1F80445C8
:100D800017490968641A24F07F442F461A68A24262
:100D900009D8A41A15441A7CDE691AB1D3E90520D2
:100DA0001F749047AEB90F4A0F4B11781B788B42D6
:100DB00005D10133DBB2022B08BF00231370127878
:100DC0000A4B43F822500A4B4FF48012C3F800211B
:100DD000F8BD3346DAE700BF00100140B0880020BC
:100DE000AC880020A2880020A3880020A4880020CE
:100DF00000E100E02DE9F74F9F49A04A0B781278F7
:100E00009F4D9A4255D00133DBB2022B08BF00231D
:100E10009C4A0B709C49166851F82300331823F044
:100E20007F43136000222B6817461446944613B97B
:100E300042B12B6006E01968814228D902B12B60CB
:100E4000091A19604FF0010B2B68DFF850920093DC
:100E50004FF0000A002F46D03C46FF69894B666878
:100E600019688A4AA368701A20F07F40904200F205
:100E7000E180034401202074286823600021C4E934
:100E80000111E161002840F0DD802C60E2E7401AAA
:100E90000C44D968D3F81CE0C3F800C031B1321952
:100EA00022F07F42C3E90121DF611F467346012220
:100EB000BDE70027BB46C7E799F802402E68431CF0
:100EC000DBB29C4208BF002389F80030182303FBE3
:100ED000009003798468022B6AD0032B00F0948081
:100EE000012B00F0948099F8000099F801308342BA
:100EF000E2D12B68BAF1000F05D1009A9A4202D1D3
:100F0000BBF1000F43D0002B41D0D3F800A0604DBF
:100F10005C4BD5F804751C68DFF884813E1B98F89B
:100F2000003026F07F4603369BB94FF48033C5F876
:100F30004433C5F80433574B4FF40032C3F88021D3
:100F40001A604FF00109C5F80090FFF7FDFE88F820
:100F50000090B2452CBF5444A41924F07F44C5F836
:100F60004045D5F80435DB1B23F07F43E41B0333F6
:100F700024F07F44A3420AD9D5F80435C5F840359A
:100F8000FFF7E2FE434B4FF40032C3F80021424B1F
:100F900000221A7003B0BDE8F08F44450BD04046E4
:100FA000D8F81C80B8F1000FF7D1002323749AE71A
:100FB000B0463046F6E784420DD1F3692B6053B951
:100FC0003349019001228A602E490B60324B1A701E
:100FD000FFF7BAFE0198D8F81C20D8F80030C2619B
:100FE00012B111680B4413602B68B34218BF4FF065
:100FF000010ADAE73074F6690123002EFAD1002BDA
:101000003FF471AF2E606EE700231846F5E7267CAB
:10101000002E7FF468AFC16861600369A360436913
:10102000E3608369A3611C4B1B78002B18BF31461A
:10103000616013E7891B21F07F41994234BF5B1A3D
:10104000002317E70168994213D3C91A0160E061D0
:101050001BE79B1BCE6908463EB131460E68B34282
:10106000F7D8F61A0E600E4601462360E661CC61A1
:10107000F0E60146F2E700BFA3880020A288002026
:10108000B0880020AC880020A4880020FEFF7F00EC
:101090000010014000E100E0A0880020B48800209A
:1010A000A1880020F8B51B4E4FF40033C6F88030FD
:1010B000BFF34F8FBFF36F8F174D184F4FF480332F
:1010C0000124C5F84833C5F808336C60FFF73CFECF
:1010D000AC6000243C60FFF737FE114B1C70114BD5
:1010E0000B221C809A70104B1C60104B1C70104B14
:1010F0004FF480121C70E023C6F8802186F8143368
:101100003260C5F8084586F81133D5F804353B60E0
:101110002046F8BD00E100E000100140AC8800204E
:10112000A1880020B4880020B0880020A388002077
:10113000A2880020074B9B784BB132B128B10368DD
:10114000187C20B959745A617047072070470820ED
:10115000704700BFB48800202DE9F3411D4FBB78D4
:1011600004460D4616469BB390B31B4B4A1F9A424A
:101170002CD8436963B3437C0020012B0CBF884605
:101180004FF0000800F04EF80DF10700FFF7C6FD24
:10119000D0B101230370114B4460D3F80435C0E98A
:1011A0000486C0E902359DF807307B7000240020DA
:1011B00000F048F824B90A4B4FF48012C3F800211C
:1011C000204602B0BDE8F0810424F0E70724F7E7E9
:1011D0000824F5E7B4880020FAFFFF000010014062
:1011E00000E100E072B6024A1368013313607047F1
:1011F000C0890020034A1368013B136003B962B63B
:10120000704700BFC0890020EFF30583C3F30803D4
:101210002BB9EFF31480C04300F0010070470120A8
:101220007047000008B5FFF7EFFF012803D004491D
:10123000432000F031F8BDE80840FFF7D3BF00BFFE
:10124000DB0D010008B5FFF7DFFF012803D00449DB
:10125000512000F021F8BDE80840FFF7CBBF00BFE8
:10126000DB0D01001EF0040F1CBFEFF309800AE044
:10127000EFF308800549064A884201D8904202D817
:101280008D464FF00000034B18470000000002207D
:1012900000E00120710A000007B5ADF800000191DF
:1012A0006A46002144F20200FFF7AAFB03B05DF892
:1012B00004FB10B5034653E8000F0A4643E8002438
:1012C00094F0000FF7D110BD10B5034653E8002F7E
:1012D00042EA010043E8000494F0000FF6D110BD8B
:1012E00010B5034653E8000F00EA010243E800246A
:1012F00094F0000FF6D110BD10B5034653E8002F4F
:1013000002EB010043E8000494F0000FF6D110BD99
:1013100010B5034653E8002FA2EB010043E8000498
:1013200094F0000FF6D110BD0121FFF7CDBF0021D1
:10133000FFF7D6BF10B50446002834D003681BB9A8
:101340001A49FF20FFF7A8FF636823B917494FF434
:101350008070FFF7A1FFA36823B9144940F2011080
:10136000FFF79AFFE36823B910494FF48170FFF744
:1013700093FF238A23B90D4940F20310FFF78CFF36
:10138000D4E9012321689B1ADBB20A60013BDBB27E
:10139000FF2B226802D10020107110BD1168481C7B
:1013A00010600B70F2E70E20F7E700BF520E01004D
:1013B00038B5044620B912494FF49270FFF76CFF1C
:1013C0000020FFF72FFF2268616813688B4215D950
:1013D000591E116013F8013C228AE56802FB03558F
:1013E0002268A36811685B1A1179DBB2994200D2B6
:1013F00013710020FFF726FF284638BD0025F8E7C7
:10140000520E010038B50C46054620B90E4940F28F
:101410004710FFF741FF24B90B494FF4A470FFF7C1
:101420003BFF0020FFF7FEFE2A681368591C11607D
:10143000EA68A41A2A8AB4FBF2F41C70BDE83840AA
:101440000020FFF7FFBE00BF520E01001FB503785A
:101450008DF800308388ADF8043083688DF806304D
:10146000C3688DF80730036902934369054A039303
:10147000054B684653F8213052F82110984705B0C3
:101480005DF804FBC4890020CC89002010B50368F6
:10149000292B044604D9074940F2CD10FFF7FCFE82
:1014A00023681F2B83BF03F01F03236002484FF004
:1014B000A04010BD660601000003005007B5019072
:1014C00001A8FFF7E3FF019A01239340C0F8083514
:1014D00003B05DF804FB0000024B4FF4807043F052
:1014E00001031847C02A01002DE9F743154690F87B
:1014F0000080354A42F82850344A42F828304B7B65
:1015000006460C4683B30B684FF0A04703F5E07323
:1015100040F20C6247F823204B6803F5E0734FF06C
:10152000010947F823200868FFF7C8FF6068FFF744
:10153000C5FF236803F5E07340F20D6247F82320EE
:10154000636803F5E07347F82320FFF7C5FF002722
:101550006368019301A8FFF799FF019AD0F810354D
:10156000D340DB070CD5FFB9194A002D434608BF0D
:101570002A462146301D03B0BDE8F04302F0AAB868
:101580002368019301A8FFF781FF019B09FA03F388
:10159000C0F80C35FFF7A0FF01372068FFF78EFF7A
:1015A000FFF79AFF092FD3D16368019301A8FFF7D2
:1015B0006DFF019A01239340C0F80C35FFF78CFFB3
:1015C0006068FFF77BFFCFE7CC890020C48900204B
:1015D0004D1400001FB503788DF800304368019367
:1015E00083688DF80830C368054A0393054B684645
:1015F00053F8213052F82110984705B05DF804FBEC
:10160000D8890020E08900201FB503788DF80030CC
:101610004368019383688DF80830C368054A0393D3
:10162000054B684653F8213052F82110984705B011
:101630005DF804FBD8890020E0890020F0B5194B43
:1016400090F800C0DFF86CE043F82C20164B1646EB
:101650000A6943F82C200C464B7F0EF80C300746E5
:101660000FCC89B06D460FC594E80F0085E80F00D8
:101670003B78CDF810C01EF803304BB1002E0B4A5A
:10168000694608BF3246381D02F038FF09B0F0BD88
:10169000002E074A694608BF324607F10C0002F0E7
:1016A000FFFBF3E7E0890020D8890020D515000072
:1016B00009160000D489002010B5044618B906495F
:1016C0003120FFF7E9FDA2682AB16369216820692A
:1016D00098470023A36010BDCA0E01000EB433B5B5
:1016E000059D044618B911494220FFF7D5FD6369ED
:1016F0001BB90E494320FFF7CFFD23681BB90B49E7
:101700004420FFF7C9FD63681BB908494520FFF76E
:10171000C3FD35B106AB01AA29462046019300F06E
:1017200071F802B0BDE8304003B07047CA0E010046
:10173000826830B40468551C8560A154D0E9013238
:101740009A4202D330BCFFF7B7BF30BC70470000ED
:101750002DE9F84F9946DDE90A4315468246884649
:101760000A460127AA420FD24F4538BF4F4613F011
:10177000010B01D164B900240126B9F1010F1CD974
:1017800009F1FF396E43F8E70137B2FBF5F2E9E7FB
:101790009B0710D5B9F1000F0CBF30262026BC42A4
:1017A000EAD9013C31465046FFF7C2FF002CE2D097
:1017B000BC42F6D1E0E72026F1E7B8FBF6F39D4204
:1017C000E0D9DFF83C90B8FBF6F3504619F8031067
:1017D00006FB1388FFF7ACFF3346AB42B6FBF5F6CA
:1017E000F1D2BBF1000F00D034B9BDE8F88F202151
:1017F0005046013CFFF79CFFBC42F8D8F5E700BF1C
:10180000C62A01002DE9F74F0F469046054620B93C
:10181000B74940F25220FFF73FFD6B6923B9B44945
:101820004FF41570FFF738FD2B6823B9B04940F22B
:101830005520FFF731FD6B6823B9AD4940F25620C2
:10184000FFF72AFD002F00F0558117F8011B49B959
:101850002B7B002B00F04E81284603B0BDE8F04FF3
:10186000FFF72ABF252940F0BD8000263A4612F82E
:10187000013B2D2B25D0302B27D02B2B28D000241B
:101880002A2B07F1010226D1D8F80030191DC8F81B
:1018900000101B6817461C443B782E2B27D10137BC
:1018A0004FF0000A0A20394611F8012BA2F1300C42
:1018B000BCF1090F1DD800FB0A22A2F1300A0F4625
:1018C000F1E746F001061746D0E746F00206FAE7D0
:1018D00046F00406F7E712F8013CA3F130010929AC
:1018E000DAD80A2101FB0434303C1746C8E74FF030
:1018F000000A3A4612F8011B01F0FB00682817465F
:10190000F8D0782909D86F290BD8632964D021D859
:10191000252967D0582900F095803B78002B94D179
:1019200096E770390829F8D801A252F821F000BFD3
:10193000C71A00001B1900001B190000591A0000EB
:101940001B1900002F1A00001B1900001B190000B2
:10195000451A0000642901D06929DED1D8F8002099
:10196000111DC8F80010D2F800B08BEAEB72A2EBA0
:10197000EB724FF001090A21092A37DCD14538BF43
:10198000D1462CB1BBF1000F01DB720700D5013C41
:10199000B30702D5BAF1000F03D0F00701D454BB4E
:1019A0000024BBF1000F32DACBF1000B2D212846C9
:1019B000FFF7BEFE06F00302022A04D1BAF1000FBF
:1019C00001D144BB0024CDE9004653460A225946C2
:1019D0002846FFF7BDFEA0E7D8F800301A1DC8F86A
:1019E000002019782846FFF7A3FE96E709F10109C0
:1019F000B2FBF1F2C0E7A145D3D2013C2021284639
:101A0000FFF796FE002CCBD0A145F6D1C9E77107B0
:101A1000D0D52B21CBE7A145D5D2013C302128469A
:101A2000FFF786FE002CCDD0A145F6D1CBE7D8F844
:101A300000100A1DC8F80020CDE9004653460A22CE
:101A40000968C5E7D8F800100A1DC8F800205346F9
:101A5000CDE900461022F3E7D8F800301A1DC8F887
:101A6000002016F00106D3F8009024D1B9F1000F40
:101A700003D0484606F0C4FB0646B4421DD809F11F
:101A8000FF3919F8011F00293FF447AF2846FFF737
:101A90004FFEF6E728460136FFF74AFE19F8061012
:101AA0000029F7D1A642BFF438AF20212846013CD7
:101AB000FFF73EFEF6E70026F0E720212846013C2E
:101AC000FFF736FED9E7D8F800301A1DC8F8002015
:101AD000302128461C68FFF72BFE78212846FFF7A7
:101AE00027FE00220823CDE90032214610226FE7AD
:101AF000320F010003B0BDE8F08F00BFF0B595B024
:101B00001D46164608460C4600F00EFD1A9B0D9326
:101B1000CDE9086500252B46082205A920460A952F
:101B20008DF82C500C9500F027FD079B0293069B27
:101B300003939DF814308DF8115003F00302012A2D
:101B40001DD1BDF81420059DC3F3C203C2F3831653
:101B50008DF81030B20008230EA9204600F00CFDCD
:101B6000C5F3952508AB0093324602AB0EA9284673
:101B700000F080FB204600F0DBFC15B0F0BD022A2F
:101B8000F8D1BDF81650C3F3C203C5F389158DF81B
:101B900010300827082D2E4628BF08263B4632461F
:101BA0000EA9204600F0E8FCAD1B08AB02AA3146A6
:101BB0000EA8374400F0C2FB002DEBD1DAE700009D
:101BC00008B5FFF76DF80748042100F0BBFA0028BC
:101BD00003DA05494820FFF75FFB044B01225A71E5
:101BE00008BD00BF04380100A10F0100240000203F
:101BF000037813F0040215D003F00303012B03D084
:101C0000022B09D0012070470B6802880233C2F30F
:101C1000831213440B60F5E70B684288023303EB31
:101C20009213F7E7104670472DE9F04FDFF834A123
:101C30000F4687B00446861C00201546FFF7F2FACF
:101C4000DAF800203A60DAE901130B4401339B1AF9
:101C50000AF21C470AF583690AF21448B3421BD3FF
:101C60000021002D77D004F00F04A40144F00504F6
:101C700064F30F01DAF80020DAF808301340033378
:101C800032444AF823100020CAF80020FFF7DAFA9D
:101C9000012007B0BDE8F08F01213846FFF72CFB8B
:101CA0004846FFF741FB4046FFF73EFBDAF80400E9
:101CB000DAF808B0029000EA0B0003300AEB80006B
:101CC00002A9FFF795FF029B0246E0B90BEA030168
:101CD0000AEB8101C8680390991C013303EA0B03E6
:101CE0000AEB830300F003000128DB6802912AD08D
:101CF00002280BD01A49019240F28910FFF7CCFA62
:101D0000019A93460CE00BEA0300D6E74FEA134B27
:101D1000BDF80E30C3F38913033301EB9303029331
:101D20004046FFF704FB10B1029BCAF80430594645
:101D30003846FFF7E1FADAE901231344DAF8002024
:101D400001339B1A8AE74FEA134BBDF80C30C3F3FB
:101D500083130B44E3E7A40544F006018AE700BFC0
:101D600033100100E88900200B4B0C48FF2210B50E
:101D70009A600022C3F81824C3E90022C3F814248F
:101D8000012283F8202400F08BFB044610B904489C
:101D900000F0FCFC204610BDE8890020DC37010083
:101DA000D82A010030B50A4C71B10A4A0A49121BFF
:101DB000D20800239A4201D1002030BD31F82350CF
:101DC000854202D00133F5E7034654F83300F4E7C7
:101DD00074370100DC370100FC060020094B013993
:101DE00003EBC000032909D8DFE801F0020A04066A
:101DF0000220704700797047407970470020704793
:101E00000420704774370100034BD3E90030C31A34
:101E100058425841704700BFE88900202DE9FF472C
:101E2000FFF7F2FF002840F083807E4DC5F81804CC
:101E3000BFF34F8F6868AC6800902040033005EB1B
:101E400080006946FFF7D4FE009B18B1D5F818242E
:101E5000002A69D004EA03029F1C013305EB8202C9
:101E6000234005EB8303D268DB68029302F003038F
:101E7000022B019200976ED1BDF806306A48C3F379
:101E80008918B8F1500FC14628BF4FF0500969F3C7
:101E90008F1309F10801ADF8063000F019FB064672
:101EA000002800F0A98000F03FFB00233046082204
:101EB00001A900F04BFB24EA07030133B9EB830FC0
:101EC0004FEA83003FD95FFA89F9002837D004EA46
:101ED0000701C4B2A9EB040A0331A146534C05EB38
:101EE00081015FFA8AFA08234A46304600F02EFB49
:101EF00034B109F1080352462146304600F026FB72
:101F000008F1030807EB98070097D5F81834D5F8BF
:101F10001044002B5FD0304600F00AFBFFF774FF3F
:101F200080F00100C0B204E02A689A4204D86A60D6
:101F3000002004B0BDE8F08704EA03007EE73B49D7
:101F400004468246CFE704EA0701033108234A46E4
:101F500005EB8101D1E7012B4ED1BDF804303248A9
:101F6000C3F38311062928BF062161F389130231C7
:101F700001F00F018900ADF8043000F0A9FA06461F
:101F8000002839D000F0D0FA0023082201A93046F9
:101F900000F0DCFA0027BDF80420C2F38312BB0076
:101FA000BA4203F10803B0D900994A1C2140033119
:101FB000009205EB81010422304600F0C7FA013798
:101FC000E9E7E3685B7923B1236831461B68204663
:101FD0009847E3681C68002CF3D1304600F0A8FA5B
:101FE0002046FFF71FF9D5F818340BB9009B6B603A
:101FF0000020FFF727F991E7D5F8104454B90C4BAE
:102000000C480D49C01AC008000440F0020000F05E
:1020100071F883E7236820469B689847E3681C684B
:10202000ECE700BFE8890020DC370100F4890020DC
:1020300074370100C4370100AC1001002DE9F74FDF
:10204000274E04460F46914601A901221846D6F8AC
:1020500008A09846FFF7E8FD78B3019D0023A81C6F
:10206000434503EB000132D100211E48FFF721F95F
:102070004FEA144980F3100B1B4B1C4A9B1AB9EB17
:10208000D30F04D31A494FF4D770FFF705F96B1C2F
:1020900003EA0A03E40006EB830304F0380449EA88
:1020A0000B4205EA0A0544F00104DA60033544EA0C
:1020B000881343EA872346F8253096F820341BB16D
:1020C000FFF7ACFE0028FBD103B0BDE8F08F01EABA
:1020D0000A0106EB810159F82320CA600133BFE7EA
:1020E000E8890020048E0020DC37010074370100ED
:1020F0003310010000231A46FFF7A0BF07B50123E4
:10210000019201AAFFF79AFF03B05DF804FB1FB527
:10211000CDE90123069B039301AA0323FFF78EFF5A
:1021200005B05DF804FB1FB5CDE90023069B0293C3
:10213000079B03936A460423FFF780FF05B05DF811
:1021400004FB000030B51349D1F8104403460020C9
:1021500022464AB9DC682071D1F8104484B9C1F82C
:102160001034DB681A600AE0D2681579854201D024
:102170001268EEE701300A28EAD14FF0FF3030BD97
:10218000E468DA6824681460D1F81024D268136017
:10219000F5E700BFE889002038B5084B0125D3F8E2
:1021A000104483F8205404B938BDE3685D71236896
:1021B00020465B689847E3681C68F4E7E8890020DC
:1021C00010B5037A052B0C460FD0437A23B1084A89
:1021D00008492046FFF782FA07492046FFF77EFAB2
:1021E0002046BDE81040FFF767BA002AF8D0F3E7B1
:1021F000C1100100C6100100E610010073B5C388CC
:1022000004460D4633B1144A00921449144A284634
:10221000FFF764FA217A05291CD0637A4BB1A088B4
:10222000FFF7DCFD0F4B104953F820202846FFF73D
:1022300055FA227A0D4BA08853F822600021FFF74F
:10224000B1FD0B4903463246284602B0BDE8704056
:10225000FFF744BA02B070BDC1100100D1100100F7
:10226000C9100100E42A0100C6100100082B01007A
:10227000E91001002DE9F04385B01F460C9D0023B5
:1022800095F80C902B7306460C4690462946384626
:10229000FFF7B4FFB8F1060F09D8DFE808F0041221
:1022A000181F2833400031462846FFF717FA00224E
:1022B00029463846FFF784FF85F80C9005B0BDE845
:1022C000F083226831462846FFF708FAEFE7D4E9A1
:1022D000002331462846FFF701FAE8E7A368009398
:1022E000D4E9002331462846FFF7F8F9DFE7E36831
:1022F0000193A3680093D4E9002331462846FFF7F1
:10230000EDF9D4E723690293E3680193A36800938E
:10231000D4E9002331462846FFF7E0F9C7E76369AF
:10232000039323690293E3680193A3680093D4E9BC
:10233000002331462846FFF7D1F9B8E708292DE9EF
:10234000F84F80460E4617461C463BD8002593F8AA
:102350000C901D7319461046FFF750FFDFF88CA054
:10236000DFF88CB0AE422FD918F805205946204628
:10237000FFF7B4F90135082DF4D11949194DDFF8EB
:1023800074B02046FFF7AAF94FF0000A564522D94B
:1023900018F80A207E2A1CD81BF8021011F0970F9B
:1023A00008BF2E2210492046FFF798F90AF1010ACA
:1023B000BAF1080FEAD1012221463846FFF700FFA3
:1023C00084F80C90BDE8F88F51462046FFF786F957
:1023D000D0E72E22E6E729462046FFF77FF9E5E71A
:1023E000FD100100FB100100FF100100F9100100B9
:1023F000F3100100293201002DE9F74F99469DF8AD
:102400003030009388469346064618B92349B620D3
:10241000FEF742FFF28871794A43043A4A4505D8EB
:102420001E490192C420FEF737FF019ADBF80070C5
:10243000B6F806A007EB0901914209F1040488BF30
:10244000A2EB0907B4FBFAF5CBF800700AFB1544C0
:1024500045B9AAEB040BBB4528BFBB462FB903B057
:10246000BDE8F08F3668013DF2E7009B043408EBCD
:10247000050034445A466BB12146A7EB0B0706F022
:1024800087F8BA455D443668D3464FF0000428BF4C
:10249000BB46E3E701462046EFE700BF4D110100D0
:1024A000FEF748BFF8B546790146721E054600237F
:1024B00093422D6803D30024A64202D8F8BD01330D
:1024C000F6E70F682846FEF79DFF01343946F3E72B
:1024D0002DE9F041CD1C078A0646FEF769FF043F4F
:1024E0003D440446B5FBF7F5D0B14FF48073EDB22F
:1024F000C7808380013D066080460027AF4210D22E
:102500003046FEF755FF40B16379013363710137FF
:10251000C8F8000006608046F0E72046FFF7C2FFDB
:1025200000242046BDE8F08101210430FEF7E4BE1E
:1025300010B5012104460430FEF7EAFEC0B220B90E
:102540002046BDE81040FFF7ADBF10BD1FB51446D3
:1025500003920022009203AAFFF74EFF039BA342BF
:1025600006D00449F62004B0BDE81040FEF794BE42
:1025700004B010BD4D1101001FB514460392012295
:10258000009203AAFFF738FF039BA34207D0054937
:102590004FF4807004B0BDE81040FEF77DBE04B07B
:1025A00010BD00BF4D1101000268136851688B42D5
:1025B00083BF826801325218C81A88BFD01A704788
:1025C00038B50C46054618B904498320FEF764FE69
:1025D000AB68A3428CBF601C002038BDC81101004D
:1025E00038B5044618B907499820FEF755FE236808
:1025F00020461D685968FFF7E3FF431B58425841C6
:1026000038BD00BFC81101002DE9F0410D46044658
:1026100018B92D49A320FEF73FFE1DB92A49A42071
:10262000FEF73AFE0020FEF7FDFD2046FFF7D8FF3B
:10263000074610B1237C002B43D1D4F800802046FC
:10264000D8F80460D8F80410FFF7BAFFC8F80400FF
:102650002FB1276820463968FFF7B2FF3860E2687B
:102660006068531E072B24D8DFE803F004142318F6
:102670002323231C2B7883552046FFF795FF2368DF
:102680009A6882421BD300240020FEF7DBFD20461F
:10269000BDE8F0812B8820F81630EDE72B6840F874
:1026A0002630E9E7D5E9002300EBC600C0E90023A6
:1026B000E2E7294606FB020005F06AFFDCE79860C6
:1026C000E1E70424E0E700BFC811010010B50446AB
:1026D00020B9064940F22B20FEF7DEFD236818687A
:1026E0005B68C31A5842584110BD00BFC8110100B1
:1026F0002DE9F0410C469046054618B92249E720DD
:10270000FEF7CAFD1CB92049E820FEF7C5FD0020F0
:10271000FEF788FD2846FFF7D9FF002832D12F6841
:102720003E68B8F1000F04D139682846FFF748FF2A
:102730003860EA686968531E072B1DD8DFE803F08C
:10274000040D1C111C1C1C158B5D23700024002023
:10275000FEF778FD2046BDE8F08131F81630238081
:10276000F4E751F826302360F0E701EBC601D1E928
:102770000023C4E90023E9E706FB0211204605F027
:1027800007FFE3E70524E2E7C811010082680023A0
:10279000936082681361826853618268D360826843
:1027A000536082681360704710B50B4AA2F58C73B2
:1027B0009A4201D800200CE0D11A091103EBC104A0
:1027C00053F83110814205D802D204F10803EFE733
:1027D000606810BD2246EBE7342C010008B5FFF716
:1027E000E3FF024B002808BF184608BD342C010047
:1027F000C0B2002348700B707047000070B50D46E2
:10280000044618B908497120FEF746FD23681A6886
:1028100012683AB11A681B6851681B682846BDE8FF
:102820007040184770BD00BFC9150100F0B50446DF
:1028300087B018B92D493720FEF72EFD21680A7E92
:102840000B689E6806EBC20CD0B256F832609CF85A
:1028500005309CF804704FEAC20E9CF8062012F076
:10286000010F4FEA530503F0010336D0002B34D19A
:10287000D1F800C09CF80CC0013060452DDA086822
:1028800080680EF1080C60444079B5EB500F24D1FC
:102890000B68087E9B6803EB0C0253F80CC053795D
:1028A00092F804E0927903F001030130C3F10303CD
:1028B0005201C0B2DBB202F02002087601A904F195
:1028C0000C00CDE9027ECDE9046C8DF804308DF862
:1028D000055001F03FF807B0F0BD52014FF0000C79
:1028E000DBB202F02002E646E8E700BFC9150100AE
:1028F0002DE9F84F0E46044618B927498720FEF700
:10290000CBFC2568DFF894904FF000080020FEF71C
:1029100089FC16B923681B683BB960680022294608
:10292000FFF7E6FE88B3C5F8008000260020FEF71A
:1029300089FC7EB32B681B694BBB2F1D6869102275
:10294000394605F0F7FDA8B104F10C0B584604F127
:10295000080A00F0A5FF23464A4639465046FEF7CE
:10296000C3FD18B10C49B420FEF796FC584600F0A0
:102970004DFF6F6185F818802046FFF757FF01462D
:1029800040B12046FFF73AFFC0E70126CEE72B68AB
:102990001F69D3E7BDE8F88FC9150100A129000020
:1029A00038B50C46054618B91249D220FEF774FC1A
:1029B00023681B681BB90F49D820FEF76DFC2978E6
:1029C00071B92268137E10680133007BDBB2984234
:1029D00007D913762046FFF729FF014608B938BD0D
:1029E00003212046FFF70AFF20460121BDE83840B9
:1029F000FFF77EBFC9150100F8B50D46044620B9A2
:102A000019494FF48470FEF747FC636823B91649EF
:102A100040F20910FEF740FC63689B6823B9124935
:102A20004FF48570FEF738FC25B90F4940F20B10C2
:102A3000FEF732FC0D4A2346294604F10800FEF752
:102A400053FD074670B904F10C0000F0DFFE236867
:102A50001F6095E80F002668043686E80F0023689B
:102A60001A1D5A613846F8BDC9150100A129000098
:102A700037B50546019120B9144940F22D10FEF7F3
:102A80000BFC019B23B911494FF49770FEF704FC2E
:102A9000019B9B6823B90D4940F22F10FEF7FCFB08
:102AA000019B1B7B23B909494FF49870FEF7F4FB97
:102AB000686801A9FFF7A8FD044618B90146284631
:102AC000FFF716FF204603B030BD00BFC915010057
:102AD0002DE9F04186B00F46DDF8308016461D46E0
:102AE000044620B9194940F24F10FEF7D5FB26B92C
:102AF00016494FF4A870FEF7CFFB25B9134940F2F1
:102B00005110FEF7C9FB0023ADF8003001238DF80A
:102B1000003001A90E4B01932046CDF808D0039652
:102B20008DF810500597FFF7A3FF30B106B0BDE850
:102B3000F081B8F1000F00D0C0479DF80030002BA5
:102B4000F7D19DF80100C0B2F0E700BFC915010040
:102B5000F127000000F1804000F5C040002382B062
:102B6000036003680193019B02B07047C208012310
:102B700000F007008340885C03438B5470470000DB
:102B800010B50368292B044604D9074940F2CD103B
:102B9000FEF782FB23681F2B83BF03F01F03236014
:102BA00002484FF0A04010BD66060100000300502F
:102BB00013B5019001A80C46FFF7E2FF019B00EB63
:102BC0008300D0F8003723F44033C0F80037D0F842
:102BD000003743EA0443C0F8003702B010BD0000DC
:102BE0004FF0A043D3F810350360024BD3F81035F3
:102BF00043607047000300502DE9F04F00248BB074
:102C0000CDE90244604D4FF48072012102F180430E
:102C100003F5C0431B68012B07D1D5F804330B42E1
:102C200003D090B2FFF796FF0C430432B2F5907FC9
:102C30004FEA4101EAD1544BD3F87C31012B08D142
:102C40004FF4BE70FFF786FF02A844F00044FFF780
:102C5000C7FFE3B2D3B14D4F00250126344210D057
:102C6000AB0003F1804303F5C043D3F81005D3F85C
:102C7000101557F8253023B1C1F30141C0F30520E9
:102C800098470135082D4FEA4606E7D1002C77DA40
:102C90000023CDE904334FF0FF33CDE90633DFF8ED
:102CA000ECB03B4B019300273D46019B13F9014FCC
:102CB0000193631C4ED0C4F3C2080122E3B204F0B6
:102CC0003F0604F0070402FA04F408F128020DEBB1
:102CD000020818F8102C22423CD00BEB06024FEAF7
:102CE000931A92F930205BF82290B9F1000F07D1C6
:102CF000BAF1030F2ED104A93046FFF737FF02E0E7
:102D0000BAF1030FF7D008A80896FFF739FF089A21
:102D100018F8201C02F5E072214250F82220C2F37C
:102D2000014206D0022A15D1BAF1030F0CD1514647
:102D300005E0032A0ED1BAF1030F05D10221304676
:102D4000FFF736FF0135EDB2B9F1000F02D0514661
:102D50003046C8470137042FA7D18DB108A8FFF727
:102D60003FFF029B089A9A42099B02D103998B422A
:102D700006D002920393049A059B0692079390E76C
:102D80000BB0BDE8F08F00BF00600040748F0020E2
:102D9000CD8F002010B5054C23681BB90449512084
:102DA000FEF77AFA2368BDE810401847DC8F002050
:102DB0004A16010038B50C4628B90C497720FEF7B1
:102DC0006BFA002038BD0A4B9842FAD10020FEF77A
:102DD00029FA084B1D7915B901221C601A710020CF
:102DE000FEF730FA002DECD01120EBE74A16010077
:102DF00000200040DC8F002018B906499B20FEF718
:102E00004BBA054B984201BF044B00221A601A715D
:102E1000704700BF4A16010000200040DC8F0020F0
:102E20000023435082B043580193019B02B0704786
:102E300038B51D4602230B710B684A7104467BB1FD
:102E400012F0040F14BF92218221100748BF41F0F5
:102E50002001D306236848BF21F08001C3F8001386
:102E600020684FF48271FFF7DBFF12F0800F2068BB
:102E700005BF012343514019002038BD70B5D0F87B
:102E8000103105460C4653B14FF48871FFF7C8FF67
:102E900063795A0703D523680BB101209847D5F809
:102EA00014315BB14FF48A712846FFF7B9FF63799B
:102EB0001B0703D523680BB102209847D5F81C31B6
:102EC0005BB128464FF48E71FFF7AAFF607910F0CE
:102ED000100002D1236803B19847D5F8043163B1DB
:102EE0004FF482712846FFF79BFF0123237123686B
:102EF0001BB1BDE870400320184770BD10B50368D2
:102F0000292B044604D9074940F2CD10FEF7C4F935
:102F100023681F2B83BF03F01F03236002484FF079
:102F2000A04010BD66060100000300502DE9F041ED
:102F300004460E46154622B91D4940F2AB20FEF765
:102F4000ABF92F6827B91A494FF42E70FEF7A4F990
:102F500004EB4618C8F82075AF881FBB144940F22F
:102F6000C120FEF799F9C8F82475AF68B7F1807FE2
:102F700004D30F4940F2CB20FEF78EF94FEA4618F2
:102F800004EB4616C6F82875ED68B5F1807F04D3CA
:102F900007494FF43570FEF77FF94444C4F82C55C7
:102FA000BDE8F0813B04DED5014940F2C220D8E7FC
:102FB000BF1601002DE9F04F044689B090460D463A
:102FC00019B962498020FEF767F92779604EFB0046
:102FD000019306EBC7031B79002B40F0B48046F841
:102FE000378005F1FF390DF1100805F1030A19F8D2
:102FF000012FFF2A00F0A28022F0800B1306C8F8F0
:1030000000B0CDF80CB003A840F19080FFF776FF38
:10301000039901228A40C0F8082503A8CDF80CB016
:10302000FFF76CFF039B03F5E073032240F82320B6
:10303000D14508F10408DAD12368049AC3F8602561
:10304000059AC3F86425069AC3F86825079AC3F859
:103050006C2523680122C3F80025B5F90830D4F89F
:10306000008095F805B095F806A0B5F80890002BFB
:1030700004DA38494FF42870FEF70EF9C8F80CB599
:10308000C8F804A5C8F8089523686A89C3F810250C
:1030900022680023C2F800322268C2F80033206898
:1030A0004FF48E71FFF7BCFE20684FF48871FFF774
:1030B000B7FE20684FF48A71FFF7B2FE20684FF424
:1030C0008271FFF7ADFE56F837303BB32D79276894
:1030D000072D47F3073703D91F496B20FEF7DCF8AC
:1030E000002FB6BF1D4B07F1604707F00F074FEAEF
:1030F0004515EDB2AABF07F56147DD5587F80053C6
:10310000236843F30733002B08DB0122590903F03E
:103110001F0302FA03F3124A42F82130019B1E44B6
:1031200001233371002009B0BDE8F08FFFF7E6FE00
:10313000039901228A40C0F80C256EE74FF0FF3357
:10314000C8F8003074E70820EDE700BF231701003E
:10315000E48F0020BF1601009017010014ED00E07D
:1031600000E100E02DE9F04115461E460279244BAE
:1031700003EBC208044698F804300F4623B92149EE
:103180004FF48D70FEF788F825B91E4940F21B10E8
:10319000FEF782F83B6803F06043B3F1005F04D0B0
:1031A00018494FF48E70FEF777F820683A460021F0
:1031B000FFF7BCFE3A4620680121FFF7B7FE226800
:1031C00005F0010303EB5505C2F81455F20715D4B9
:1031D00016F0020203D0002B0CBF04220822216843
:1031E000002BC1F800222046F2B2414608BF082356
:1031F000BDE8F04118BF0C23FFF71ABE1022EEE71E
:10320000E48F00202317010001490248FFF736BE72
:10321000E48F002000C0014001490248FFF72EBEA4
:10322000EC8F00200010024000F1804000F5E040EB
:10323000002382B0036003680193019B02B07047D2
:10324000F0B5544B544CD3F8043194F82E2085B08B
:10325000002B3BD04FF48270FFF7E6FF2AB394F8BF
:103260002F3013BB4B4AD2F80031002B32D04FF431
:103270008070FFF7D9FF638B94F82D00834250D9FB
:1032800021891B1A9BB289B26383CB1A616801EB57
:103290004301C2F82C16C2F830064FF48270FFF7D3
:1032A000C3FF3C4B01225A6014E0636802932389F8
:1032B000ADF80C30E36800218DF8041033BB2374A3
:1032C000236801A89847002384F82F3094F82E3003
:1032D000002BC7D12F4BD3F810315BB14FF488705E
:1032E000FFF7A2FF0023237402238DF8043001A806
:1032F00023689847274BD3F814310BB34FF48A70E7
:10330000FFF792FF0023237405B0F0BD208B60838C
:1033100063602081E160002AD2D11E4B01221A6035
:10332000CEE7BAD1E168012084F82F0031B1002046
:103330006083C2F82C16C2F83036AEE76183ACE782
:1033400066694FF000470125002EDDD0B6FA86F2FF
:1033500027FA02F34632920026EA030602F180437E
:1033600003F5E0431B68002BEED01046A2F58C72EB
:10337000FFF75AFFD30882F00402C2F380028DF8EF
:1033800008308DF8045023688DF8092001A898476B
:10339000DAE700BF00700040F48F002010B503682A
:1033A000292B044604D9074940F2CD10FDF774FFDC
:1033B00023681F2B83BF03F01F03236002484FF0D5
:1033C000A04010BD660601000003005007B5019043
:1033D00001A8FFF7E3FF019A01239340C0F80C35E1
:1033E00003B05DF804FB07B5019001A8FFF7D6FF15
:1033F000019A01239340C0F8083503B05DF804FB3F
:1034000013B5144BD3F8182112B30022C3F81821B6
:10341000D3F81831104C0193019B236823B90F494D
:103420004FF42770FDF738FFE07FFF2803D0A37F1C
:103430005BB1FFF7CBFF002363772372D4E9003140
:10344000074802B0BDE810401847FFF7CCFFF2E78D
:1034500002B010BD0030024024900020001801008E
:103460002C9000202DE9F743002406460F4600F576
:10347000A0754FF48038A1462B688BB1D6F8043381
:1034800008FA04F21A420BD0C5F800902B68019399
:10349000019BA30003F5A07398B2D7E900319847C8
:1034A0000134042C05F10405E6D103B0BDE8F08336
:1034B00001490248FFF7D6BF489000200080004035
:1034C00001490248FFF7CEBF549000200090004011
:1034D0000023435082B043580193019B02B07047D0
:1034E0000A7B0346032A2CD8DFE802F024281C02BA
:1034F0008868154A904204D1D3F84C250869904257
:1035000009D1886840F2022290421AD1D3F84C25A2
:103510004969914215D000200622C3F80005C3F87E
:1035200000257047D3F84C2508699042F3D1D3F8B1
:103530003C25EDE7D3F84C250969EAE7D3F83C25AB
:10354000FAE70120704700BF0002040010B50368CD
:10355000292B044604D9074940F2CD10FDF79CFE03
:1035600023681F2B83BF03F01F03236002484FF023
:10357000A04010BD6606010000030050F0B50B68C6
:1035800087B005460C4623B9484940F28620FDF72E
:1035900083FED5F82431B3B14FF492712846FFF77A
:1035A00097FFD5F8043173B9A368C5F8083302232F
:1035B000A360A368C5F8043301232B626B6184F810
:1035C0002E3007B0F0BDD5F804316BB34FF48271E3
:1035D000284604F10C07FFF77BFF0FCF01AE0FC6A3
:1035E0003B68336094F82E303BB921462846FFF7FC
:1035F00077FF80F0010084F82E004FF4B071284668
:10360000FFF766FF4FF4AE71FFF762FF94F83030BA
:1036100013B194F82E30CBB10023C5F80032A3606B
:10362000234BC5F8083311E04FF4A4712846FFF787
:103630004FFF237B1BBB04F10C070FCF01AE0FC65E
:103640003B68336094F83030002BE6D0D5F8C434B2
:10365000C5F8C4349A0724D413F0050F23D194F885
:103660002E309B00DBB28DF8003094F830300BB96F
:1036700084F82F30D4E9003168469847A1E74FF429
:103680000073C5F8003240F20223A36003F1CE7349
:10369000C5F80833A368C5F804330123AB602B6277
:1036A0008FE70123DFE70223DDE700BF7918010080
:1036B00002029C0101490248FFF760BF60900020B0
:1036C0000030004002494FF04020FFF757BF00BFD5
:1036D000949000202DE9F04F85B006469346019363
:1036E0000C4619B94349E220FDF7D6FDD4E9002381
:1036F0009A4203D13F49E320FDF7CEFD96F80480BE
:103700003D4F342303FB08FA07EB0A0595F82D20FB
:10371000002A69D1394A306852F82810FFF74AFB6D
:103720008146002863D1019B47F80AB06B60A8600E
:1037300085F8300085F82F00627B85F832202268FA
:10374000039203A8FFF702FF039A02F5E07240F22A
:103750000C6540F8225003A862680392FFF7F6FE5A
:10376000039A57F80A3002F5E07240F82250D4E983
:1037700000103268C2F80815C2F80C05A168C2F83A
:1037800024153BB3247B3568072C45F3073503D953
:103790001B496B20FDF780FD002DB6BF194B05F1CD
:1037A000604505F00F054FEA4414E4B2AABF05F5E1
:1037B00061455C5585F80043336843F30733002BBC
:1037C00008DB0122590903F01F0302FA03F30E4A32
:1037D00042F82130342303FB0877012387F82D308A
:1037E000484605B0BDE8F08F4FF00809F8E74FF004
:1037F0001109F5E77918010060900020482C0100BC
:103800009017010014ED00E000E100E070B50D4CF0
:103810000679342303FB0643054693F82D30012B2C
:1038200004D009494FF4A570FDF736FD2B68062238
:10383000C3F80025342303FB0644022384F82D300B
:1038400070BD00BF609000207918010070B5114C68
:103850000679342303FB0643054693F82D3023B93C
:103860000D4940F25510FDF717FD34222B6802FB7D
:1038700006440021094AA160C3F80823D3F80022B6
:1038800022F4BC52C3F80022C3F80015012384F8C7
:103890002D3070BD609000207918010002029C015B
:1038A000F7B5294D0679342303FB0653044693F8F4
:1038B0002D3023B9254940F23110FDF7EDFC3423BA
:1038C0007343EB5893B1236843F30733002B0DDBAD
:1038D0005A09012103F01F03994002F120031C4AF9
:1038E00042F82310BFF34F8FBFF36F8F2046FFF7CF
:1038F000ADFF2068FFF780FA342303FB065393F8EB
:103900003230C3B9236801A8D3F808350193FFF713
:103910001DFE019B03F5E073022740F82370236826
:1039200001A8D3F80C350193FFF710FE019B03F5B6
:10393000E07340F82370342303FB0655002385F819
:103940002D3003B0F0BD00BF609000207918010059
:1039500000E100E02DE9F8430379012B04460D4610
:10396000174607D84B68B3F5803F03D28B68B3F591
:10397000803F04D3BB4940F22F20FDF78DFC94F823
:103980000490DFF8EC82342606FB09F658F806307E
:10399000A3B92B78022B08D02B78032B0ED1B14979
:1039A0004FF40E70FDF778FC08E0AE4940F2372086
:1039B000FDF772FC58F80630002BEDD0342606FBDC
:1039C00009860023246886F82E30EB6803F06043F4
:1039D000B3F1005F03D010263046BDE8F883A24B58
:1039E000C4F8083396F82F3023B1B368C4F8043311
:1039F0001126F1E717F0140F0CBF0123002386F8FE
:103A00002F30AE46BEE80F0006F10C0CACE80F00FC
:103A1000DEF80030CCF80030C7F3001386F8303001
:103A20006B78C4F888354FF482712046FFF750FD5B
:103A30004FF49271FFF74CFD17F0010318BF0123FB
:103A4000C4F8503517F0020318BF0123C4F84035FD
:103A50002B78032B00F2C880DFE803F08AB06B02FA
:103A6000FE0604D57F4940F2AB10FDF715FC380780
:103A700004D57C494FF4D670FDF70EFC790704D5C8
:103A8000784940F2AD10FDF707FC2B6903F0604365
:103A9000B3F1005F9FD14FF48073C4F800326B68BC
:103AA000EA68C4F844252046C4F848354FF4A871A4
:103AB000FFF70EFD4FF4B071FFF70AFD4FF4A4714C
:103AC000FFF706FD01232362A360D4F85031002BD9
:103AD000FBD04FF4A8712046FFF7FAFCAB682A69C7
:103AE000C4F84425C4F84835342303FB09835F4AEE
:103AF0009A604FF48271082300263A0704D42A788A
:103B0000032A1CBF0122E250342303FB09F308EB14
:103B1000030258F80330002B78D07B0744BF4FF4E2
:103B200000739360342303FB09839B68C4F8043358
:103B300052E76B68EA68C4F84425C4F848352B6935
:103B400003F06042B2F1005F7FF445AFAA68C4F8A9
:103B500034354FF48453C4F83825C4F80032342384
:103B600003FB098340F202229A6001232362C0E72B
:103B70006B68EA68C4F8442517F0200FC4F848358C
:103B80004FF034030ED04FF4807203FB0983C4F866
:103B900000224FF4A471354A9A60FFF799FC012383
:103BA0002362A8E74FF4007203FB0983C4F80022E4
:103BB00040F202229A604FF48271F0E76B68EA6883
:103BC000C4F83425C4F838354FF48053C4F80032B3
:103BD000342303FB098340F202229A60012323620B
:103BE0004FF48271002387E74FF482710823072680
:103BF00083E7D4F8243153B14FF492712046FFF794
:103C000067FC012323624FF48271636121440B68D6
:103C1000002BEED03421D4F8C434C4F8C43401FBF2
:103C20000982002082F82F0093B113F0010F14BF16
:103C30004FF40246032648F2012213F0020F18BF88
:103C4000164613F0040F48F2022318BF1E46C3E6BF
:103C500009FB01812046FFF743FC002808BF03262B
:103C6000BAE600BF7918010002029C0100020400BC
:103C7000609000200023435082B043580193019B81
:103C800002B070470A4610B54FF48E71FFF7F2FF8D
:103C9000136A9168C95C136A01331362C0F81C157A
:103CA00010BD08B502464FF492710068FFF7E2FFBD
:103CB00010684FF48471FFF7DDFF136801221A606A
:103CC00008BD000010B50368292B044604D9074934
:103CD00040F2CD10FDF7E0FA23681F2B83BF03F0FD
:103CE0001F03236002484FF0A04010BD660601008C
:103CF0000003005007B5019001A8FFF7E3FF019B07
:103D000003F5E073022240F8232003B05DF804FBC2
:103D100010B58B690A464FF4847123B9FFF7AAFFE7
:103D2000D0F8183510BDFFF7A5FF536AD168D0F859
:103D30001805C854536A01335362F3E71FB50123D2
:103D40008DF80030044BCDE90110D3E9001268462C
:103D5000904705B05DF804FBC890002030B54E4D8B
:103D6000D5F804339A0585B051D5D5F82431002B08
:103D70004DD04FF492712846FFF77CFF4FF401734A
:103D8000C5F80833454B93F829200AB901226A6027
:103D9000414902228DF80020D1F88024C1F8802406
:103DA00003929A690292DA6801920022C3E906221C
:103DB0006846D3E9001290473748D0F81C315BB110
:103DC000364A5169136A99424ED992F82830002B2D
:103DD0004AD11146FFF756FF2F48D0F84431002B47
:103DE00057D04FF4A271FFF745FF2C4B93F82920D1
:103DF0000AB1012202609A69002A4AD0586AD96839
:103E000000229A6105B0BDE83040FFF797BFD5F8B2
:103E100004335B07D0D5D5F80831002BCCD01F4C2C
:103E20001D482146FFF774FF636AA2699A42C3D115
:103E3000E36953B1A3612369E168E3600023606A29
:103E4000E3616362FFF77AFFB6E794F829300BB9B4
:103E500001236B60104B4FF40172C3F80823002359
:103E6000606AE168A361EDE70B484FF48E71FFF7DC
:103E700001FF5369002BAFD0516902910023916873
:103E80008DF80030019153616846D2E900139847DC
:103E9000A2E705B030BD00BF00200040C890002060
:103EA0002DE9F743054691460C4619B96B49AA20FE
:103EB000FDF7F2F995F80480694E2C2303FB0863A3
:103EC00093F82A30002B40F0C48066492868FEF73A
:103ED00071FF0746002840F0BE8023685A1C13D0AB
:103EE00001A80193FFF7EEFE019A01239340C0F869
:103EF00008352368019301A8FFF7E4FE019B03F551
:103F0000E073032240F823206368581C09D001A8FD
:103F10000193FFF7D7FE019B03F5E073002240F801
:103F200023202B68A269C3F82425217D637D2A689C
:103F30000B43C2F86C35D4E900122B68C3F8142582
:103F4000C3F80C15237D012B2AD1A368591C09D075
:103F500001A80193FFF7B6FE019B03F5E073002271
:103F600040F82320E3685A1C13D001A80193FFF7FF
:103F7000A9FE019A01239340C0F80835E368019334
:103F800001A8FFF79FFE019B03F5E073032240F8B1
:103F90002320D4E902122B68C3F80825C3F81015B2
:103FA0002C2303FB08F3F218C2F804902269F250A4
:103FB000B9F1000F39D0286894F81C902A4A4FF4C0
:103FC0008E71FFF757FE28684FF4A271FFF752FE7B
:103FD0002B68C3F804232C68B9F1070F44F30734A6
:103FE00003D922496B20FDF757F9002CB6BF204BAF
:103FF00004F1604404F00F044FEA49195FFA89F9AB
:10400000AABF04F5614403F8049084F800932B6878
:1040100043F30733002B08DB0122590903F01F0388
:1040200002FA03F3134A42F821302B680422C3F842
:1040300000252C2303FB08660023C6E9063386F817
:1040400029307361012386F82A30384603B0BDE871
:10405000F0830827F9E71127F7E700BFEC18010004
:10406000C89000205D3D0000800002009017010014
:1040700014ED00E000E100E02DE9F8430368067963
:104080002A4D0022C3F800252C2303FB06530446C7
:104090005B68B3B10368264AC3F80823036843F397
:1040A0000733002B0DDB5A09012103F01F03994050
:1040B00002F120031F4A42F82310BFF34F8FBFF3D2
:1040C0006F8F23684FF0FF32D3F80C05D3F81495A7
:1040D000D3F80875D3F81085C3F81425C3F80C2558
:1040E00023689042C3F80825C3F8102501D0FFF7D4
:1040F00001FEB9F1FF3F02D04846FFF7FBFDB8F1E2
:10410000FF3F02D04046FFF7F5FD7B1C02D038464A
:10411000FFF7F0FD2068FEF76FFE2C2303FB06552A
:10412000002385F82A306B60BDE8F883C890002032
:104130008402020000E100E00279044B2C2101FB23
:1041400002335869003818BF01207047C89000201A
:104150002DE9F84FDFF8D48007792C2303FB078380
:10416000064693F82A30012B8946924604D02E4900
:104170004FF48C70FDF790F8B9F1000F04D12A4983
:1041800040F21910FDF788F8BAF1000F04D1264962
:104190004FF48D70FDF780F83046FFF7CDFF0446F1
:1041A00000283CD12C2507FB058B4FF48E71CBF8F2
:1041B00014A0CBF80890CBF820008BF828003068CA
:1041C000FFF758FD336801229A6030685946FFF7BF
:1041D00059FDDBF804305D461BBB3068DBF814404A
:1041E0002B6A9C4211D83368D3F81C21002AFBD0DB
:1041F0000122DA6000202C2303FB078300225A618E
:10420000BDE8F88F95F828303BB9D0F81C31002B69
:10421000F8D05946FFF736FDE2E70F20EBE7112013
:10422000EEE72046ECE700BFEC180100C890002044
:104230002DE9F843464C06792C2303FB064305463B
:1042400093F82A30012B8846174604D041494FF491
:10425000B670FDF721F8B8F1000F04D13D4940F2E6
:104260006D10FDF719F827B93A494FF4B770FDF70B
:1042700013F82C2303FB0643596821B12B684FF434
:104280000172C3F808232C2303FB06439A6952B139
:10429000DA69002A3FD021B12B684FF40172C3F8CC
:1042A0000423112035E09F61C3F80C805A62174641
:1042B0002C2303FB0643DF6193F829301BB912B9A5
:1042C0002846FFF7EEFC2C2707FB06482868D8F89D
:1042D0000430A3BB4FF4A2714746FFF7CBFC28681C
:1042E000D0F82421D0F80811D0F84431194316D160
:1042F000002AF4D000232C2101FB06440021A161F7
:1043000012BB1BBB94F829102B680122A9B11A60BB
:104310000020BDE8F883C3F810800122C8E753EA03
:104320000209E8D13946FFF7F3FCD8F82430D8F871
:1043300018209A42D3D84A46DCE75A60E8E74FF49F
:104340000173C0F80433E3E70320E2E70F20E0E75E
:10435000C8900020EC1801000023435082B043585D
:104360000193019B02B070471FB50123CDE90121E4
:104370008DF80030D0E900136846984705B05DF825
:1043800004FB000010B50368292B044604D9074933
:1043900040F2CD10FCF780FF23681F2B83BF03F092
:1043A0001F03236002484FF0A04010BD66060100C5
:1043B0000003005007B5019001A8FFF7E3FF019B40
:1043C00003F5E073022240F8232003B05DF804FBFC
:1043D0007FB5D0F8246105460C46002E5CD04FF422
:1043E0009271FFF7B9FF02238DF80030D0F88034C6
:1043F000C0F880340393D0F83C350293E36801930E
:104400000023C4E906336846D4E900139847D5F879
:1044100044317BB14FF4A2712846FFF79DFFA36999
:1044200043B10023C4E90633E268D5F83C152046C1
:10443000FFF79AFFD5F82031ABB14FF490712846C1
:10444000FFF78AFF0123EB60636963B1D5F84C2560
:1044500002920023A2688DF8003063610192D4E9D2
:10446000001368469847D5F858319BB14FF4AC71AA
:104470002846FFF771FF636963B1D5F84C250292B6
:104480000023A2688DF8003063610192D4E9001323
:104490006846984704B070BDD0F81031002BB6D0F4
:1044A0004FF48871FFF758FFD0F83C35A169994265
:1044B000ADD1E369E26873B1D0F8003223F0200394
:1044C000C0F80032E369A3612369E360E661204636
:1044D000FFF74AFF9BE7A361F9E7000001490248A3
:1044E000FFF776BFF4900020002000400149024809
:1044F000FFF76EBF18910020008002402DE9F743BE
:10450000054691460C4619B97249CF20FCF7C4FE06
:1045100095F80480704E242303FB086393F8203041
:10452000002B40F0D3806D4B286853F82810FEF71D
:1045300041FC0746002840F0CB8023685A1C13D06A
:1045400001A80193FFF71EFF019A01239340C0F8D1
:1045500008352368019301A8FFF714FF019B03F5B9
:10456000E073032240F823206368581C09D001A897
:104570000193FFF707FF019B03F5E073002240F86A
:1045800023202B68A269C3F82425217D637D2A6836
:104590000B43C2F86C35D4E900122B68C3F80C1534
:1045A000C3F81425237D012B2AD1A368591C09D0F7
:1045B00001A80193FFF7E6FE019B03F5E0730022DB
:1045C00040F82320E3685A1C13D001A80193FFF799
:1045D000D9FE019A01239340C0F80835E36801939E
:1045E00001A8FFF7CFFE019B03F5E073032240F81B
:1045F0002320D4E902212B68C3F80815C3F810253D
:10460000242303FB08F3F218C2F804902269F25045
:10461000B9F1000F48D0286894F81C90304A4FF444
:104620008871FFF799FE28684FF49071FFF794FEA8
:1046300028684FF49271FFF78FFE28684FF4A2713B
:10464000FFF78AFE28684FF4AC71FFF785FE2B68F0
:10465000C3F804232C68B9F1070F44F3073403D9D6
:1046600020496B20FCF718FE002CB6BF1E4B04F14E
:10467000604404F00F044FEA49195FFA89F9AABFB0
:1046800004F5614403F8049084F800932B6843F325
:104690000733002B08DB0122590903F01F0302FA3C
:1046A00003F3124A42F821302B680822C3F8002590
:1046B000242303FB08660023C6E906337361012344
:1046C00086F82030384603B0BDE8F0830827F9E7C4
:1046D0001127F7E75F190100F4900020502C01002A
:1046E000100342009017010014ED00E000E100E02B
:1046F0002DE9F843364D06790268242303FB06535F
:1047000004465B68ABB1334BC2F80833036843F32C
:104710000733002B0DDB5A09012103F01F039940D9
:1047200002F120032C4A42F82310BFF34F8FBFF34E
:104730006F8F2268D2F8003223F02003C2F80032D3
:10474000236801225A6020684FF4AC71FFF704FE21
:104750002368DA602368D3F85821002AFBD00022AE
:10476000C3F8002523684FF0FF32D3F80C05D3F8C7
:104770001495D3F80875D3F81085C3F80C25C3F841
:10478000142523689042C3F80825C3F8102501D0EA
:10479000FFF710FEB9F1FF3F02D04846FFF70AFECF
:1047A000B8F1FF3F02D04046FFF704FE7B1C02D069
:1047B0003846FFF7FFFD2068FEF71EFB242303FBAE
:1047C0000655002385F820306B60BDE8F88300BFF4
:1047D000F49000201003420000E100E00279044B55
:1047E000242101FB02335869003818BF01207047AB
:1047F000F49000202DE9F047394F90F804A02423CD
:1048000003FB0A73054693F82030012B8846914636
:1048100004D0344940F22D10FCF73EFDB8F1000FF2
:1048200004D130494FF49770FCF736FDB9F1000F11
:1048300004D12C4940F22F10FCF72EFD2B79012BCF
:1048400002D8B9F5803F04D326494FF49870FCF79D
:1048500023FD08F06043B3F1005F3AD12846FFF72B
:10486000BDFF0446002836D1242606FB0A764FF405
:104870009071C6F81490C6F808802868FFF76CFDA0
:104880004FF4AC712868FFF767FD2B687269B16857
:10489000C3F84415C3F848252B6801229A60736851
:1048A000DBB92B68D3F82021D3F858010243F9D0A3
:1048B00068B90122DA602A68D2F85831002BFBD09F
:1048C000242303FB0A7700237B61BDE8F0870F20D8
:1048D000F6E71020F9E71120F7E72046F5E700BFDB
:1048E000F49000205F1901002DE9F8434B4D90F83A
:1048F0000480242303FB0853044693F82030012B43
:104900000F46164604D046494FF4C070FCF7C4FC6D
:1049100027B9434940F28110FCF7BEFC26B9404953
:104920004FF4C170FCF7B8FC2379012B02D8B6F51F
:10493000803F04D33A4940F28310FCF7ADFC07F006
:104940006043B3F1005F67D1242303FB0853596828
:1049500021B123684FF40472C3F80823242303FB16
:1049600008539A695AB1DA69002A43D021B1236801
:104970004FF40472C3F804231120BDE8F8839E614C
:10498000DF609146242303FB08584FF48871C8F870
:104990001C202068FFF7E0FC20684FF4A271FFF7AD
:1049A000DBFC2368C3F83475C3F838652368B9F1B4
:1049B000000F24D101221A6026792368242202FBE9
:1049C0000652526812BBD3F81011D3F84421D3F821
:1049D0002401114302D10028F5D00A46242303FB09
:1049E00006550023984218BF03209A42AB6118BFB6
:1049F0000F20C2E71F6132464FF00109C2E7D3F82A
:104A0000002242F02002C3F80022D5E74FF40472DE
:104A1000C3F804230020B0E71020AEE7F490002094
:104A20005F19010007B501A801F0E6FD20B901906A
:104A3000019803B05DF804FB019B002BF8D1012322
:104A40000193F5E708B590F8803033B1074B084A79
:104A50004FF4F871074803F091FC02F05AFF20B9B7
:104A6000054B034A4FF4FB71F4E708BDD41901006C
:104A7000582C0100EC190100C01B01007047FFF722
:104A8000E1BF70B504460D461646FFF7CBFF324630
:104A9000034629462046FFF7F2FF70BD7047704776
:104AA000084609B1FFF7CEBF7047F7B50546164671
:104AB0001F460C4651B1FFF7B5FF00903B4632460A
:104AC00021462846FFF7ECFF03B0F0BD0846F4E7A7
:104AD0007047704770477047704700F1804000F59D
:104AE0008050002382B0036003680193019B02B0F1
:104AF00070470000034B186808B190F8800000F080
:104B0000010070474C91002008B5FFF7F3FF08B192
:104B1000014B186808BD00BF4C91002000BF00BFCA
:104B200000BF00BF00BF00BF7047000008B5084BC2
:104B3000D3F85035DBB243B9064BFFF7EFFFD3F89C
:104B40003C01003818BF012008BD0120FCE700BF70
:104B50000010004000700140134B144AC3F8482570
:104B600000F1804000F58050C3F84C0521B102F5FA
:104B7000FD424832C3F82C290D4AC3F8402502F5FE
:104B8000AF3202F59672C3F8442529B1D3F8002854
:104B900042F08002C3F80028034B8022C3F80425AA
:104BA0004022C3F80425704700F001403C710140E9
:104BB00010110040074B01221A61D3F8002222F4A1
:104BC0008072C3F8002203F5B0334FF48072C3F84B
:104BD0000825704700900040034B1B781BB1034B26
:104BE0001022C3F8082370473C91002000100040B9
:104BF00010B5044602F0B2FCB0F5C07F0B4A12D3E8
:104C0000C009811EB1EBD41F4FEAD41396BFA4EBA9
:104C1000C1140024C31E1460054AC3F31403C2F870
:104C20006436012010BD14600020FBE74091002095
:104C30000010004013B501A801F05EFC9DF80500CE
:104C40009DF8044001F094FC9DF807309DF8062083
:104C50001B0643EA02432343034A43EA0023C2F804
:104C60006C3602B010BD00BF0010004008B501F066
:104C7000A7FCBDE80840002002F084BC08B5054B45
:104C8000D3F8480500F07F0001F05DFC404240B2DF
:104C900008BD00BF0010004038B50446FFF7EEFF26
:104CA00023782344054613F8010C01F053FC02B2AB
:104CB0009200FF2A28BFFF2229462046D2B2BDE833
:104CC000384002F009BE000038B5074B1D680446A5
:104CD0000146284601F04AFA28B121462846BDE897
:104CE000384002F0FFBD38BD4491002010B50446A5
:104CF00001F084FB204602F0F1FDBDE8104001F018
:104D0000ADBA10B5044601F079FB2046FFF7C4FFA9
:104D1000BDE8104001F0A2BA144B4022C3F80825A8
:104D20008022C3F808254FF48072C3F80825104A82
:104D300001211161D3F8000820F08000C3F80008B9
:104D40000020C3F82C091161D2F8003223F48073DB
:104D5000C2F80032074B1B783BB1074B4FF450525F
:104D6000C3F80823C3F800021961704700F001403E
:104D7000009000403C91002000100040134908B50D
:104D80004023C1F808358023C1F80835FFF712FF2A
:104D9000D1F8003823F08003C1F8003800220C4B12
:104DA000C1F82C291B787BB10A4B0A21C3F80813E0
:104DB0000121C3F800221961C3F84426BDE8084068
:104DC0004FF4AE70FFF789BE08BD00BF00F0014090
:104DD0003C91002000100040104908B54023C1F864
:104DE00008358023C1F80835FFF7E4FED1F8003814
:104DF00023F08003C1F800380022094BC1F82C29A8
:104E00001B784BB1074B4FF40041C3F80813C3F8AC
:104E1000002201229A621A6108BD00BF00F0014021
:104E20003C91002000100040104908B54023C1F813
:104E300008358023C1F80835FFF7BCFED1F80038EB
:104E400023F08003C1F800380022094BC1F82C2957
:104E50001B784BB1074B4FF4C021C3F80813C3F8BC
:104E6000002201221A631A6108BD00BF00F0014050
:104E70003C9100200010004008B50E4B0121196143
:104E8000D3F8002222F44072C3F800220A4A1278B2
:104E9000043A8A4206D9094B094A0A4840F29E312F
:104EA00003F06CFA196120B1074B4FF48072C3F81C
:104EB000082508BD009000403E910020E619010041
:104EC000CC2C0100751A010000F0014010B5104C07
:104ED0004023C4F808358023C4F808350120FFF7C3
:104EE000CBFFD4F8003823F08003C4F80038002248
:104EF000084BC4F82C291B7843B1074B0749C3F86A
:104F00000813C3F8002201221A631A6110BD00BF02
:104F100000F001403C910020001000400200040815
:104F2000F8B504460F46164601F00AF9054680B169
:104F30004C4B1B78092B00F28C80DFE803F0050C4A
:104F40000F2054545E636C75022F02D0042002F0CF
:104F500019FB2846F8BDFFF73FFEFAE7424B1B78E6
:104F60005B0709D5002C7BD0FFF7D6FE002EF0D0D2
:104F7000062002F0B3FCECE7FFF7CEFEE9E7002CD9
:104F80006ED03A4B4022C3F808258022C3F808258A
:104F90004FF48072C3F80825354A01211161D3F816
:104FA000000820F08000C3F800080020C3F82C0996
:104FB0001161D2F8003223F48073C2F800322D4B15
:104FC0001B7833B12C4B2D4AC3F80823C3F80002D9
:104FD0001961002EBDD02A4B1868002380F880305C
:104FE000FFF75AFEB5E7002C3AD0FFF76FFF002E0F
:104FF000AFD00620FFF768FEABE7002C30D0FFF7FC
:10500000BDFEF4E764B3FFF7E7FE002EA1D0012058
:1050100002F06CFC9DE71CB3FFF706FF002E98D052
:10502000012002F067FC94E7104B11494022C3F8BD
:1050300008258022C3F8082501220A614FF48071F7
:10504000C3F808150B4B1B78002B82D00A4B1A6152
:105050007FE70C4B0C4A0D4840F2BC5103F08EF92F
:10506000254676E73E9100203D91002000F001406A
:10507000009000403C910020001000400200000819
:105080004C910020E6190100DD2C0100751A010089
:10509000054B002282B0C3F83C21D3F83C31019388
:1050A000019B02B0704700BF00700140F8B52B4B68
:1050B0001B7807460D46164613B900242046F8BD56
:1050C000047801F07CFD630100283BD103F1EE0080
:1050D0000DB1A83080B202F017FA04460028ECD0D7
:1050E00001F0D0F91E4B1F4AC3F80C05002D08BF74
:1050F0004FF4A012C3F804754FF4B670C3F8002241
:10510000FFF7EBFC0DB34FF4A470FFF7E6FC164A73
:105110001649134F4FF48270FFF7DFFC0B7842F013
:10512000020223F00803AD000B7005F0FC00C7F885
:1051300004230121FFF7ACFFFFF70EFD46B9012361
:105140003B61BBE703F24E40C2E74FF00062DFE78E
:10515000FFF7ECFC0028F2D0B0E700BF3C91002044
:105160000010004000381400000004083D910020A9
:1051700038B5144B1B780546EBB1AE2002F0C4F9EC
:10518000C8B1114C4FF42053C4F800324FF4A4704E
:10519000FFF7A3FC4FF4A270FFF79FFC4FF4C0236E
:1051A000C4F8043301210420FFF772FFFFF7D4FC99
:1051B00015B90123236138BDFFF7B8FC0028F8D0EA
:1051C000F9E700BF3C91002000100040144938B5B9
:1051D0004023C1F8083518B1124B5222C3F80022FF
:1051E000114B124A0F4C01251D618023C1F8043573
:1051F00013784FF4947023F007031370FFF76DFCDE
:105200001823C4F86035FFF743FF40230848C1F86E
:10521000043501F0DDF9FFF789FC00B9256138BDDF
:1052200000F0014000100040009000403D9100203F
:105230003011004038B5044601F024F9084D002132
:10524000C5F80C050846FFF723FFFFF785FC14B9E6
:1052500001232B6138BDFFF769FC0028F8D0F9E77E
:105260000010004038B5114B1B780546C3B1104BF8
:105270001868FFF7BDFC98B10E4C4FF40042C4F81B
:1052800000224FF49E70FFF728FC0121C4F804238C
:105290000420FFF7FDFEFFF75FFC15B90123236132
:1052A00038BDFFF743FC0028F8D0F9E73C91002017
:1052B00040910020001000400B3808B5C3B20F2BFE
:1052C00006D9094B094A0A4840F2052103F056F86D
:1052D00000EB800000F66510064B80B2A0F516606A
:1052E000C3F8080508BD00BF031B01000A2D01001B
:1052F000751A010000100040084B0222C3F88020FC
:10530000BFF34F8FBFF36F8FC3F88021002283F864
:105310000123BFF34F8FBFF36F8F704700E100E0B1
:1053200008B5064B1B7833B102F018F93B2894BF3F
:105330000020012008BD0120FCE700BF3C910020B7
:1053400008B501F059F820B1FFF7EAFF10B900F0F5
:10535000F3FF002008BD000038B5464B1B7805461A
:10536000002B7FD0444A137823F01703137001F009
:1053700089F8424AC2F80C05FFF7BCFB0446002836
:1053800071D0FFF7C1FB3E4BC2F80405C2F80032F2
:105390001823C2F860354FF49A70FFF79EFB4FF464
:1053A0009470FFF79AFB4FF49870FFF796FB35491E
:1053B00035484FF45053C2F80433D1F8003243F467
:1053C0008073C1F800320123C1F840358223C1F84F
:1053D0004435FFF75DFE2D4B2D4AC3F84825C3F831
:1053E0004C0500F5F030C3F82C09C3F85025C3F87C
:1053F0005415D3F8002842F08002C3F80028254A4B
:10540000C3F8402502F5AF3202F59672C3F8442581
:105410008022C3F804254FF48072C3F80425A0F558
:10542000EF304022C3F80425D43801F0D1F8E5B9B3
:10543000124B01221A61ACB901F0A2F8164B1860A8
:10544000FFF758FB70B1FFF75FFB0C4B0C4AC3F83A
:105450000405C3F80022D3F85025D2B2022A04BFB3
:1054600001229A6038BD522390E7FFF75FFB0028C6
:10547000DED0E0E73C9100203D910020001000408C
:1054800052000800009000400410004000F001406D
:105490003C710140101100404C9100202DE9FF416A
:1054A0000446002800F0AF8002F058F83B2840F294
:1054B000FB807F4E337803F0FF07002B40F0F48031
:1054C0007C4C01250F233946C4F8FC7F0D22C4F81B
:1054D000FC5F6846C4F8103502F0FEFE08238DF824
:1054E00000307F238DF808309DF807309DF80120AB
:1054F0008DF806505B0743EA02239DF8022043EA39
:1055000002439DF8032043EA02539DF8042043EA36
:10551000825343F0C0634FF0020843F008038DF854
:105520000580C4F814359DF809309DF80C201B0245
:1055300043EA42639DF80A2043EA02439DF80B20A8
:1055400043EA026343F07F03C4F8183540F20223B4
:10555000C4F85056C4F83435574BC4F83835FFF703
:1055600069FB564BC4F84476C4F8483600F084FF13
:10557000FFF7A2FE524B83F80173C3F88081D4F881
:10558000003233B14F4B504A40F22C714F4802F079
:10559000F5FE357001F006F84D4B1B78092B2DD820
:1055A000DFE803F0822C052C0B142C171D230020A0
:1055B00004B0BDE8F041FFF7CFBE00220121454B0A
:1055C000186804B0BDE8F041FFF770BD0022114635
:1055D000F5E7002004B0BDE8F041FFF743BE00202E
:1055E00004B0BDE8F041FFF7C3BD3378002B5BD0BA
:1055F000002004B0BDE8F041FFF71CBE364B324A34
:1056000040F25371C2E72A4B1A783AB3187001F08E
:105610007DFF38B1FFF770FE264B0122C3F8FC4F27
:10562000C3F8FC2F00F0CCFF002202210120FFF77D
:1056300077FC20B9294B2A4A40F27171A6E7244B26
:105640001A78092A2BD8DFE802F009050E16202067
:105650002009090900221A70FFF708FB04B0BDE811
:10566000F04101F04FBF1F4B1B785B07F6D50520BB
:10567000FFF73CFBF2E702221A701B4B186800236D
:1056800080F88030FFF73DFBE8E702221A7000F057
:10569000B5FE0420FFF718FB00F0E0FDDEE70E4B3F
:1056A0000F4A4FF4F36171E704B0BDE8F08100BF29
:1056B0003C9100200010004021100100000700FF75
:1056C00000E100E0221B0100162D0100751A010007
:1056D0003E91002044910020E6190100C01B01000A
:1056E000F92C01003D9100204C9100202DE9F84358
:1056F000074688461546994600F07EFE0446F8B1F6
:10570000114E3378022B06D03378032B03D0FFF7EA
:1057100007FE40B900240DB12046A84700F00CFE5A
:105720002046BDE8F8834A4641463846FFF7F8FB75
:105730000028EFD0022301203370FFF70DFEEAE7C7
:10574000002DEDD0A847EBE73E9100202DE9F04772
:10575000099E9DF8209080468A4617461D46FFF711
:10576000EFFD044630B3012251464046FFF7D8FB17
:10577000044640B900240EB12046B04700F0DCFDDD
:105780002046BDE8F087DFF83880022388F8003033
:105790000A4B0122294638461F60FFF787FCB9F102
:1057A000000F01D00028E5D0C5F10505EDB288F85D
:1057B0000050E0E7002EE3D0B047E1E7449100203D
:1057C0003E91002010B50446FFF7BAFD012184F890
:1057D000801058B1204B1B7833B1204B1B78022B23
:1057E000DAB205D0062A1FD000F0A6FD012010BDB8
:1057F0001B4AD2F85035DBB2022BF5D1D2F8003279
:10580000522B06D0174B184A40F62E41174802F08B
:10581000B5FD174B1C60FFF777F9164BC2F804056E
:10582000C2F800329160DFE70D4AD2F85035DBB2A2
:10583000022BD9D1D2F80032122B04D00E4B0A4AD7
:1058400040F63D41E2E70A4B1C60FFF75DF90B4B68
:10585000C2F80405E4E700BF3C9100203E9100201F
:1058600000100040481B0100A92C0100751A01001E
:105870004C910020520008006C1B0100120008002F
:105880002DE9F04F8DB000F0D7FCAA4BD3F80423DC
:10589000950728D5D3F804312BB34FF48270FFF766
:1058A0001CF9A54B1A78052AD3B209D8032B0CD8BA
:1058B00038D0A24BA24A40F68521A24802F05EFDF4
:1058C000062BF6D100F07AFC0DE09F4B1C682046B9
:1058D00000F060FC10B12046FFF7E1F89B4A137816
:1058E00043F008031370934ED6F804335C055CD57F
:1058F000D6F82831002B58D04FF49470FFF7EDF80C
:105900008D4B1B78022B40F00B81D6F86075C7F3E6
:10591000C707022F8DF8187009D88D4B8D4A4FF4A8
:10592000FA61CAE78C4B1868FFF7A8F8DBE7D6F8EE
:105930003431002B39D1854C237813F0010815D16F
:10594000DFF8189243F00403D9F80000237006A989
:1059500001F018F80546002840F0C0809DF8183086
:105960009F4200F0B680DB00C6F860354FF00108BA
:105970002378980719D4B8F1000F16D0774E306805
:10598000057801F01CF96B01002840F0C08003F19C
:10599000C00001F0B9FD002800F0BC802378306819
:1059A00043F00203237000F007FC624BD3F804239A
:1059B000910412D5D3F834317BB14FF49A70FFF7CC
:1059C0008CF85D4B1B78022BDCB240F0AE800020DF
:1059D000FFF7FCFB2046FFF789F9564BD3F8042369
:1059E000D20440F10081D3F83031002B00F0FB806D
:1059F000514E4FF49870FFF770F83378022B40F057
:105A00009D81524F554C3B78256843F010033B7005
:105A1000DB0740F1A980206801F0D1F8002800F0F0
:105A2000AC8000F019FD002800F0A780206801F08C
:105A300051FB494B1860002800F09F803D4A4849BF
:105A4000C2F804054FF4A013C2F800324FF4AA7054
:105A5000FFF743F8434BC3F858154FF40071C3F8F0
:105A60005C25C3F80415A3F5B0330121D3F8440530
:105A7000D964D3F84C15D3F84035884205D99842FB
:105A800040F29F80994200F29C80FFF747F8D2F8DD
:105A90005035DBB2092B00F09480D2F85431002B42
:105AA00040F08F80226882F880302E4A4FF40071D7
:105AB000C2F80815C2F85835C2F85C35C2F8343956
:105AC000FFF72AF90120FFF747FC2846FFF719F9ED
:105AD00089E0237843F00103237047E7092810D1B8
