:10000000000002202D700000557000001D1100003E
:10001000597000005B7000005D700000000000007F
:100020000000000000000000000000005F70000001
:100030006170000000000000637000006570000047
:100040008D680000414700007D250000152B000051
:10005000252B000067700000E1230000D12600007E
:1000600041290000512900006770000067700000FE
:100070006770000067700000677000006770000024
:1000800067700000110C00006770000067700000CE
:10009000AD0C000067700000677000006770000022
:1000A00067700000677000006770000067700000F4
:1000B00099260000677000000000000000000000AA
:1000C00067700000A92600006770000091280000FA
:1000D000A16D00006770000067700000677000008D
:1000E000AD33000000000000000000000000000030
:1000F0000000000067700000000000006770000052
:1001000000000000000000000000000000000000EF
:1001100000000000000000000000000000000000DF
:1001200000000000000000000000000000000000CF
:1001300000000000000000000000000000000000BF
:1001400000000000000000000000000000000000AF
:10015000000000000000000000000000000000009F
:10016000000000000000000000000000000000008F
:10017000000000000000000000000000000000007F
:10018000000000000000000000000000000000006F
:10019000000000000000000000000000000000005F
:1001A000000000000000000000000000000000004F
:1001B000000000000000000000000000000000003F
:1001C000000000000000000000000000000000002F
:1001D000000000000000000000000000000000001F
:1001E000000000000000000000000000000000000F
:1001F00000000000000000000000000000000000FF
:100200000348044B834202D0034B03B118477047A5
:10021000EC060020EC060020000000000548064B1C
:100220001B1AD90F01EBA301491002D0034B03B1F4
:1002300018477047EC060020EC0600200000000084
:1002400010B5064C237843B9FFF7DAFF044B13B11E
:100250000448AFF300800123237010BDF006002096
:10026000000000007007010008B5044B1BB10449F1
:100270000448AFF30080BDE80840CFE7000000006D
:10028000F406002070070100A3F5803A704700BF14
:10029000154B002B08BF114B9D46FFF7F5FF0021C2
:1002A0008B460F461148124A121A06F075FF0C4B86
:1002B000002B00D098470B4B002B00D09847002014
:1002C000002104000D000B4807F0A0FA07F056F9D2
:1002D0002000290000F0F6F907F08AFA0000080073
:1002E000000000000000000000000220F0060020D6
:1002F0001C210020E17A00000A4B0D22C3F80C25D6
:100300004FF0FF32C3F810251C22C3F808254FF028
:100310008042C3F824250022C3F854250722C3F8DD
:1003200000257047003000402DE9F04F2DED028B85
:1003300087B080468946154600210F2202A89A46BA
:10034000DDE91276B0EE408A06F026FFBC4B187845
:10035000BC4B19780722002404F1180CC2EB82135D
:10036000C2EB83030DEB0C0E47FA02FB23331BF0A9
:10037000010F1EF810CC03F0070300F0038141FACF
:1003800003FB4CEA0B0C022B0EF810CC0ED904F137
:10039000190CC3F108030134EC4401FA03F31CF80F
:1003A00010EC43EA0E030CF8103CE4B2013AD3D24D
:1003B000072304F11807C3EB8312C3EB82020DEB92
:1003C000070C4AFA03FE4B321EF0010F1CF8107C9A
:1003D00002F0070200F0E88041FA02FE47EA0E0749
:1003E000022A0CF8107C0ED904F11907C2F1080298
:1003F00001346F4401FA02F217F810CC42EA0C0201
:1004000007F8102CE4B2013BD3D2072704F11802FD
:10041000C7EB8713C7EB83030DEB020C46FA07FE0D
:1004200073331EF0010F1CF8102C03F0070300F0CB
:10043000CD8041FA03FE42EA0E02022B0CF8102C8A
:100440000ED904F11902C3F1080301346A4401FA18
:1004500003F312F810CC43EA0C0302F8103CE4B2A8
:10046000013FD3D2784E0024771C38190F2202A9FD
:100470000F3406F0E9FFB4F5347FF6D1DFED736A8F
:10048000DDED147A88EE267A0F220021F8EEE77A65
:1004900067EE877AFCEEE77ACDED017A9DF80400ED
:1004A000C0EB0010013084B216FA80F006F074FE42
:1004B000634B1978634B1A780720C0EB8013C0EBAD
:1004C000830349FA00FC23331CF0010F375D03F06E
:1004D000070300F08D8042FA03FC47EA0C07022B69
:1004E000375508D9C3F10803013402FA03F3375D25
:1004F0003B433355A4B20138DFD20727C7EB87133C
:10050000C7EB830348FA07FC4B331CF0010F305D47
:1005100003F007037AD042FA03FC40EA0C00022BF6
:10052000305508D9C3F10803013402FA03F3305DF2
:1005300003433355A4B2013FE0D20727C7EB87132B
:10054000C7EB830345FA07FC73331CF0010F305DE2
:1005500003F0070367D042FA03FC40EA0C00022BC9
:10056000305508D9C3F10803013402FA03F3305DB2
:1005700003433355A4B2013FE0D207B0BDEC028B78
:10058000BDE8F08F40FA03FB4CEA0B0C022B0EF88F
:1005900010CC7FF60BAF04F1190CC3F10803013442
:1005A000EC4400FA03F3FAE640FA02FE47EA0E07CB
:1005B000022A0CF8107C7FF626AF04F11907C2F16D
:1005C000080201346F4400FA02F215E740FA03FE14
:1005D00042EA0E02022B0CF8102C7FF641AF04F118
:1005E0001902C3F1080301346A4400FA03F330E747
:1005F00041FA03FC47EA0C07022B37557FF67BAF25
:10060000C3F10803013401FA03F370E741FA03FC74
:1006100040EA0C00022B30558DD9C3F10803013498
:1006200001FA03F383E741FA03FC40EA0C00022BD2
:100630003055A0D9C3F10803013401FA03F396E75A
:1006400001000020000000200C0700200000B4433F
:10065000054B064AC3F8442540F2EA22C3F8482570
:1006600001221A61704700BF003000400C070020D3
:100670001FB5114B93ED000AF1EE047A30EE270A14
:10068000DFED0E7AB4EE670ADFED0D7AF1EE10FAC7
:1006900008BFB0EE670A83ED000A3C203023CDE9A5
:1006A0000103002300931A461946FFF73DFE05B0EB
:1006B0005DF804EBFFF7CCBFF80900200000B4435D
:1006C000000000001FB51548154C07F0B5F8FFF7FE
:1006D00013FEFF233022CDE9013219461A469FED61
:1006E000110A00931846FFF71FFEFFF7B1FF00F055
:1006F00035FC0D4A0D48012100F078FC0C48002221
:100700004FF47A7100F084FC44F001044FF47A75E0
:100710004FF47A40A047013DFAD1F7E75CDB0000D7
:10072000D0FC00000000000071060000D8FC0000B2
:10073000FC09002010B50368292B044604D9074999
:1007400040F2CD1000F004FD23681F2B83BF03F09F
:100750001F03236002484FF0A04010BD6CDB000077
:100760000003005007B5019001A8FFF7E3FF019ACD
:1007700001239340C0F80C3503B05DF804FB07B5C6
:10078000019001A8FFF7D6FF019A01239340C0F81A
:10079000083503B05DF804FB38B5054D044645F057
:1007A00001054FF47A40A847013CFAD138BD00BF9B
:1007B00050FD00002DE9F3413D4F3E4E052402253A
:1007C00017F8013B019301A8FFF7B4FF019B03F564
:1007D000E07340F8235001A816F8013B0193FFF79E
:1007E000A9FF019B03F5E073013C40F82350E7D1DA
:1007F000152501A80195FFF79DFF019B03F5E07307
:1008000040F2032640F82360132401A80194FFF767
:1008100091FF019B03F5E07340F2031840F8236059
:100820001C2601A80196FFF785FF019B03F5E073E5
:100830001E2740F8238001A80197FFF77BFF019B4B
:1008400003F5E07340F823802846FFF798FF204621
:10085000FFF795FF3046FFF785FF3846FFF782FF29
:100860001C20FFF77FFF1E20FFF77CFF4FF4FA707C
:10087000FFF792FF1C20FFF782FF1E20FFF77FFF8C
:100880003220FFF789FF1C20FFF76CFF1E20FFF7C7
:1008900069FF4FF4FA70FFF77FFF1C20FFF76FFF2F
:1008A0001E20FFF76CFFFA20FFF776FFD8E700BFA6
:1008B0005BFD000056FD000073B506460D4614466C
:1008C00072B601F001FB01F041F90028FBD112489A
:1008D00006F0B2FF44F201039E420AD044F2020342
:1008E0009E4214D1228861680C4806F0A5FFFFF7EC
:1008F00061FFA668304601F017FD2368019500935B
:10090000024663680648314606F096FFEFE729463F
:10091000044806F091FFEAE7D1DB0000EADB0000C3
:1009200005DC00002FDC00002DE9F743054601F04F
:10093000CBFA01F00BF90028FBD12A4B2A4C9E6A16
:100940002A4BE41AE408240444F00104002D44D0A6
:10095000AA692749204601F069FAEB680193AB6860
:100960000093D5E900232349204601F074FAEB698E
:100970000093D5E904232049204601F060FA194B81
:10098000DB6A990703D51D49204601F04BFADFF8D1
:100990007C80DFF87C900025012707FA05F33342BD
:1009A00006D058F825201AB14946204601F03EFAF3
:1009B00001351A2DF1D1320605D50A4B10495A6B73
:1009C000204601F033FA330405D5064B0D499A6BE6
:1009D000204601F02BFAFFF7EDFE0B49204601F00F
:1009E00021FACCE700ED00E07408010024080100C2
:1009F00049DC00005EDC000093DC0000EEDC00005F
:100A00003DDD00005DDD0000BBDC0000DCFC000023
:100A100032DD00007047704770477047704770477D
:100A200038B50E4B1B680021986806F0B5FC4FF4F2
:100A30000041002001F030F818B1094A142100F0FB
:100A4000BBF8084D00F054FF0A2445F001054FF4AF
:100A50007A40A847013CFAD138BD00BF28000020E9
:100A60002DE2000060FD00007047000007B5044B58
:100A70000093044A402300F0D9FE03B05DF804FB64
:100A8000DD0A00001E0A002030B50F4D0FCD89B0E1
:100A90006C460FC495E80F0084E80F000622282357
:100AA000CDE9002309480A4B06930022694600F06D
:100AB0005DFC18B1074A462100F07EF8064B002283
:100AC0001A7009B030BD00BF74FD000004000020A2
:100AD00000509D0084E200001C0A002038B50E483A
:100AE0000E4C0F4D002323700378EB5CD2B273B130
:100AF000043002F0DFFD18B10A4A562100F05CF81C
:100B0000094B1B7813B12378002BFCD038BD0C3077
:100B100002F07EFAEFE700BF040000201D0A00206B
:100B2000840B002084E200001C0A002008B508485D
:100B3000084A0378D35C33B1043002F039FDBDE8D4
:100B40000840FFF7A1BF0C3002F0F6F9F7E700BF4D
:100B500004000020840B0020FFF796BF10B5084862
:100B6000D4B20378074AD35C224623B1043002F0A2
:100B7000A1FD204610BD0C3002F04AFAF9E700BF93
:100B800004000020840B002008B50948094A0378B6
:100B9000D35C012243B1043002F006FE002814BFEA
:100BA0004FF0FF30012008BD0C3002F0A1FAF5E74C
:100BB00004000020840B002000B583B00290009157
:100BC000019244F2010071466A46FFF775FE03B0D8
:100BD00000BD0000094B5A7899780132D2B2914297
:100BE00008BF0022197891421FBF02705A7818215D
:100BF00001FB023014BF043000207047740A00204B
:100C0000024B4FF43C6043F001031847A0FD000085
:100C1000F8B51F491F4B0025C1F84051C1F8445198
:100C2000C1F84851C1F84C51C1F80051C1F8045104
:100C30001B684BB3D1F8044517490968641A24F0BE
:100C40007F442F461A68A24209D8A41A15441A7C78
:100C5000DE691AB1D3E905201F749047AEB90F4A77
:100C60000F4B11781B788B4205D10133DBB2022B7D
:100C700008BF0023137012780A4B43F822500A4B26
:100C80004FF48012C3F80021F8BD3346DAE700BF05
:100C900000100140700A00206C0A0020600A002049
:100CA000610A0020640A002000E100E02DE9F74F0E
:100CB0009F49A04A0B7812789F4D9A4255D0013334
:100CC000DBB2022B08BF00239C4A0B709C491668BC
:100CD00051F82300331823F07F43136000222B6860
:100CE00017461446944613B942B12B6006E01968C2
:100CF000814228D902B12B60091A19604FF0010B0B
:100D00002B68DFF8509200934FF0000A002F46D076
:100D10003C46FF69894B666819688A4AA368701A5D
:100D200020F07F40904200F2E180034401202074D3
:100D3000286823600021C4E90111E161002840F026
:100D4000DD802C60E2E7401A0C44D968D3F81CE03F
:100D5000C3F800C031B1321922F07F42C3E901214A
:100D6000DF611F4673460122BDE70027BB46C7E788
:100D700099F802402E68431CDBB29C4208BF002356
:100D800089F80030182303FB009003798468022B54
:100D90006AD0032B00F09480012B00F0948099F826
:100DA000000099F801308342E2D12B68BAF1000FBC
:100DB00005D1009A9A4202D1BBF1000F43D0002B1B
:100DC00041D0D3F800A0604D5C4BD5F804751C6889
:100DD000DFF884813E1B98F8003026F07F4603360A
:100DE0009BB94FF48033C5F84433C5F80433574BEF
:100DF0004FF40032C3F880211A604FF00109C5F8A2
:100E00000090FFF7FDFE88F80090B2452CBF5444D7
:100E1000A41924F07F44C5F84045D5F80435DB1B00
:100E200023F07F43E41B033324F07F44A3420AD919
:100E3000D5F80435C5F84035FFF7E2FE434B4FF4D3
:100E40000032C3F80021424B00221A7003B0BDE803
:100E5000F08F44450BD04046D8F81C80B8F1000F05
:100E6000F7D1002323749AE7B0463046F6E7844270
:100E70000DD1F3692B6053B93349019001228A6087
:100E80002E490B60324B1A70FFF7BAFE0198D8F862
:100E90001C20D8F80030C26112B111680B441360F5
:100EA0002B68B34218BF4FF0010ADAE73074F669D5
:100EB0000123002EFAD1002B3FF471AF2E606EE7B4
:100EC00000231846F5E7267C002E7FF468AFC16842
:100ED00061600369A3604369E3608369A3611C4B9C
:100EE0001B78002B18BF3146616013E7891B21F086
:100EF0007F41994234BF5B1A002317E7016899428A
:100F000013D3C91A0160E0611BE79B1BCE69084639
:100F10003EB131460E68B342F7D8F61A0E600E465F
:100F200001462360E661CC61F0E60146F2E700BFCE
:100F3000610A0020600A0020700A00206C0A00206C
:100F4000640A0020FEFF7F000010014000E100E085
:100F50005E0A0020740A00205F0A0020F8B51B4ECC
:100F60004FF40033C6F88030BFF34F8FBFF36F8F5D
:100F7000174D184F4FF480330124C5F84833C5F896
:100F800008336C60FFF73CFEAC6000243C60FFF768
:100F900037FE114B1C70114B0B221C809A70104BAA
:100FA0001C60104B1C70104B4FF480121C70E0231F
:100FB000C6F8802186F814333260C5F8084586F8F3
:100FC0001133D5F804353B602046F8BD00E100E060
:100FD000001001406C0A00205F0A0020740A002003
:100FE000700A0020610A0020600A0020074B9B78ED
:100FF0004BB132B128B10368187C20B959745A61D9
:101000007047072070470820704700BF740A00200F
:101010002DE9F3411D4FBB7804460D4616469BB3A0
:1010200090B31B4B4A1F9A422CD8436963B3437C4D
:101030000020012B0CBF88464FF0000800F04EF84E
:101040000DF10700FFF7C6FDD0B101230370114B6E
:101050004460D3F80435C0E90486C0E902359DF840
:1010600007307B700024002000F048F824B90A4BB8
:101070004FF48012C3F80021204602B0BDE8F08191
:101080000424F0E70724F7E70824F5E7740A0020B2
:10109000FAFFFF000010014000E100E072B6024AD2
:1010A0001368013313607047800B0020034A1368F4
:1010B000013B136003B962B6704700BF800B00208C
:1010C000EFF30583C3F308032BB9EFF31480C04398
:1010D00000F00100704701207047000008B5FFF7DD
:1010E000EFFF012803D00449432000F031F8BDE8A8
:1010F0000840FFF7D3BF00BFE1E2000008B5FFF7EB
:10110000DFFF012803D00449512000F021F8BDE899
:101110000840FFF7CBBF00BFE1E200001EF0040F64
:101120001CBFEFF309800AE0EFF308800549064A87
:10113000884201D8904202D88D464FF00000034B00
:10114000184700000000022000E0012029090000EB
:1011500007B5ADF8000001916A46002144F2020093
:10116000FFF7AAFB03B05DF804FB10B5034653E894
:10117000000F0A4643E8002494F0000FF7D110BD99
:1011800010B5034653E8002F42EA010043E800048B
:1011900094F0000FF6D110BD10B5034653E8000FD0
:1011A00000EA010243E8002494F0000FF6D110BDDC
:1011B00010B5034653E8002F02EB010043E800049A
:1011C00094F0000FF6D110BD10B5034653E8002F80
:1011D000A2EB010043E8000494F0000FF6D110BD2B
:1011E0000121FFF7CDBF0021FFF7D6BF10B50446A0
:1011F000002834D003681BB91A49FF20FFF7A8FF65
:10120000636823B917494FF48070FFF7A1FFA36803
:1012100023B9144940F20110FFF79AFFE36823B99C
:1012200010494FF48170FFF793FF238A23B90D49CA
:1012300040F20310FFF78CFFD4E9012321689B1AC9
:10124000DBB20A60013BDBB2FF2B226802D1002037
:10125000107110BD1168481C10600B70F2E70E2071
:10126000F7E700BF58E3000038B5044620B912493B
:101270004FF49270FFF76CFF0020FFF72FFF2268FA
:10128000616813688B4215D9591E116013F8013C2F
:10129000228AE56802FB03552268A36811685B1A7D
:1012A0001179DBB2994200D213710020FFF726FFBB
:1012B000284638BD0025F8E758E3000038B50C464D
:1012C000054620B90E4940F24710FFF741FF24B907
:1012D0000B494FF4A470FFF73BFF0020FFF7FEFE21
:1012E0002A681368591C1160EA68A41A2A8AB4FB98
:1012F000F2F41C70BDE838400020FFF7FFBE00BFCD
:1013000058E300001FB503788DF80030436801935F
:1013100083688DF80830C368054A0393054B684617
:1013200053F8213052F82110984705B05DF804FBBE
:10133000880B0020900B00201FB503788DF800303B
:101340004368019383688DF80830C368054A0393A6
:10135000054B684653F8213052F82110984705B0E4
:101360005DF804FB880B0020900B0020F0B5194BB2
:1013700090F800C0DFF86CE043F82C20164B1646BE
:101380000A6943F82C200C464B7F0EF80C300746B8
:101390000FCC89B06D460FC594E80F0085E80F00AB
:1013A0003B78CDF810C01EF803304BB1002E0B4A2D
:1013B000694608BF3246381D02F000F809B0F0BD9A
:1013C000002E074A694608BF324607F10C0001F0BB
:1013D000C7FCF3E7900B0020880B002005130000EA
:1013E00039130000840B002010B5044618B90649D3
:1013F0003120FFF7ADFEA2682AB163692168206938
:1014000098470023A36010BDD0E300000EB433B5AD
:10141000059D044618B911494220FFF799FE6369FA
:101420001BB90E494320FFF793FE23681BB90B49F4
:101430004420FFF78DFE63681BB908494520FFF77C
:1014400087FE35B106AB01AA29462046019300F07C
:1014500071F802B0BDE8304003B07047D0E300003F
:10146000826830B40468551C8560A154D0E901320B
:101470009A4202D330BCFFF7B7BF30BC70470000C0
:101480002DE9F84F9946DDE90A431546824688461C
:101490000A460127AA420FD24F4538BF4F4613F0E4
:1014A000010B01D164B900240126B9F1010F1CD947
:1014B00009F1FF396E43F8E70137B2FBF5F2E9E7CE
:1014C0009B0710D5B9F1000F0CBF30262026BC4277
:1014D000EAD9013C31465046FFF7C2FF002CE2D06A
:1014E000BC42F6D1E0E72026F1E7B8FBF6F39D42D7
:1014F000E0D9DFF83C90B8FBF6F3504619F803103A
:1015000006FB1388FFF7ACFF3346AB42B6FBF5F69C
:10151000F1D2BBF1000F00D034B9BDE8F88F202123
:101520005046013CFFF79CFFBC42F8D8F5E700BFEE
:10153000A6FD00002DE9F74F0F469046054620B95D
:10154000B74940F25220FFF703FE6B6923B9B44953
:101550004FF41570FFF7FCFD2B6823B9B04940F23A
:101560005520FFF7F5FD6B6823B9AD4940F25620D1
:10157000FFF7EEFD002F00F0558117F8011B49B968
:101580002B7B002B00F04E81284603B0BDE8F04FC6
:10159000FFF72ABF252940F0BD8000263A4612F801
:1015A000013B2D2B25D0302B27D02B2B28D00024EE
:1015B0002A2B07F1010226D1D8F80030191DC8F8EE
:1015C00000101B6817461C443B782E2B27D101378F
:1015D0004FF0000A0A20394611F8012BA2F1300C15
:1015E000BCF1090F1DD800FB0A22A2F1300A0F46F8
:1015F000F1E746F001061746D0E746F00206FAE7A3
:1016000046F00406F7E712F8013CA3F1300109297E
:10161000DAD80A2101FB0434303C1746C8E74FF002
:10162000000A3A4612F8011B01F0FB006828174631
:10163000F8D0782909D86F290BD8632964D021D82C
:10164000252967D0582900F095803B78002B94D14C
:1016500096E770390829F8D801A252F821F000BFA6
:10166000F71700004B1600004B160000891700000A
:101670004B1600005F1700004B1600004B160000D1
:1016800075170000642901D06929DED1D8F800203F
:10169000111DC8F80010D2F800B08BEAEB72A2EB73
:1016A000EB724FF001090A21092A37DCD14538BF16
:1016B000D1462CB1BBF1000F01DB720700D5013C14
:1016C000B30702D5BAF1000F03D0F00701D454BB21
:1016D0000024BBF1000F32DACBF1000B2D2128469C
:1016E000FFF7BEFE06F00302022A04D1BAF1000F92
:1016F00001D144BB0024CDE9004653460A22594695
:101700002846FFF7BDFEA0E7D8F800301A1DC8F83C
:10171000002019782846FFF7A3FE96E709F1010992
:10172000B2FBF1F2C0E7A145D3D2013C202128460B
:10173000FFF796FE002CCBD0A145F6D1C9E7710783
:10174000D0D52B21CBE7A145D5D2013C302128466D
:10175000FFF786FE002CCDD0A145F6D1CBE7D8F817
:1017600000100A1DC8F80020CDE9004653460A22A1
:101770000968C5E7D8F800100A1DC8F800205346CC
:10178000CDE900461022F3E7D8F800301A1DC8F85A
:10179000002016F00106D3F8009024D1B9F1000F13
:1017A00003D0484605F08CFC0646B4421DD809F12A
:1017B000FF3919F8011F00293FF447AF2846FFF70A
:1017C0004FFEF6E728460136FFF74AFE19F80610E5
:1017D0000029F7D1A642BFF438AF20212846013CAA
:1017E000FFF73EFEF6E70026F0E720212846013C01
:1017F000FFF736FED9E7D8F800301A1DC8F80020E8
:10180000302128461C68FFF72BFE78212846FFF779
:1018100027FE00220823CDE90032214610226FE77F
:1018200038E4000003B0BDE8F08F00BFF0B595B01C
:101830001D46164608460C4600F00EFD1A9B0D93F9
:10184000CDE9086500252B46082205A920460A9502
:101850008DF82C500C9500F027FD079B0293069BFA
:1018600003939DF814308DF8115003F00302012A00
:101870001DD1BDF81420059DC3F3C203C2F3831626
:101880008DF81030B20008230EA9204600F00CFDA0
:10189000C5F3952508AB0093324602AB0EA9284646
:1018A00000F080FB204600F0DBFC15B0F0BD022A02
:1018B000F8D1BDF81650C3F3C203C5F389158DF8EE
:1018C00010300827082D2E4628BF08263B463246F2
:1018D0000EA9204600F0E8FCAD1B08AB02AA314679
:1018E0000EA8374400F0C2FB002DEBD1DAE7000070
:1018F00008B5FFF731F90748042100F0BBFA0028CA
:1019000003DA05494820FFF723FC044B01225A71F2
:1019100008BD00BFA0080100A7E4000018000020D7
:10192000037813F0040215D003F00303012B03D056
:10193000022B09D0012070470B6802880233C2F3E2
:10194000831213440B60F5E70B684288023303EB04
:101950009213F7E7104670472DE9F04FDFF834A1F6
:101960000F4687B00446861C00201546FFF7B6FBDD
:10197000DAF800203A60DAE901130B4401339B1ACC
:101980000AF21C470AF583690AF21448B3421BD3D2
:101990000021002D77D004F00F04A40144F00504C9
:1019A00064F30F01DAF80020DAF80830134003334B
:1019B00032444AF823100020CAF80020FFF79EFBAB
:1019C000012007B0BDE8F08F01213846FFF7F0FB9A
:1019D0004846FFF705FC4046FFF702FCDAF8040032
:1019E000DAF808B0029000EA0B0003300AEB80003E
:1019F00002A9FFF795FF029B0246E0B90BEA03013B
:101A00000AEB8101C8680390991C013303EA0B03B8
:101A10000AEB830300F003000128DB6802912AD05F
:101A200002280BD01A49019240F28910FFF790FB6F
:101A3000019A93460CE00BEA0300D6E74FEA134BFA
:101A4000BDF80E30C3F38913033301EB9303029304
:101A50004046FFF7C8FB10B1029BCAF80430594654
:101A60003846FFF7A5FBDAE901231344DAF8002032
:101A700001339B1A8AE74FEA134BBDF80C30C3F3CE
:101A800083130B44E3E7A40544F006018AE700BF93
:101A900039E50000980B00200B4B0C48FF2210B5D5
:101AA0009A600022C3F81824C3E90022C3F8142462
:101AB000012283F8202400F08BFB044610B904486F
:101AC00000F00AFC204610BD980B00208C08010095
:101AD000B8FD000030B50A4C71B10A4A0A49121B20
:101AE000D20800239A4201D1002030BD31F82350A2
:101AF000854202D00133F5E7034654F83300F4E79A
:101B0000240801008C080100EC060020094B013973
:101B100003EBC000032909D8DFE801F0020A04063C
:101B20000220704700797047407970470020704765
:101B30000420704724080100034BD3E90030C31A86
:101B400058425841704700BF980B00202DE9FF47CD
:101B5000FFF7F2FF002840F083807E4DC5F818049F
:101B6000BFF34F8F6868AC6800902040033005EBEE
:101B700080006946FFF7D4FE009B18B1D5F8182401
:101B8000002A69D004EA03029F1C013305EB82029C
:101B9000234005EB8303D268DB68029302F0030362
:101BA000022B019200976ED1BDF806306A48C3F34C
:101BB0008918B8F1500FC14628BF4FF0500969F39A
:101BC0008F1309F10801ADF8063000F019FB064645
:101BD000002800F0A98000F03FFB002330460822D7
:101BE00001A900F04BFB24EA07030133B9EB830F93
:101BF0004FEA83003FD95FFA89F9002837D004EA19
:101C00000701C4B2A9EB040A0331A146534C05EB0A
:101C100081015FFA8AFA08234A46304600F02EFB1B
:101C200034B109F1080352462146304600F026FB44
:101C300008F1030807EB98070097D5F81834D5F892
:101C40001044002B5FD0304600F00AFBFFF774FF12
:101C500080F00100C0B204E02A689A4204D86A60A9
:101C6000002004B0BDE8F08704EA03007EE73B49AA
:101C700004468246CFE704EA0701033108234A46B7
:101C800005EB8101D1E7012B4ED1BDF8043032487C
:101C9000C3F38311062928BF062161F3891302319A
:101CA00001F00F018900ADF8043000F0A9FA0646F2
:101CB000002839D000F0D0FA0023082201A93046CC
:101CC00000F0DCFA0027BDF80420C2F38312BB0049
:101CD000BA4203F10803B0D900994A1C21400331EC
:101CE000009205EB81010422304600F0C7FA01376B
:101CF000E9E7E3685B7923B1236831461B68204636
:101D00009847E3681C68002CF3D1304600F0A8FA2D
:101D10002046FFF7E3F9D5F818340BB9009B6B6048
:101D20000020FFF7EBF991E7D5F8104454B90C4BBC
:101D30000C480D49C01AC008000440F0020000F031
:101D400071F883E7236820469B689847E3681C681E
:101D5000ECE700BF980B00208C080100A40B0020CA
:101D60002408010074080100B2E500002DE9F74FD6
:101D7000274E04460F46914601A901221846D6F87F
:101D800008A09846FFF7E8FD78B3019D0023A81C42
:101D9000434503EB000132D100211E48FFF7E5F96E
:101DA0004FEA144980F3100B1B4B1C4A9B1AB9EBEA
:101DB000D30F04D31A494FF4D770FFF7C9F96B1C3E
:101DC00003EA0A03E40006EB830304F0380449EA5B
:101DD0000B4205EA0A0544F00104DA60033544EADF
:101DE000881343EA872346F8253096F820341BB140
:101DF000FFF7ACFE0028FBD103B0BDE8F08F01EA8D
:101E00000A0106EB810159F82320CA600133BFE7BC
:101E1000980B0020B40F00208C080100240801005A
:101E200039E5000000231A46FFF7A0BF07B50123DC
:101E3000019201AAFFF79AFF03B05DF804FB1FB5FA
:101E4000CDE90123069B039301AA0323FFF78EFF2D
:101E500005B05DF804FB1FB5CDE90023069B029396
:101E6000079B03936A460423FFF780FF05B05DF8E4
:101E700004FB000030B51349D1F81044034600209C
:101E800022464AB9DC682071D1F8104484B9C1F8FF
:101E90001034DB681A600AE0D2681579854201D0F7
:101EA0001268EEE701300A28EAD14FF0FF3030BD6A
:101EB000E468DA6824681460D1F81024D2681360EA
:101EC000F5E700BF980B002038B5084B0125D3F883
:101ED000104483F8205404B938BDE3685D71236869
:101EE00020465B689847E3681C68F4E7980B00207D
:101EF00010B5037A052B0C460FD0437A23B1084A5C
:101F000008492046FFF782FA07492046FFF77EFA84
:101F10002046BDE81040FFF767BA002AF8D0F3E783
:101F2000C7E50000CCE50000ECE5000073B5C38810
:101F300004460D4633B1144A00921449144A284607
:101F4000FFF764FA217A05291CD0637A4BB1A08887
:101F5000FFF7DCFD0F4B104953F820202846FFF710
:101F600055FA227A0D4BA08853F822600021FFF722
:101F7000B1FD0B4903463246284602B0BDE8704029
:101F8000FFF744BA02B070BDC7E50000D7E5000016
:101F9000CFE50000C4FD0000CCE50000E8FD000036
:101FA000EFE500002DE9F04385B01F460C9D0023AE
:101FB00095F80C902B7306460C46904629463846F9
:101FC000FFF7B4FFB8F1060F09D8DFE808F00412F4
:101FD000181F2833400031462846FFF717FA002221
:101FE00029463846FFF784FF85F80C9005B0BDE818
:101FF000F083226831462846FFF708FAEFE7D4E974
:10200000002331462846FFF701FAE8E7A36800936A
:10201000D4E9002331462846FFF7F8F9DFE7E36803
:102020000193A3680093D4E9002331462846FFF7C3
:10203000EDF9D4E723690293E3680193A368009361
:10204000D4E9002331462846FFF7E0F9C7E7636982
:10205000039323690293E3680193A3680093D4E98F
:10206000002331462846FFF7D1F9B8E708292DE9C2
:10207000F84F80460E4617461C463BD8002593F87D
:102080000C901D7319461046FFF750FFDFF88CA027
:10209000DFF88CB0AE422FD918F8052059462046FB
:1020A000FFF7B4F90135082DF4D11949194DDFF8BE
:1020B00074B02046FFF7AAF94FF0000A564522D91E
:1020C00018F80A207E2A1CD81BF8021011F0970F6E
:1020D00008BF2E2210492046FFF798F90AF1010A9D
:1020E000BAF1080FEAD1012221463846FFF700FF76
:1020F00084F80C90BDE8F88F51462046FFF786F92A
:10210000D0E72E22E6E729462046FFF77FF9E5E7EC
:1021100003E6000001E6000005E60000FFE5000020
:10212000F9E50000010501002DE9F74F99469DF8FA
:102130003030009388469346064618B92349B620A6
:10214000FFF706F8F28871794A43043A4A4505D800
:102150001E490192C420FEF7FBFF019ADBF80070D4
:10216000B6F806A007EB0901914209F1040488BF03
:10217000A2EB0907B4FBFAF5CBF800700AFB154493
:1021800045B9AAEB040BBB4528BFBB462FB903B02A
:10219000BDE8F08F3668013DF2E7009B043408EBA0
:1021A000050034445A466BB12146A7EB0B0705F0F6
:1021B0004BF9BA455D443668D3464FF0000428BF5A
:1021C000BB46E3E701462046EFE700BF53E60000C9
:1021D000FFF70CB8F8B546790146721E0546002394
:1021E00093422D6803D30024A64202D8F8BD0133E0
:1021F000F6E70F682846FFF761F801343946F3E740
:102200002DE9F041CD1C078A0646FFF72DF8043F63
:102210003D440446B5FBF7F5D0B14FF48073EDB201
:10222000C7808380013D066080460027AF4210D200
:102230003046FFF719F840B1637901336371013714
:10224000C8F8000006608046F0E72046FFF7C2FFAE
:1022500000242046BDE8F08101210430FEF7A8BF2C
:1022600010B5012104460430FEF7AEFFC0B220B91C
:102270002046BDE81040FFF7ADBF10BD1FB51446A6
:1022800003920022009203AAFFF74EFF039BA34292
:1022900006D00449F62004B0BDE81040FEF758BF50
:1022A00004B010BD53E600001FB51446039201228E
:1022B000009203AAFFF738FF039BA34207D005490A
:1022C0004FF4807004B0BDE81040FEF741BF04B089
:1022D00010BD00BF53E6000082680023936082684F
:1022E0001361826853618268D36082685360826838
:1022F0001360704710B50B4AA2F58C739A4201D84F
:1023000000200CE0D11A091103EBC10453F831107D
:10231000814205D802D204F10803EFE7606810BDDE
:102320002246EBE714FF000008B5FFF7E3FF024B7E
:10233000002808BF184608BD14FF000000F18040C7
:1023400000F5C040002382B0036003680193019B45
:1023500002B07047C208012300F007008340885C88
:1023600003438B547047000010B50368292B0446C3
:1023700004D9074940F2CD10FEF7EAFE23681F2B6F
:1023800083BF03F01F03236002484FF0A04010BD3D
:102390006CDB00000003005013B5019001A80C464F
:1023A000FFF7E2FF019B00EB8300D0F8003723F436
:1023B0004033C0F80037D0F8003743EA0443C0F890
:1023C000003702B010BD00004FF0A043D3F8103525
:1023D0000360024BD3F81035436070470003005090
:1023E0002DE9F04F00248BB0CDE90244604D4FF44D
:1023F0008072012102F1804303F5C0431B68012B69
:1024000007D1D5F804330B4203D090B2FFF796FF03
:102410000C430432B2F5907F4FEA4101EAD1544BAC
:10242000D3F87C31012B08D14FF4BE70FFF786FF43
:1024300002A844F00044FFF7C7FFE3B2D3B14D4F09
:1024400000250126344210D0AB0003F1804303F590
:10245000C043D3F81005D3F8101557F8253023B131
:10246000C1F30141C0F3052098470135082D4FEA1B
:102470004606E7D1002C77DA0023CDE904334FF08C
:10248000FF33CDE90633DFF8ECB03B4B0193002777
:102490003D46019B13F9014F0193631C4ED0C4F3D9
:1024A000C2080122E3B204F03F0604F0070402FA76
:1024B00004F408F128020DEB020818F8102C22424F
:1024C0003CD00BEB06024FEA931A92F930205BF8EE
:1024D0002290B9F1000F07D1BAF1030F2ED104A950
:1024E0003046FFF737FF02E0BAF1030FF7D008A834
:1024F0000896FFF739FF089A18F8201C02F5E072D9
:10250000214250F82220C2F3014206D0022A15D1FE
:10251000BAF1030F0CD1514605E0032A0ED1BAF1EE
:10252000030F05D102213046FFF736FF0135EDB22A
:10253000B9F1000F02D051463046C8470137042F89
:10254000A7D18DB108A8FFF73FFF029B089A9A42D6
:10255000099B02D103998B4206D002920393049AFD
:10256000059B0692079390E70BB0BDE8F08F00BF84
:1025700000600040241100207D11002010B5054CA2
:1025800023681BB904495120FEF7E2FD2368BDE82A
:10259000104018478C1100206AEA000038B50C463C
:1025A00028B90C497720FEF7D3FD002038BD0A4B2F
:1025B0009842FAD10020FEF791FD084B1D7915B91C
:1025C00001221C601A710020FEF798FD002DECD04E
:1025D0001120EBE76AEA0000002000408C11002087
:1025E00018B906499B20FEF7B3BD054B984201BFC1
:1025F000044B00221A601A71704700BF6AEA00009B
:10260000002000408C1100200023435082B043582A
:102610000193019B02B0704770B5D0F810310546A8
:102620000C4653B14FF48871FFF7EEFF63795A07F8
:1026300003D523680BB101209847D5F814315BB15D
:102640004FF48A712846FFF7DFFF63791B0703D534
:1026500023680BB102209847D5F81C315BB128469E
:102660004FF48E71FFF7D0FF607910F0100002D1A7
:10267000236803B19847D5F8043163B14FF48271F0
:102680002846FFF7C1FF0123237123681BB1BDE872
:1026900070400320184770BD01490248FFF7BCBFD6
:1026A0009411002000C0014001490248FFF7B4BF67
:1026B0009C1100200010024000F1804000F5E04035
:1026C000002382B0036003680193019B02B070474E
:1026D000F0B5544B544CD3F8043194F82E2085B007
:1026E000002B3BD04FF48270FFF7E6FF2AB394F83B
:1026F0002F3013BB4B4AD2F80031002B32D04FF4AD
:102700008070FFF7D9FF638B94F82D00834250D976
:1027100021891B1A9BB289B26383CB1A616801EBD2
:102720004301C2F82C16C2F830064FF48270FFF74E
:10273000C3FF3C4B01225A6014E063680293238973
:10274000ADF80C30E36800218DF8041033BB23741E
:10275000236801A89847002384F82F3094F82E307E
:10276000002BC7D12F4BD3F810315BB14FF48870D9
:10277000FFF7A2FF0023237402238DF8043001A881
:1027800023689847274BD3F814310BB34FF48A7062
:10279000FFF792FF0023237405B0F0BD208B608308
:1027A00063602081E160002AD2D11E4B01221A60B1
:1027B000CEE7BAD1E168012084F82F0031B10020C2
:1027C0006083C2F82C16C2F83036AEE76183ACE7FE
:1027D00066694FF000470125002EDDD0B6FA86F27B
:1027E00027FA02F34632920026EA030602F18043FA
:1027F00003F5E0431B68002BEED01046A2F58C7267
:10280000FFF75AFFD30882F00402C2F380028DF86A
:1028100008308DF8045023688DF8092001A89847E6
:10282000DAE700BF00700040A411002010B5036873
:10283000292B044604D9074940F2CD10FEF788FC45
:1028400023681F2B83BF03F01F03236002484FF050
:10285000A04010BD6CDB00000003005007B50190E4
:1028600001A8FFF7E3FF019A01239340C0F80C355C
:1028700003B05DF804FB07B5019001A8FFF7D6FF90
:10288000019A01239340C0F8083503B05DF804FBBA
:1028900013B5144BD3F8182112B30022C3F8182132
:1028A000D3F81831104C0193019B236823B90F49C9
:1028B0004FF42770FEF74CFCE07FFF2803D0A37F86
:1028C0005BB1FFF7CBFF002363772372D4E90031BC
:1028D000074802B0BDE810401847FFF7CCFFF2E709
:1028E00002B010BD00300240D4110020E9EA00001F
:1028F000DC1100202DE9F743002406460F4600F5C1
:10290000A0754FF48038A1462B688BB1D6F80433FC
:1029100008FA04F21A420BD0C5F800902B68019314
:10292000019BA30003F5A07398B2D7E90031984743
:102930000134042C05F10405E6D103B0BDE8F083B1
:1029400001490248FFF7D6BFF8110020008000407F
:1029500001490248FFF7CEBF04120020009000405A
:102960000023435082B043580193019B02B070474B
:102970000A7B0346032A2CD8DFE802F024281C0235
:102980008868154A904204D1D3F84C2508699042D2
:1029900009D1886840F2022290421AD1D3F84C251E
:1029A0004969914215D000200622C3F80005C3F8FA
:1029B00000257047D3F84C2508699042F3D1D3F82D
:1029C0003C25EDE7D3F84C250969EAE7D3F83C2527
:1029D000FAE70120704700BF00020400F0B50B6861
:1029E00087B005460C4623B9484940F28620FEF7D9
:1029F000AFFBD5F82431B3B14FF492712846FFF7FD
:102A0000AFFFD5F8043173B9A368C5F808330223C2
:102A1000A360A368C5F8043301232B626B6184F8BB
:102A20002E3007B0F0BDD5F804316BB34FF482718E
:102A3000284604F10C07FFF793FF0FCF01AE0FC636
:102A40003B68336094F82E303BB921462846FFF7A7
:102A50008FFF80F0010084F82E004FF4B0712846FB
:102A6000FFF77EFF4FF4AE71FFF77AFF94F8303036
:102A700013B194F82E30CBB10023C5F80032A36017
:102A8000234BC5F8083311E04FF4A4712846FFF733
:102A900067FF237B1BBB04F10C070FCF01AE0FC6F2
:102AA0003B68336094F83030002BE6D0D5F8C4345E
:102AB000C5F8C4349A0724D413F0050F23D194F831
:102AC0002E309B00DBB28DF8003094F830300BB91B
:102AD00084F82F30D4E9003168469847A1E74FF4D5
:102AE0000073C5F8003240F20223A36003F1CE73F5
:102AF000C5F80833A368C5F804330123AB602B6223
:102B00008FE70123DFE70223DDE700BF62EB000070
:102B100002029C0101490248FFF760BF1012002029
:102B20000030004002494FF04020FFF757BF00BF80
:102B3000441200200023435082B043580193019B6C
:102B400002B070470A4610B54FF48E71FFF7F2FFDE
:102B5000136A9168C95C136A01331362C0F81C15CB
:102B600010BD08B502464FF492710068FFF7E2FF0E
:102B700010684FF48471FFF7DDFF136801221A60BB
:102B800008BD000010B50368292B044604D9074985
:102B900040F2CD10FEF7DCFA23681F2B83BF03F051
:102BA0001F03236002484FF0A04010BD6CDB000003
:102BB0000003005007B5019001A8FFF7E3FF019B58
:102BC00003F5E073022240F8232003B05DF804FB14
:102BD00010B58B690A464FF4847123B9FFF7AAFF39
:102BE000D0F8183510BDFFF7A5FF536AD168D0F8AB
:102BF0001805C854536A01335362F3E71FB5012324
:102C00008DF80030044BCDE90110D3E9001268467D
:102C1000904705B05DF804FB7812002030B54E4DAA
:102C2000D5F804339A0585B051D5D5F82431002B59
:102C30004DD04FF492712846FFF77CFF4FF401739B
:102C4000C5F80833454B93F829200AB901226A6078
:102C5000414902228DF80020D1F88024C1F8802457
:102C600003929A690292DA6801920022C3E906226D
:102C70006846D3E9001290473748D0F81C315BB161
:102C8000364A5169136A99424ED992F82830002B7E
:102C90004AD11146FFF756FF2F48D0F84431002B98
:102CA00057D04FF4A271FFF745FF2C4B93F8292022
:102CB0000AB1012202609A69002A4AD0586AD9688A
:102CC00000229A6105B0BDE83040FFF797BFD5F804
:102CD00004335B07D0D5D5F80831002BCCD01F4C7E
:102CE0001D482146FFF774FF636AA2699A42C3D167
:102CF000E36953B1A3612369E168E3600023606A7B
:102D0000E3616362FFF77AFFB6E794F829300BB905
:102D100001236B60104B4FF40172C3F808230023AA
:102D2000606AE168A361EDE70B484FF48E71FFF72D
:102D300001FF5369002BAFD05169029100239168C4
:102D40008DF80030019153616846D2E9001398472D
:102D5000A2E705B030BD00BF00200040781200207F
:102D60002DE9F743054691460C4619B96B49AA204F
:102D7000FEF7EEF995F80480694E2C2303FB0863F7
:102D800093F82A30002B40F0C48066492868FFF78A
:102D900005FC0746002840F0BE8023685A1C13D06B
:102DA00001A80193FFF7EEFE019A01239340C0F8BA
:102DB00008352368019301A8FFF7E4FE019B03F5A2
:102DC000E073032240F823206368581C09D001A84F
:102DD0000193FFF7D7FE019B03F5E073002240F853
:102DE00023202B68A269C3F82425217D637D2A68EE
:102DF0000B43C2F86C35D4E900122B68C3F81425D4
:102E0000C3F80C15237D012B2AD1A368591C09D0C6
:102E100001A80193FFF7B6FE019B03F5E0730022C2
:102E200040F82320E3685A1C13D001A80193FFF750
:102E3000A9FE019A01239340C0F80835E368019385
:102E400001A8FFF79FFE019B03F5E073032240F802
:102E50002320D4E902122B68C3F80825C3F8101503
:102E60002C2303FB08F3F218C2F804902269F250F5
:102E7000B9F1000F39D0286894F81C902A4A4FF411
:102E80008E71FFF757FE28684FF4A271FFF752FECC
:102E90002B68C3F804232C68B9F1070F44F30734F7
:102EA00003D922496B20FEF753F9002CB6BF204B03
:102EB00004F1604404F00F044FEA49195FFA89F9FC
:102EC000AABF04F5614403F8049084F800932B68CA
:102ED00043F30733002B08DB0122590903F01F03DA
:102EE00002FA03F3134A42F821302B680422C3F894
:102EF00000252C2303FB08660023C6E9063386F869
:102F000029307361012386F82A30384603B0BDE8C2
:102F1000F0830827F9E71127F7E700BFD5EB00009A
:102F2000781200201D2C00008000020043EC0000FD
:102F300014ED00E000E100E02DE9F84303680679B4
:102F40002A4D0022C3F800252C2303FB0653044618
:102F50005B68B3B10368264AC3F80823036843F3E8
:102F60000733002B0DDB5A09012103F01F039940A1
:102F700002F120031F4A42F82310BFF34F8FBFF323
:102F80006F8F23684FF0FF32D3F80C05D3F81495F8
:102F9000D3F80875D3F81085C3F81425C3F80C25A9
:102FA00023689042C3F80825C3F8102501D0FFF725
:102FB00001FEB9F1FF3F02D04846FFF7FBFDB8F133
:102FC000FF3F02D04046FFF7F5FD7B1C02D038469C
:102FD000FFF7F0FD2068FFF703FB2C2303FB0655EA
:102FE000002385F82A306B60BDE8F8837812002052
:102FF0008402020000E100E00279044B2C2101FB75
:1030000002335869003818BF012070477812002039
:103010002DE9F84FDFF8D48007792C2303FB0783D1
:10302000064693F82A30012B8946924604D02E4951
:103030004FF48C70FEF78CF8B9F1000F04D12A49D7
:1030400040F21910FEF784F8BAF1000F04D12649B6
:103050004FF48D70FEF77CF83046FFF7CDFF044645
:1030600000283CD12C2507FB058B4FF48E71CBF843
:1030700014A0CBF80890CBF820008BF8280030681B
:10308000FFF758FD336801229A6030685946FFF710
:1030900059FDDBF804305D461BBB3068DBF814409B
:1030A0002B6A9C4211D83368D3F81C21002AFBD02C
:1030B0000122DA6000202C2303FB078300225A61DF
:1030C000BDE8F88F95F828303BB9D0F81C31002BBB
:1030D000F8D05946FFF736FDE2E70F20EBE7112065
:1030E000EEE72046ECE700BFD5EB000078120020A9
:1030F0002DE9F843464C06792C2303FB064305468D
:1031000093F82A30012B8846174604D041494FF4E2
:10311000B670FEF71DF8B8F1000F04D13D4940F23A
:103120006D10FEF715F827B93A494FF4B770FEF75E
:103130000FF82C2303FB0643596821B12B684FF489
:103140000172C3F808232C2303FB06439A6952B18A
:10315000DA69002A3FD021B12B684FF40172C3F81D
:103160000423112035E09F61C3F80C805A62174692
:103170002C2303FB0643DF6193F829301BB912B9F6
:103180002846FFF7EEFC2C2707FB06482868D8F8EE
:103190000430A3BB4FF4A2714746FFF7CBFC28686D
:1031A000D0F82421D0F80811D0F84431194316D1B1
:1031B000002AF4D000232C2101FB06440021A16148
:1031C00012BB1BBB94F829102B680122A9B11A600D
:1031D0000020BDE8F883C3F810800122C8E753EA55
:1031E0000209E8D13946FFF7F3FCD8F82430D8F8C3
:1031F00018209A42D3D84A46DCE75A60E8E74FF4F1
:103200000173C0F80433E3E70320E2E70F20E0E7AF
:1032100078120020D5EB00000023435082B04358C1
:103220000193019B02B070471FB50123CDE9012135
:103230008DF80030D0E900136846984705B05DF876
:1032400004FB000010B50368292B044604D9074984
:1032500040F2CD10FDF77CFF23681F2B83BF03F0E6
:103260001F03236002484FF0A04010BD6CDB00003C
:103270000003005007B5019001A8FFF7E3FF019B91
:1032800003F5E073022240F8232003B05DF804FB4D
:103290007FB5D0F8246105460C46002E5CD04FF473
:1032A0009271FFF7B9FF02238DF80030D0F8803417
:1032B000C0F880340393D0F83C350293E36801935F
:1032C0000023C4E906336846D4E900139847D5F8CB
:1032D00044317BB14FF4A2712846FFF79DFFA369EB
:1032E00043B10023C4E90633E268D5F83C15204613
:1032F000FFF79AFFD5F82031ABB14FF49071284613
:10330000FFF78AFF0123EB60636963B1D5F84C25B1
:1033100002920023A2688DF8003063610192D4E923
:10332000001368469847D5F858319BB14FF4AC71FB
:103330002846FFF771FF636963B1D5F84C25029207
:103340000023A2688DF8003063610192D4E9001374
:103350006846984704B070BDD0F81031002BB6D045
:103360004FF48871FFF758FFD0F83C35A1699942B6
:10337000ADD1E369E26873B1D0F8003223F02003E5
:10338000C0F80032E369A3612369E360E661204687
:10339000FFF74AFF9BE7A361F9E7000001490248F4
:1033A000FFF776BFA4120020002000400149024828
:1033B000FFF76EBFC8120020008002402DE9F743DE
:1033C000054691460C4619B97249CF20FDF7C0FE5B
:1033D00095F80480704E242303FB086393F8203093
:1033E000002B40F0D3806D4B286853F82810FFF76E
:1033F000D5F80746002840F0CB8023685A1C13D02C
:1034000001A80193FFF71EFF019A01239340C0F822
:1034100008352368019301A8FFF714FF019B03F50A
:10342000E073032240F823206368581C09D001A8E8
:103430000193FFF707FF019B03F5E073002240F8BB
:1034400023202B68A269C3F82425217D637D2A6887
:103450000B43C2F86C35D4E900122B68C3F80C1585
:10346000C3F81425237D012B2AD1A368591C09D048
:1034700001A80193FFF7E6FE019B03F5E07300222C
:1034800040F82320E3685A1C13D001A80193FFF7EA
:10349000D9FE019A01239340C0F80835E3680193EF
:1034A00001A8FFF7CFFE019B03F5E073032240F86C
:1034B0002320D4E902212B68C3F80815C3F810258E
:1034C000242303FB08F3F218C2F804902269F25097
:1034D000B9F1000F48D0286894F81C90304A4FF496
:1034E0008871FFF799FE28684FF49071FFF794FEFA
:1034F00028684FF49271FFF78FFE28684FF4A2718D
:10350000FFF78AFE28684FF4AC71FFF785FE2B6841
:10351000C3F804232C68B9F1070F44F3073403D927
:1035200020496B20FDF714FE002CB6BF1E4B04F1A2
:10353000604404F00F044FEA49195FFA89F9AABF01
:1035400004F5614403F8049084F800932B6843F376
:103550000733002B08DB0122590903F01F0302FA8D
:1035600003F3124A42F821302B680822C3F80025E1
:10357000242303FB08660023C6E906337361012395
:1035800086F82030384603B0BDE8F0830827F9E715
:103590001127F7E7AEEC0000A412002028FF00007E
:1035A0001003420043EC000014ED00E000E100E0F5
:1035B0002DE9F843364D06790268242303FB0653B0
:1035C00004465B68ABB1334BC2F80833036843F37E
:1035D0000733002B0DDB5A09012103F01F0399402B
:1035E00002F120032C4A42F82310BFF34F8FBFF3A0
:1035F0006F8F2268D2F8003223F02003C2F8003225
:10360000236801225A6020684FF4AC71FFF704FE72
:103610002368DA602368D3F85821002AFBD00022FF
:10362000C3F8002523684FF0FF32D3F80C05D3F818
:103630001495D3F80875D3F81085C3F80C25C3F892
:10364000142523689042C3F80825C3F8102501D03B
:10365000FFF710FEB9F1FF3F02D04846FFF70AFE20
:10366000B8F1FF3F02D04046FFF704FE7B1C02D0BA
:103670003846FFF7FFFD2068FEF7B2FF242303FB67
:103680000655002385F820306B60BDE8F88300BF45
:10369000A41200201003420000E100E00279044B74
:1036A000242101FB02335869003818BF01207047FC
:1036B000A41200202DE9F047394F90F804A02423EC
:1036C00003FB0A73054693F82030012B8846914688
:1036D00004D0344940F22D10FDF73AFDB8F1000F47
:1036E00004D130494FF49770FDF732FDB9F1000F66
:1036F00004D12C4940F22F10FDF72AFD2B79012B24
:1037000002D8B9F5803F04D326494FF49870FDF7ED
:103710001FFD08F06043B3F1005F3AD12846FFF780
:10372000BDFF0446002836D1242606FB0A764FF456
:103730009071C6F81490C6F808802868FFF76CFDF1
:103740004FF4AC712868FFF767FD2B687269B168A8
:10375000C3F84415C3F848252B6801229A607368A2
:10376000DBB92B68D3F82021D3F858010243F9D0F4
:1037700068B90122DA602A68D2F85831002BFBD0F0
:10378000242303FB0A7700237B61BDE8F0870F2029
:10379000F6E71020F9E71120F7E72046F5E700BF2C
:1037A000A4120020AEEC00002DE9F8434B4D90F838
:1037B0000480242303FB0853044693F82030012B94
:1037C0000F46164604D046494FF4C070FDF7C0FCC2
:1037D00027B9434940F28110FDF7BAFC26B94049A8
:1037E0004FF4C170FDF7B4FC2379012B02D8B6F574
:1037F000803F04D33A4940F28310FDF7A9FC07F05B
:103800006043B3F1005F67D1242303FB0853596879
:1038100021B123684FF40472C3F80823242303FB67
:1038200008539A695AB1DA69002A43D021B1236852
:103830004FF40472C3F804231120BDE8F8839E619D
:10384000DF609146242303FB08584FF48871C8F8C1
:103850001C202068FFF7E0FC20684FF4A271FFF7FE
:10386000DBFC2368C3F83475C3F838652368B9F105
:10387000000F24D101221A6026792368242202FB3A
:103880000652526812BBD3F81011D3F84421D3F872
:103890002401114302D10028F5D00A46242303FB5A
:1038A00006550023984218BF03209A42AB6118BF07
:1038B0000F20C2E71F6132464FF00109C2E7D3F87B
:1038C000002242F02002C3F80022D5E74FF4047230
:1038D000C3F804230020B0E71020AEE7A4120020B4
:1038E000AEEC000007B501A801F0E6FD20B901909B
:1038F000019803B05DF804FB019B002BF8D1012374
:103900000193F5E708B590F8803033B1074B084ACA
:103910004FF4F871074803F091FC02F05AFF20B908
:10392000054B034A4FF4FB71F4E708BD23ED00009B
:1039300030FF00003BED00000FEF00007047FFF785
:10394000E1BF70B504460D461646FFF7CBFF324681
:10395000034629462046FFF7F2FF70BD70477047C7
:10396000084609B1FFF7CEBF7047F7B505461646C2
:103970001F460C4651B1FFF7B5FF00903B4632465B
:1039800021462846FFF7ECFF03B0F0BD0846F4E7F8
:103990007047704770477047704700F1804000F5EE
:1039A0008050002382B0036003680193019B02B042
:1039B00070470000034B186808B190F8800000F0D1
:1039C00001007047FC12002008B5FFF7F3FF08B1B3
:1039D000014B186808BD00BFFC12002000BF00BFEB
:1039E00000BF00BF00BF00BF7047000008B5084B14
:1039F000D3F85035DBB243B9064BFFF7EFFFD3F8EE
:103A00003C01003818BF012008BD0120FCE700BFC1
:103A10000010004000700140134B144AC3F84825C1
:103A200000F1804000F58050C3F84C0521B102F54B
:103A3000FD424832C3F82C290D4AC3F8402502F54F
:103A4000AF3202F59672C3F8442529B1D3F80028A5
:103A500042F08002C3F80028034B8022C3F80425FB
:103A60004022C3F80425704700F001403C7101403A
:103A700010110040074B01221A61D3F8002222F4F2
:103A80008072C3F8002203F5B0334FF48072C3F89C
:103A90000825704700900040034B1B781BB1034B77
:103AA0001022C3F808237047EC12002000100040D9
:103AB00010B5044602F0B2FCB0F5C07F0B4A12D339
:103AC000C009811EB1EBD41F4FEAD41396BFA4EBFB
:103AD000C1140024C31E1460054AC3F31403C2F8C2
:103AE0006436012010BD14600020FBE7F0120020B6
:103AF0000010004013B501A801F05EFC9DF8050020
:103B00009DF8044001F094FC9DF807309DF80620D4
:103B10001B0643EA02432343034A43EA0023C2F855
:103B20006C3602B010BD00BF0010004008B501F0B7
:103B3000A7FCBDE80840002002F084BC08B5054B96
:103B4000D3F8480500F07F0001F05DFC404240B230
:103B500008BD00BF0010004038B50446FFF7EEFF77
:103B600023782344054613F8010C01F053FC02B2FC
:103B70009200FF2A28BFFF2229462046D2B2BDE884
:103B8000384002F009BE000038B5074B1D680446F6
:103B90000146284601F04AFA28B121462846BDE8E8
:103BA000384002F0FFBD38BDF412002010B50446C5
:103BB00001F084FB204602F0F1FDBDE8104001F069
:103BC000ADBA10B5044601F079FB2046FFF7C4FFFB
:103BD000BDE8104001F0A2BA144B4022C3F80825FA
:103BE0008022C3F808254FF48072C3F80825104AD4
:103BF00001211161D3F8000820F08000C3F800080B
:103C00000020C3F82C091161D2F8003223F480732C
:103C1000C2F80032074B1B783BB1074B4FF45052B0
:103C2000C3F80823C3F800021961704700F001408F
:103C300000900040EC12002000100040134908B52D
:103C40004023C1F808358023C1F80835FFF712FF7B
:103C5000D1F8003823F08003C1F8003800220C4B63
:103C6000C1F82C291B787BB10A4B0A21C3F8081331
:103C70000121C3F800221961C3F84426BDE80840B9
:103C80004FF4AE70FFF789BE08BD00BF00F00140E1
:103C9000EC12002000100040104908B54023C1F884
:103CA00008358023C1F80835FFF7E4FED1F8003865
:103CB00023F08003C1F800380022094BC1F82C29F9
:103CC0001B784BB1074B4FF40041C3F80813C3F8FE
:103CD000002201229A621A6108BD00BF00F0014073
:103CE000EC12002000100040104908B54023C1F834
:103CF00008358023C1F80835FFF7BCFED1F800383D
:103D000023F08003C1F800380022094BC1F82C29A8
:103D10001B784BB1074B4FF4C021C3F80813C3F80D
:103D2000002201221A631A6108BD00BF00F00140A1
:103D3000EC1200200010004008B50E4B0121196163
:103D4000D3F8002222F44072C3F800220A4A127803
:103D5000043A8A4206D9094B094A0A4840F29E3180
:103D600003F06CFA196120B1074B4FF48072C3F86D
:103D7000082508BD00900040EE12002035ED00003F
:103D8000A4FF0000C4ED000000F0014010B5104C8D
:103D90004023C4F808358023C4F808350120FFF714
:103DA000CBFFD4F8003823F08003C4F80038002299
:103DB000084BC4F82C291B7843B1074B0749C3F8BB
:103DC0000813C3F8002201221A631A6110BD00BF54
:103DD00000F00140EC120020001000400200040836
:103DE000F8B504460F46164601F00AF9054680B1BB
:103DF0004C4B1B78092B00F28C80DFE803F0050C9C
:103E00000F2054545E636C75022F02D0042002F020
:103E100019FB2846F8BDFFF73FFEFAE7424B1B7837
:103E20005B0709D5002C7BD0FFF7D6FE002EF0D023
:103E3000062002F0B3FCECE7FFF7CEFEE9E7002C2A
:103E40006ED03A4B4022C3F808258022C3F80825DB
:103E50004FF48072C3F80825354A01211161D3F867
:103E6000000820F08000C3F800080020C3F82C09E7
:103E70001161D2F8003223F48073C2F800322D4B66
:103E80001B7833B12C4B2D4AC3F80823C3F800022A
:103E90001961002EBDD02A4B1868002380F88030AD
:103EA000FFF75AFEB5E7002C3AD0FFF76FFF002E60
:103EB000AFD00620FFF768FEABE7002C30D0FFF74D
:103EC000BDFEF4E764B3FFF7E7FE002EA1D00120AA
:103ED00002F06CFC9DE71CB3FFF706FF002E98D0A4
:103EE000012002F067FC94E7104B11494022C3F80F
:103EF00008258022C3F8082501220A614FF4807149
:103F0000C3F808150B4B1B78002B82D00A4B1A61A3
:103F10007FE70C4B0C4A0D4840F2BC5103F08EF980
:103F2000254676E7EE120020ED12002000F0014059
:103F300000900040EC120020001000400200000839
:103F4000FC12002035ED0000B5FF0000C4ED0000BC
:103F5000054B002282B0C3F83C21D3F83C310193D9
:103F6000019B02B0704700BF00700140F8B52B4BB9
:103F70001B7807460D46164613B900242046F8BDA7
:103F8000047801F07CFD630100283BD103F1EE00D1
:103F90000DB1A83080B202F017FA04460028ECD028
:103FA00001F0D0F91E4B1F4AC3F80C05002D08BFC5
:103FB0004FF4A012C3F804754FF4B670C3F8002292
:103FC000FFF7EBFC0DB34FF4A470FFF7E6FC164AC5
:103FD0001649134F4FF48270FFF7DFFC0B7842F065
:103FE000020223F00803AD000B7005F0FC00C7F8D7
:103FF00004230121FFF7ACFFFFF70EFD46B90123B3
:104000003B61BBE703F24E40C2E74FF00062DFE7DF
:10401000FFF7ECFC0028F2D0B0E700BFEC12002064
:10402000001000400038140000000408ED120020C9
:1040300038B5144B1B780546EBB1AE2002F0C4F93D
:10404000C8B1114C4FF42053C4F800324FF4A4709F
:10405000FFF7A3FC4FF4A270FFF79FFC4FF4C023BF
:10406000C4F8043301210420FFF772FFFFF7D4FCEA
:1040700015B90123236138BDFFF7B8FC0028F8D03B
:10408000F9E700BFEC12002000100040144938B5D9
:104090004023C1F8083518B1124B5222C3F8002250
:1040A000114B124A0F4C01251D618023C1F80435C4
:1040B00013784FF4947023F007031370FFF76DFC2F
:1040C0001823C4F86035FFF743FF40230848C1F8C0
:1040D000043501F0DDF9FFF789FC00B9256138BD31
:1040E00000F001400010004000900040ED12002060
:1040F0003011004038B5044601F024F9084D002184
:10410000C5F80C050846FFF723FFFFF785FC14B937
:1041100001232B6138BDFFF769FC0028F8D0F9E7CF
:104120000010004038B5114B1B780546C3B1104B49
:104130001868FFF7BDFC98B10E4C4FF40042C4F86C
:1041400000224FF49E70FFF728FC0121C4F80423DD
:104150000420FFF7FDFEFFF75FFC15B90123236183
:1041600038BDFFF743FC0028F8D0F9E7EC12002037
:10417000F0120020001000400B3808B5C3B20F2B1E
:1041800006D9094B094A0A4840F2052103F056F8BE
:1041900000EB800000F66510064B80B2A0F51660BB
:1041A000C3F8080508BD00BF52EE0000E2FF0000A2
:1041B000C4ED000000100040084B0222C3F880202C
:1041C000BFF34F8FBFF36F8FC3F88021002283F8B6
:1041D0000123BFF34F8FBFF36F8F704700E100E003
:1041E00008B5064B1B7833B102F018F93B2894BF91
:1041F0000020012008BD0120FCE700BFEC120020D8
:1042000008B501F059F820B1FFF7EAFF10B900F046
:10421000F3FF002008BD000038B5464B1B7805466B
:10422000002B7FD0444A137823F01703137001F05A
:1042300089F8424AC2F80C05FFF7BCFB0446002887
:1042400071D0FFF7C1FB3E4BC2F80405C2F8003243
:104250001823C2F860354FF49A70FFF79EFB4FF4B5
:104260009470FFF79AFB4FF49870FFF796FB35496F
:1042700035484FF45053C2F80433D1F8003243F4B8
:104280008073C1F800320123C1F840358223C1F8A0
:104290004435FFF75DFE2D4B2D4AC3F84825C3F882
:1042A0004C0500F5F030C3F82C09C3F85025C3F8CD
:1042B0005415D3F8002842F08002C3F80028254A9C
:1042C000C3F8402502F5AF3202F59672C3F84425D3
:1042D0008022C3F804254FF48072C3F80425A0F5AA
:1042E000EF304022C3F80425D43801F0D1F8E5B905
:1042F000124B01221A61ACB901F0A2F8164B1860FA
:10430000FFF758FB70B1FFF75FFB0C4B0C4AC3F88B
:104310000405C3F80022D3F85025D2B2022A04BF04
:1043200001229A6038BD522390E7FFF75FFB002817
:10433000DED0E0E7EC120020ED120020001000407B
:1043400052000800009000400410004000F00140BE
:104350003C71014010110040FC1200202DE9FF418A
:104360000446002800F0AF8002F058F83B2840F2E5
:10437000FB807F4E337803F0FF07002B40F0F48082
:104380007C4C01250F233946C4F8FC7F0D22C4F86C
:10439000FC5F6846C4F8103502F0FEFE08238DF875
:1043A00000307F238DF808309DF807309DF80120FC
:1043B0008DF806505B0743EA02239DF8022043EA8A
:1043C00002439DF8032043EA02539DF8042043EA88
:1043D000825343F0C0634FF0020843F008038DF8A6
:1043E0000580C4F814359DF809309DF80C201B0297
:1043F00043EA42639DF80A2043EA02439DF80B20FA
:1044000043EA026343F07F03C4F8183540F2022305
:10441000C4F85056C4F83435574BC4F83835FFF754
:1044200069FB564BC4F84476C4F8483600F084FF64
:10443000FFF7A2FE524B83F80173C3F88081D4F8D2
:10444000003233B14F4B504A40F22C714F4802F0CA
:10445000F5FE357001F006F84D4B1B78092B2DD871
:10446000DFE803F0822C052C0B142C171D230020F1
:1044700004B0BDE8F041FFF7CFBE00220121454B5B
:10448000186804B0BDE8F041FFF770BD0022114686
:10449000F5E7002004B0BDE8F041FFF743BE00207F
:1044A00004B0BDE8F041FFF7C3BD3378002B5BD00B
:1044B000002004B0BDE8F041FFF71CBE364B324A85
:1044C00040F25371C2E72A4B1A783AB3187001F0E0
:1044D0007DFF38B1FFF770FE264B0122C3F8FC4F79
:1044E000C3F8FC2F00F0CCFF002202210120FFF7CF
:1044F00077FC20B9294B2A4A40F27171A6E7244B78
:104500001A78092A2BD8DFE802F009050E162020B8
:104510002009090900221A70FFF708FB04B0BDE862
:10452000F04101F04FBF1F4B1B785B07F6D505200C
:10453000FFF73CFBF2E702221A701B4B18680023BE
:1045400080F88030FFF73DFBE8E702221A7000F0A8
:10455000B5FE0420FFF718FB00F0E0FDDEE70E4B90
:104560000F4A4FF4F36171E704B0BDE8F08100BF7A
:10457000EC1200200010004021100100000700FF95
:1045800000E100E071EE0000EEFF0000C4ED00006D
:10459000EE120020F412002035ED00000FEF0000B5
:1045A000D1FF0000ED120020FC1200202DE9F8439D
:1045B000074688461546994600F07EFE0446F8B147
:1045C000114E3378022B06D03378032B03D0FFF73C
:1045D00007FE40B900240DB12046A84700F00CFEAC
:1045E0002046BDE8F8834A4641463846FFF7F8FBC7
:1045F0000028EFD0022301203370FFF70DFEEAE719
:10460000002DEDD0A847EBE7EE1200202DE9F04792
:10461000099E9DF8209080468A4617461D46FFF762
:10462000EFFD044630B3012251464046FFF7D8FB68
:10463000044640B900240EB12046B04700F0DCFD2E
:104640002046BDE8F087DFF83880022388F8003084
:104650000A4B0122294638461F60FFF787FCB9F153
:10466000000F01D00028E5D0C5F10505EDB288F8AE
:104670000050E0E7002EE3D0B047E1E7F41200205D
:10468000EE12002010B50446FFF7BAFD012184F8B0
:10469000801058B1204B1B7833B1204B1B78022B74
:1046A000DAB205D0062A1FD000F0A6FD012010BD09
:1046B0001B4AD2F85035DBB2022BF5D1D2F80032CA
:1046C000522B06D0174B184A40F62E41174802F0DD
:1046D000B5FD174B1C60FFF777F9164BC2F80405C0
:1046E000C2F800329160DFE70D4AD2F85035DBB2F4
:1046F000022BD9D1D2F80032122B04D00E4B0A4A29
:1047000040F63D41E2E70A4B1C60FFF75DF90B4BB9
:10471000C2F80405E4E700BFEC120020EE1200200E
:104720000010004097EE000081FF0000C4ED000083
:10473000FC12002052000800BBEE0000120008002E
:104740002DE9F04F8DB000F0D7FCAA4BD3F804232D
:10475000950728D5D3F804312BB34FF48270FFF7B7
:104760001CF9A54B1A78052AD3B209D8032B0CD80B
:1047700038D0A24BA24A40F68521A24802F05EFD45
:10478000062BF6D100F07AFC0DE09F4B1C6820460A
:1047900000F060FC10B12046FFF7E1F89B4A137867
:1047A00043F008031370934ED6F804335C055CD5D0
:1047B000D6F82831002B58D04FF49470FFF7EDF85D
:1047C0008D4B1B78022B40F00B81D6F86075C7F338
:1047D000C707022F8DF8187009D88D4B8D4A4FF4FA
:1047E000FA61CAE78C4B1868FFF7A8F8DBE7D6F840
:1047F0003431002B39D1854C237813F0010815D1C1
:10480000DFF8189243F00403D9F80000237006A9DA
:1048100001F018F80546002840F0C0809DF81830D7
:104820009F4200F0B680DB00C6F860354FF001080B
:104830002378980719D4B8F1000F16D0774E306856
:10484000057801F01CF96B01002840F0C08003F1ED
:10485000C00001F0B9FD002800F0BC80237830686A
:1048600043F00203237000F007FC624BD3F80423EB
:10487000910412D5D3F834317BB14FF49A70FFF71D
:104880008CF85D4B1B78022BDCB240F0AE80002030
:10489000FFF7FCFB2046FFF789F9564BD3F80423BA
:1048A000D20440F10081D3F83031002B00F0FB80BE
:1048B000514E4FF49870FFF770F83378022B40F0A8
:1048C0009D81524F554C3B78256843F010033B7057
:1048D000DB0740F1A980206801F0D1F8002800F042
:1048E000AC8000F019FD002800F0A780206801F0DE
:1048F00051FB494B1860002800F09F803D4A484911
:10490000C2F804054FF4A013C2F800324FF4AA70A5
:10491000FFF743F8434BC3F858154FF40071C3F841
:104920005C25C3F80415A3F5B0330121D3F8440581
:10493000D964D3F84C15D3F84035884205D998424C
:1049400040F29F80994200F29C80FFF747F8D2F82E
:104950005035DBB2092B00F09480D2F85431002B93
:1049600040F08F80226882F880302E4A4FF4007128
:10497000C2F80815C2F85835C2F85C35C2F83439A7
:10498000FFF72AF90120FFF747FC2846FFF719F93E
:1049900089E0237843F00103237047E7092810D109
:1049A000FFF71AF90120FFF737FCD9F800305B78E0
:1049B00003F00703022B3FF43BAF2846FFF7F6F85E
:1049C00036E700F0A1FC00287FF430AFE8E703F5FC
:1049D00038703EE7FFF700F9052001F0DFFE44E7FD
:1049E000064B074A40F69A21C7E6044B044A4FF4A7
:1049F0002B61C2E600100040EE12002035ED0000F1
:104A000075FF0000C4ED0000F4120020ED1200203C
:104A1000E3EE000060FF0000F8120020FC1200200E
:104A20004491004000F0014000F06EFC002800F0CE
:104A3000DC803B78DF073FF54EAF0120FFF726FB18
:104A40006B7803F00703022B00F0BD80236800227F
:104A500083F8802000F0F4FC2060FEF7ABFF002814
:104A600093D0FEF7B1FFBA4BBA4AC3F80405C3F8B6
:104A70000022D3F85025D2B2022A04BF01229A6044
:104A800083E7B34A032333704FF45053C2F808331B
:104A90004FF4B670FEF781FF4FF48270FEF77DFF92
:104AA000AD4BC2F80433AA4CD4F804331D0140F1D5
:104AB0001081D4F86C31002B00F00B81A74EA84F69
:104AC0004FF4B670FEF769FF3278032AD3B200F0D4
:104AD0009A80043B012B00F273813B78180740F168
:104AE000F880A04F386800F0CAFF0546002800F0A3
:104AF0005181FEF75FFF9C4A9C4B051E08BF1223A5
:104B00004FF04001C2F80815C4F8003203D0FEF798
:104B10005BFFC4F804054FF48670FEF73EFF944B2C
:104B2000C4F808334FF48270FEF737FF0A23C4F845
:104B300004330020FFF700F98B498E4BC1F848354C
:104B4000A3F5B033A3F59C73C1F84C3503F5F033EE
:104B5000C1F82C39FFF7FCF98023C1F80435402354
:104B6000C1F8043506233370FEF740FF08B901236E
:104B70002361ADB900F064FC7F4B1860FEF71AFFAB
:104B800070B1FEF721FF724B784AC3F80405C3F8F1
:104B90000022D3F85025D2B2022A04BF01229A6023
:104BA0003A68937803F03003202B00F092804FF4A2
:104BB000AE70FEF7F2FED378654A1B0643F400732D
:104BC000C2F8443685E000F09FFB00287FF43EAF3A
:104BD0005F4B604AC3F80022D3F85025D2B2022AB4
:104BE0007FF461AF01229A605DE7FEF7F5FF0120D7
:104BF000FFF712FB0420FEF7D9FF54E75F4B604A32
:104C000040F6C421B9E558495E4ADFF86C914FF08F
:104C1000400B4FF0010A5223D9F80080C1F808B5C3
:104C2000C2F810A0C4F800321823C4F860354A4B0B
:104C3000C4F808334FF49A70FEF7AFFE4FF4947047
:104C4000FEF7ABFE4FF49870FEF7A7FE4FF45053FB
:104C5000C4F804334FF40073C2F810A00025C1F863
:104C600008358023C1F85855C1F85C55C1F834594E
:104C7000C1F80435FFF76CF94348C1F804B500F0FA
:104C800007FCFEF7B3FE08B9C4F810A0D9F800304D
:104C900083F8805000F0D4FBC9F80000FEF78AFECC
:104CA00070B1FEF791FE2A4B2A4AC3F80405C3F8F7
:104CB0000022D3F85025D2B2022A04BF01229A6002
:104CC000022333703B78404623F007033B70FEF726
:104CD00078FF1F4AD2F80433190740F1B280D2F8A6
:104CE0000C31002B00F0AD801C4E4FF48670FEF7A7
:104CF00054FE3378062B40F0FF801F4DD2F85C3114
:104D00002C6823B1D2F80034DB0700F1E980154BA1
:104D10001868837803F03003202B69D1A37803F05F
:104D20003003202B64D1637803F00703022B5FD19B
:104D3000074BD3F80034DF075AD5694600F039FF36
:104D4000002842D1114B124A4FF4206115E500BFF3
:104D5000001000405200080002000008EE1200207F
:104D6000ED120020F412002000F0014012000800B3
:104D7000020004083C710140FC12002035ED0000E7
:104D800075FF0000009000403011004009EF000066
:104D90004BFF0000FEF7FAFF022301203370FFF7FC
:104DA0003BFA3C6800F08AFA204600F03DF92B46B9
:104DB0002A462946204601F0F3FC00F0AFF988E7C7
:104DC000884B894A40F6DC21D7E406A9204600F04A
:104DD000F0FE68B1039858B1079949B19DF81530B4
:104DE0009DF82C209A4203D102F000FB002877D0D6
:104DF00000242546FEF722FF022701203770FFF727
:104E00000BFA002C72D0FEF799FE2B782B44064645
:104E100013F8010C00F0FEFA744B1F68044600F012
:104E20004DFA384600F000F923B29B00FF2B28BF53
:104E3000FF23DBB232462946384601F0B1FC00F0D0
:104E40006DF96B4BD3F80423D00610D5D3F810318D
:104E50006BB168494FF48870FEF79FFD0B78012B0A
:104E60004FD1FEF719FE00230B70FEF75FFE604B7B
:104E7000D3F80423910318D5D3F84431ABB14FF4E0
:104E8000A270FEF78AFD5B480378082B3ED1FEF73F
:104E90002BFF022303700120FFF7BEF900F00EFA8A
:104EA000012001F085FC00F039F9514BD3F80423BF
:104EB00052034BD5D3F84831002B47D04D4C4FF41B
:104EC000A470FEF76AFD2278052AD3B24FF00205DE
:104ED00021D8032B2DD8434B434A40F62D314CE4C7
:104EE0002D68002385F88030012483E700F0E6F97F
:104EF0003846FEF749FEA2E73A4B3B4A40F6EF211F
:104F00003BE4384B384A40F6023136E4354B364AFA
:104F100040F6153131E4082BDDD10120FEF7E4FE27
:104F20002570FFF779F900F0C9F9002001F040FC85
:104F30000AE0FEF72BFF01202570FFF76DF900F066
:104F4000BDF90120FEF720FE00F0E8F8284CD4F867
:104F500004331B041BD5D4F83C31C3B1254E4FF4A8
:104F60009E70FEF71AFD3378072B34D1224DD4F80A
:104F700068362A78DBB2934238BF13462B701F4B3A
:104F8000186860B1FEF794FD30B1012363620DB083
:104F9000BDE8F04F00F030B9FEF76CFDF7E700F028
:104FA000CBF9FFF7E9F8FEF777FE01200223337013
:104FB000FFF732F9287800F034FA044600F07EF961
:104FC00020B28000FF2828BFFF20C0B201F0ECFB18
:104FD00000F0A4F8DBE7034B034A4FF43461FFF71A
:104FE000CCBB00BF35ED000075FF0000F4120020BF
:104FF00000100040EE120020EF120020F0120020FE
:10500000F8B5084F05460E46002457F8043B33B167
:1050100031462846984718B10134042CF5D10120B7
:10502000F8BD00BF1C00010000F090BEF8B5084FAD
:1050300005460E46002457F8043B33B13146284656
:10504000984718B10134032CF5D10120F8BD00BFF9
:105050001000010070B5074E0546002456F8043BC9
:105060002BB12846984718B10134032CF6D1012002
:1050700070BD00BF0400010000F0CEBB00F082BE96
:1050800008B5174AD2E84F3FDBB2FF2B05D1154BCD
:10509000154A16487B2102F0D1F80133DBB2C2E891
:1050A000413F0029EED101F0F1F901F095FD012118
:1050B000084601F099F938B10D4B0222C3F880205F
:1050C000BFF34F8FBFF36F8FBFF34F8FBFF36F8F60
:1050D000084A13780133DBB21370012008BD00BF0A
:1050E0000213002016EF0000F900010026EF000077
:1050F00000E100E00313002008B5FFF7C1FF28B965
:10510000034B044A0448E52102F098F808BD00BFAB
:10511000C0EF0000CC00010026EF000008B50B4BEB
:105120001A78120606D50A4B0A4A4FF480710A48CB
:1051300002F084F8094A127822B9094B054A40F274
:105140000111F4E7FF221A7008BD00BF011300200F
:10515000D9EF00006300010026EF000002130020D9
:1051600009F0000008B513494A68C2F30803EBB11F
:1051700012F4F87F06D1104B104A114840F2171173
:1051800002F05CF8DBB2A3F11000C2B200064BBF24
:1051900003F00F0302F16043043B03F561434ABF90
:1051A000C91893F80003087E400908BD4FF0FF308E
:1051B000FBE700BF00ED00E030F000002C00010034
:1051C00026EF000008B50A4B1B781BB9BDE8084064
:1051D000FFF756BFFFF7C6FF431C064B1B7808BFFF
:1051E0007F205BB240B29842F0D0002008BD00BFE3
:1051F00002130020011300202DE9F041244D2B78EB
:1052000003F0FF046BB1DFF8AC80224E98F8007019
:10521000012CFFB21AD133784BB11F4B1F4A9E218C
:1052200002E01F4B1D4A95211E4802F007F834701A
:1052300001F02EF92146204601F0D6F810B11A4BA4
:1052400002221A6001F0DCFC00233370631EDBB223
:10525000D5E84F2FD2B2944203D0144B0F4AAC2161
:10526000E2E7C5E8423F002AF2D1012C0ED101F05D
:105270001FF918B998F800309F4207D0FFF7A2FF36
:105280000028C3D10A4B054AB921CDE7BDE8F0811A
:1052900002130020001300206AF00000B600010095
:1052A00062F0000026EF000000E100E07DF0000069
:1052B0000FEF000003130020FFF784BF10B50C4C64
:1052C0002378FF2B05D00B4B0B4AF6210B4801F03E
:1052D000B5FF0B4B1B781BB90A4B074AF821F5E7C2
:1052E000FFF740FF431C08BF7F2040B2207010BD75
:1052F000011300208FF000008C00010026EF000059
:105300000213002009F00000024B587C00F001005D
:10531000704700BF04130020024B587CC0F34000CC
:10532000704700BF04130020024B587CC0F380007C
:10533000704700BF04130020014B587CC008704721
:1053400004130020F0B5144B587C93F9001085B07D
:10535000C00800F06DF9114B6A46044603F10807D6
:10536000154618685968164603C60833BB423246CC
:10537000F7D118689B883060072CB38009DC2B4676
:10538000002213F8010B41B28C4203DD01320E2AD8
:10539000F7D1082005B0F0BD041300201001010072
:1053A000004870470513002000487047091300208B
:1053B00000487047071300200149042202F044B856
:1053C0001113002008B501F041FD10F11D0F0FDB96
:1053D00010F1090F0EDB0A280EDD1E280EDD322823
:1053E0000EDD4628CCBF6FF002006FF0010008BD53
:1053F0000320FCE70220FAE70120F8E70020F6E7A7
:105400004FF0FF30F3E710B50446FFF7DBFF204411
:10541000C0B210BD10B50446FFF7D4FF201AC0B2C9
:1054200010BD10B50446FFF7CDFF201AC0B210BD65
:1054300010B50446FFF7C6FF201AC0B210BD000029
:10544000074A0023114692F8800018B103EBC313FA
:10545000C81870470133102B02F18102F3D1704755
:105460001613002008B5054B00221A7001F030FA1F
:1054700001F04EFABDE8084001F032BC2D1B0020BF
:1054800008B501F03FFABDE8084001F06FBC00002C
:1054900010B5044601F06AFA054B064AC3F8804588
:1054A000C3F88405C3F8482901229A6010BD00BFE3
:1054B00000F001400CF001402DE9F041064628B90A
:1054C000254B264A2648992101F0B8FE254B1B782A
:1054D00003F0FF088BB3244F01F04CFA7B68C51A28
:1054E000224B187828B3224B1968CB1711F580028C
:1054F000A5FB01EC05FB03CC43F1000311F5800F84
:10550000ACBF00210121B1EBDC7F4FEAD37417D08F
:10551000A41843F10001640844EAC17464424FEAEC
:10552000610161EB410114EB0E004CEB010108F04D
:1055300059F93B681D442D1A35604046BDE8F0819D
:10554000A41843F10001640844EAC17414EB0E008E
:105550004CEB6101EBE700BFEBF000001E01010026
:10556000FFF000002D1B0020301B00202C1B002012
:10557000281B0020F7B501A801F0DAF900284AD06D
:10558000274E284C284D01F0FFFB3378009023B3C1
:105590002268019FC2F500113A446768D21B01449A
:1055A000101A90EA91522A784FEA91534FEAD1515A
:1055B0004BBF401A091890FBF3F391FBF3F31B491F
:1055C00042B10A68C2EBC202D31821D51A1F48BFE4
:1055D000DA1CD3100B6001232B7000233370BFF350
:1055E0005F8F02AB13E9030084E80300BFF35F8F12
:1055F0000123337001F08CF92B782068002B0CBF4D
:105600004FF480014FF0807101F09AFB03B0F0BDC0
:105610000433DB10DEE701F07BF901F061FBF5E715
:105620002D1B0020301B00202C1B0020281B0020DD
:105630000846704770B501F007FC0C4B0C4D1B7809
:1056400001249C4000260B4BAB60013C0440EE6003
:1056500000F0EEFFE4B24FF4A0735C4328606C608E
:1056600031462846BDE8704000F0EEBF541B0020D4
:105670003C1B0020B956000010B50C490B789BB1BB
:105680000B4A0C4813780133DBB213700278042AFA
:105690009CBF01320270032B4FF0000403D8FFF7C8
:1056A000C9FF204610BD0C700120FBE7381B00200D
:1056B000551B0020541B002007B50B4B1B787BB1FA
:1056C0000A4B0B4A0193002000901268012303212A
:1056D00001F077F820B903B05DF804EBFFF7CCBF19
:1056E00003B05DF804FB00BF381B0020F556000036
:1056F000501B002040B9054B1B78022B04D9044BEA
:105700000121186801F04EB8704700BF551B0020FA
:10571000501B0020012910B507D8074C38B10748A5
:10572000002100F0F5FF00232370012002E0207823
:1057300080F0010010BD00BF381B00203C1B002082
:10574000034B1B68834201D1FFF796BF01207047CE
:10575000501B002008B5094B1B6883420BD1084839
:1057600000F0E0FF28B1074B074A0848F92101F093
:1057700065FD074B1870012008BD00BF501B0020BD
:105780003C1B00204AF2000043010100ACF1000084
:10579000381B002013B50C4A531CD3E84F3FDBB233
:1057A0008DF807309DF80730834204D0BFF32F8F68
:1057B000002002B010BD541CC4E8431F002BEBD1E5
:1057C000BFF35F8F0120F4E7601B0020052910B5AF
:1057D000034615D00C4C6278022AD0B210D18BB19E
:1057E0000021FFF7D7FF10B10A2000F0D7FF637840
:1057F00033B1064B064A07484FF4027101F01EFD13
:10580000012010BD1846FCE7601B002085F3000056
:1058100066010100A5F2000038B5084B5B78022B49
:10582000044609D100F004FF054D23782860204686
:105830002B7100F024F9687138BD00BF601B002097
:10584000581B0020F0B50D4641782C788378032C46
:1058500089B0064601F0070734D10278053A7A2A62
:1058600000F28780052F03F030020AD020D8042FE1
:1058700001D0302A01D101246BE0102A03D0202A64
:1058800018D0002AF7D103F00C03082B0FD00C2BF3
:105890000CD0002BEFD1FFF747FD08B9002F58D1EE
:1058A00096F90230002BE6DA062300E00E232B7077
:1058B00000244EE04B07DED400F002F9FF28DAD0D6
:1058C0002870F5E702A900F074F90028D3D0029CF3
:1058D000DCB1FFF765FD02220146204601F086FD9E
:1058E00098B1254B02221D88ADF8045001A920462D
:1058F00001F07CFD48B15FBBFFF752FD0222694613
:10590000ADF8005001F072FD10BB9DF81C40022C58
:1059100009D0082C20D02CB3184B194A19484FF441
:10592000D97101F08BFC039DFFF742FD2246014631
:10593000284601F05BFD0028BAD00F4B1B88ADF85C
:105940000430224601A9284601F050FD0028AFD0BE
:105950000324204609B0F0BD039DFFF725FD224634
:105960000146F0E7FFF7E0FC0028A1D1002F9FD00F
:10597000EEE70924EDE700BF9201010035ED0000DC
:1059800083010100C3F30000807800F030031F2B77
:1059900083BF00F00100C0F10400C0B204207047D2
:1059A000807800F0C000802807D0C02807D00038D9
:1059B00018BF01204042C0B2704702207047082043
:1059C000704700008378024A03F00C03D05C7047F4
:1059D000940101008378990603F00C0203D4101E91
:1059E00018BF0120704740780C2A00F0400007D112
:1059F00003F0C001C02909D1B0FA80F04009704716
:105A00003F2BECD8002AF7D10038E9E73F2BE6D846
:105A1000F2E78378427813F0200002F0400205D1CB
:105A20003F2B14D9B2FA82F04009704703F00C0101
:105A30000C2905D103F0C001C02909D1002006E0DE
:105A40003F2BFBD9B2FA82F040090029EAD1704716
:105A50003F2BE7D8F2E7807800F0C000A0F1C00348
:105A6000584258417047807800F0C000A0F1800390
:105A7000584258417047807800F0010070474078E4
:105A8000C0F34010704710B50446FFF7A3FF20B1E4
:105A90002046BDE81040FFF777BF10BD10B58378F2
:105AA00013F00C03044609D0FFF7EDFF20B92046A0
:105AB000BDE81040FFF768BF0230C3B2184610BD02
:105AC00038B50146FFF760FF05460846FFF77AFF45
:105AD000FF28044607D00846FFF77CFF08B10235CF
