:10000000000002201175000039750000350E000057
:100010003D7500003F7500004175000000000000C4
:100020000000000000000000000000004375000018
:10003000457500000000000047750000497500008C
:10004000B36C0000094900008D2200007D2B0000E8
:100050008D2B00004B750000F120000041270000AF
:10006000A9290000B92900004B7500004B7500005C
:100070004B7500004B7500004B7500004B75000080
:100080004B750000610A00004B7500004B750000C5
:10009000FD0A00004B7500004B7500004B75000019
:1000A0004B7500004B7500004B7500004B75000050
:1000B000092700004B750000000000000000000050
:1000C0004B750000192700004B750000F92800004F
:1000D000617200004B7500004B7500004B7500000D
:1000E00029340000000000000000000000000000B3
:1000F000000000004B750000000000004B75000080
:1001000000000000000000000000000000000000EF
:1001100000000000000000000000000000000000DF
:1001200000000000000000000000000000000000CF
:1001300000000000000000000000000000000000BF
:1001400000000000000000000000000000000000AF
:10015000000000000000000000000000000000009F
:10016000000000000000000000000000000000008F
:10017000000000000000000000000000000000007F
:10018000000000000000000000000000000000006F
:10019000000000000000000000000000000000005F
:1001A000000000000000000000000000000000004F
:1001B000000000000000000000000000000000003F
:1001C000000000000000000000000000000000002F
:1001D000000000000000000000000000000000001F
:1001E000000000000000000000000000000000000F
:1001F00000000000000000000000000000000000FF
:100200000348044B834202D0034B03B118477047A5
:10021000F4090020F4090020000000000548064908
:100220000B1AD90F01EBA301491002D0034B03B104
:1002300018477047F4090020F4090020000000006E
:1002400010B5064C237843B9FFF7DAFF044B13B11E
:100250000448AFF300800123237010BDF80900208B
:10026000000000000814010008B5044B1BB104494C
:100270000448AFF30080BDE80840CFE7000000006D
:10028000FC09002008140100A3F5803A704700BF64
:10029000154B002B08BF114B9D46FFF7F5FF0021C2
:1002A0008B460F461148124A121A07F02FFB0C4BCF
:1002B000002B00D098470B4B002B00D09847002014
:1002C000002104000D000B4807F066F907F0B2F9B1
:1002D0002000290000F010F807F064F90000080081
:1002E000000000000000000000000220F8090020CB
:1002F000641E0020C57500001FB5204807F068FB8C
:1003000000F0B2F800F089F81D4807F061FB03F037
:100310004CFB1C4807F05CFB0B2003F033FB002078
:1003200003F08CFB012003F087FB4AF6CD3301A8D4
:10033000ADF8043003F035FB134807F049FB134ACE
:100340001068516802AB03C302A803F02CFB03F052
:1003500051FB80B10E480F4C07F03AFB44F001040A
:10036000022000F099F84FF47A754FF47A40A047D4
:10037000013DFAD1F4E70848EDE700BFECEA0000E0
:10038000FCEA000011EB000021EB000068EB00002C
:1003900034EB000080EB00004AEB000010B503686E
:1003A000292B044604D9074940F2CD1000F05CFD2A
:1003B00023681F2B83BF03F01F03034823604FF004
:1003C000A04010BD86EB00000003005007B501906F
:1003D00001A8FFF7E3FF019A01239340C0F80C3511
:1003E00003B05DF804FB07B5019001A8FFF7D6FF45
:1003F000019A01239340C0F8083503B05DF804FB6F
:1004000007B5019001A8FFF7C9FF019A01239340A6
:10041000C0F8183503B05DF804FB08B50E20FFF7EF
:10042000EFFF2520FFF7ECFF0B20FFF7E9FF0A2085
:10043000FFF7E6FF0E20FFF7C9FF2520FFF7C6FFF5
:100440000B20FFF7C3FF0A20FFF7C0FF1E20FFF7B6
:10045000D7FF0C20FFF7D4FF1E20FFF7B7FFBDE842
:1004600008400C20FFF7B2BF09490A4840F20233A6
:100470000B8041F604734B8004234B714FF47A7365
:100480000B81022300224B818A7102F00FB800BF5A
:10049000140A0020CCEB0000012870B524D00228FB
:1004A0003CD000284FD10E20274CFFF79CFF252081
:1004B00048F2F415FFF78AFF0B202580FFF793FF22
:1004C0000A20FFF783FF1E206580FFF78CFF0C20BA
:1004D000A580FFF77BFFE580BDE870401B491C4805
:1004E0000223012202F0BEB8174D2520FFF77BFF43
:1004F00048F2F4160E20FFF769FF0A202E80FFF75E
:1005000072FF0B20FFF762FF6E801E20FFF75EFF79
:10051000AE800C20FFF767FFEE80DDE70A4D0E206E
:10052000FFF761FF48F2F4162520FFF74FFF2E80FA
:100530000A20FFF758FF0B20FFF748FF6E801E20B0
:10054000FFF751FFE4E770BD200A00200000002003
:10055000CCEB000070B54FF0A0420446D2F8043551
:100560000F48104ED94301F4801103F48013C2F8F0
:100570000815C2F80C3507F02BFA00252378023B4A
:10058000AB4207DC084807F023FA2046BDE870407C
:1005900003F036BA615D304607F01AFA0135EDE72F
:1005A000D4EB0000DFEB0000E5EB000010B50368C2
:1005B000292B044604D9074940F2CD1000F054FC21
:1005C00023681F2B83BF03F01F03034823604FF0F2
:1005D000A04010BD86EB00000003005007B501905D
:1005E00001A8FFF7E3FF019A01239340C0F80C35FF
:1005F00003B05DF804FB07B5019001A8FFF7D6FF33
:10060000019A01239340C0F8083503B05DF804FB5C
:1006100038B5054D044645F001054FF47A40A8472A
:10062000013CFAD138BD00BFC0F200002DE9F34112
:100630003D4F3E4E0524022517F8013B019301A8CA
:10064000FFF7B4FF019B03F5E07340F8235001A8C6
:1006500016F8013B0193FFF7A9FF019B03F5E07337
:10066000013C40F82350E7D1152501A80195FFF77B
:100670009DFF019B03F5E07340F2032640F82360E1
:10068000132401A80194FFF791FF019B03F5E07388
:1006900040F2031840F823601C2601A80196FFF7DA
:1006A00085FF019B03F5E0731E2740F8238001A816
:1006B0000197FFF77BFF019B03F5E07340F8238070
:1006C0002846FFF798FF2046FFF795FF3046FFF7D3
:1006D00085FF3846FFF782FF1C20FFF77FFF1E20B3
:1006E000FFF77CFF4FF4FA70FFF792FF1C20FFF733
:1006F00082FF1E20FFF77FFF3220FFF789FF1C20BB
:10070000FFF76CFF1E20FFF769FF4FF4FA70FFF749
:100710007FFF1C20FFF76FFF1E20FFF76CFFFA2002
:10072000FFF776FFD8E700BF49F2000044F200006F
:100730007FB506460D46144672B601F043FA01F045
:1007400081F80028FBD1134807F042F944F2010375
:100750009E420AD044F202039E4215D1228861686B
:100760000D4807F035F9FFF761FFA16803910846CE
:1007700001F062FC236801950093024663680399C7
:10078000064807F025F9EEE72946054807F020F965
:10079000E9E700BFE8EB000001EC00001CEC000002
:1007A00046EC00002DE9F743054601F00BFA01F095
:1007B00049F80028FBD12A4C2A482B4B241AE4087C
:1007C00024049E6A44F00104002D44D0AA692749FC
:1007D000204601F0A9F9EB680193AB680093D5E9D5
:1007E00000232349204601F0B4F9EB690093D5E9D1
:1007F00004232049204601F0A0F91B4BDB6A99072E
:1008000003D51D49204601F08BF9DFF87C80DFF825
:100810007C900025012707FA05F3334206D058F8EB
:1008200025201AB14946204601F07EF901351A2DDE
:10083000F1D1320605D50C4B10495A6B204601F018
:1008400073F9330405D5084B0D499A6B204601F026
:100850006BF9FFF7EBFE0B49204601F061F9CCE79D
:100860005C1401000C14010000ED00E060EC0000DD
:1008700075EC0000AAEC000005ED000054ED00004E
:1008800074ED0000D2EC000050F2000049ED0000D1
:1008900070477047704770477047704738B50E4BC8
:1008A0001B680021986807F0CDF84FF40041002044
:1008B00000F06EFF18B1094A142100F0BBF8084D92
:1008C00000F08EFE0A2445F001054FF47A40A84757
:1008D000013CFAD138BD00BF38000020C6F200004C
:1008E00020F300007047000007B5044B0093044A52
:1008F000402300F013FE03B05DF804FB590900002B
:10090000290A002030B50F4D0FCD89B06C460FC4B9
:1009100095E80F0084E80F0006222823CDE9002384
:1009200009480A4B06930022694600F0ABFB18B158
:10093000074A462100F07EF8064B00221A7009B0E3
:1009400030BD00BF7CF300001000002000509D006F
:1009500026F30000280A002038B50E480E4C0F4D33
:10096000002323700378EB5CD2B273B1043002F041
:10097000E3FE18B10A4A562100F05CF8094B1A78D8
:1009800012B12378002BFBD038BD0C3002F078FB7D
:10099000EFE700BF10000020690A0020A40B002030
:1009A00026F30000280A002008B50848084A037802
:1009B000D35C33B1043002F03DFEBDE80840FFF7E0
:1009C000A1BF0C3002F0F0FAF7E700BF10000020E2
:1009D000A40B0020FFF796BF10B50848D4B20378E7
:1009E000074AD35C224623B1043002F0A5FE20461C
:1009F00010BD0C3002F044FBF9E700BF10000020EE
:100A0000A40B002008B50948094A0378D35C0122E9
:100A100043B1043002F00CFF00280CBF01204FF05E
:100A2000FF3008BD0C3002F09BFBF5E71000002002
:100A3000A40B002000B583B002900091019244F213
:100A4000010071466A46FFF773FE03B000BD000067
:100A5000024B4FF43C6043F001031847B0F3000031
:100A6000F8B51F491F4B0025C1F84051C1F844514A
:100A7000C1F84851C1F84C51C1F80051C1F80451B6
:100A80001B684BB3D1F8044517490968641A24F070
:100A90007F442F461A68A24209D8A41A15441A7C2A
:100AA000DE691AB1D3E905201F749047AEB90F4A29
:100AB0000F4B11781B788B4205D10133DBB2022B2F
:100AC00008BF0023137012780A4B43F822500A4BD8
:100AD0004FF48012C3F80021F8BD3346DAE700BFB7
:100AE000001001408C0B0020880B0020850B00209B
:100AF000840B00207C0B002000E100E02DE9F04F8A
:100B0000A14AA24913780978A14D994285B03CD0F9
:100B10000133DBB2022B08BF002313709D4912780A
:100B20009D4B0F6853F822003B1823F07F430022AF
:100B30000B602B6816461446944613B942B12B60DD
:100B400006E0196881420ED902B12B60091A1960BA
:100B500001272B68DFF848A201934FF00008BEB9C7
:100B6000DFF844B262E0401A0C44D968D3F81CE0C4
:100B7000C3F800C031B13A1922F07F42C3E9012124
:100B8000DE611E4673460122D7E700263746E0E7BE
:100B90003446F6697F4B60681B68DFF810C2A168B5
:100BA000C21A22F07F42624500F2A8800A44226005
:100BB000012222742A680023C4E90133E361002A78
:100BC00040F0A5802C60CAE79BF802105A1CD2B2F4
:100BD00091428BF8002004BF00228BF800201822DD
:100BE00002FB03B32A6819799C68022977D003298C
:100BF00000F08180012919D1207CB8B9D9686160E1
:100C00001A69A2605A69E2609B69A361634B1B7811
:100C1000002B18BF01466160BCE78C4200F0918058
:100C20008946C9690029F8D1002323749BF8003054
:100C30009BF801209A42C7D12B68B8F1000F04D16C
:100C4000019A9A4201D1002F43D0002B41D0D3F812
:100C500000A0534D4F4BD5F804751C68DFF8508148
:100C60003E1B98F8003026F07F4603369BB94FF4C0
:100C70008033C5F84433C5F804334A4B4FF400328F
:100C8000C3F880211A604FF00109C5F80090FFF702
:100C9000DFFE88F80090B2452CBF5444A41924F01C
:100CA0007F44C5F84045D5F80435DB1B23F07F436E
:100CB000E41B033324F07F44A3420AD9D5F804355A
:100CC000C5F84035FFF7C4FE364B4FF40032C3F889
:100CD0000021324B00221A7005B0BDE8F08F11469A
:100CE00091469FE71174D2690123002AFAD1002BA3
:100CF0009CD02A609AE700231946F6E71B1A23F0D6
:100D00007F438B4234BFCB1A0023236050E7216816
:100D10001368994213D85B1A1360E26152E7091A0B
:100D2000D8691A4638B1034618688842F7D3401A82
:100D30001860184613462160E061DC610FE7134636
:100D4000F2E74C4511D1D3692B6073B9DFF844E069
:100D50000120CDE90212CAF80800CEF800300F4B8E
:100D60001870FFF775FEDDE902120B68C969C9F852
:100D70001C1011B1086803440B602B68934218BF24
:100D80004FF0010850E700BF840B0020850B0020C6
:100D90008C0B0020880B00207C0B0020780B00209F
:100DA0000010014000E100E06C0A0020FEFF7F001F
:100DB000790B002072B6024A136801331360704742
:100DC000900B0020034A1368013B136003B962B61D
:100DD000704700BF900B0020EFF30583C3F30803B7
:100DE0002BB9EFF31480C04300F0010070470120DD
:100DF0007047000008B5FFF7EFFF012803D0044952
:100E0000432000F031F8BDE80840FFF7D3BF00BF32
:100E1000B6F3000008B5FFF7DFFF012803D004494F
:100E2000512000F021F8BDE80840FFF7CBBF00BF1C
:100E3000B6F300001EF0040F1CBFEFF309800AE0B8
:100E4000EFF308800549064A884201D8904202D84B
:100E50008D464FF00000034B1847000000000220B1
:100E600000E00120A507000007B5ADF800000191E2
:100E70006A46002144F20200FFF75AFC03B05DF815
:100E800004FB10B5034653E8000F0A4643E800246C
:100E900094F0000FF7D110BD10B5034653E8002FB2
:100EA00042EA010043E8000494F0000FF6D110BDBF
:100EB00010B5034653E8000F00EA010243E800249E
:100EC00094F0000FF6D110BD10B5034653E8002F83
:100ED00002EB010043E8000494F0000FF6D110BDCE
:100EE00010B5034653E8002FA2EB010043E80004CD
:100EF00094F0000FF6D110BD0121FFF7CDBF002106
:100F0000FFF7D6BF10B50446002834D003681BB9DC
:100F10001A49FF20FFF7A8FF636823B917494FF468
:100F20008070FFF7A1FFA36823B9144940F20110B4
:100F3000FFF79AFFE36823B910494FF48170FFF778
:100F400093FF238A23B90D4940F20310FFF78CFF6A
:100F5000D4E9012321689B1ADBB20A60013BDBB2B2
:100F6000FF2B226802D10020107110BD1168481CAF
:100F700010600B70F2E70E20F7E700BF0BF40000E3
:100F800038B5044620B912494FF49270FFF76CFF50
:100F90000020FFF72FFF2268616813688B4215D984
:100FA000591E116013F8013C228AE56802FB0355C3
:100FB0002268A36811685B1A1179DBB2994200D2EA
:100FC00013710020FFF726FF284638BD0025F8E7FB
:100FD0000BF4000038B50C46054620B90E4940F226
:100FE0004710FFF741FF24B90B494FF4A470FFF7F6
:100FF0003BFF0020FFF7FEFE2A681368591C1160B2
:10100000E968641A298AB4FBF1F41C70BDE8384021
:101010000020FFF7FFBE00BF0BF400001FB50378F0
:101020008DF800304368019383688DF80830C368F9
:10103000054A0393054B684653F8213052F82110B6
:10104000984705B05DF804FB940B00209C0B002032
:101050001FB503788DF800304368019383688DF8DD
:101060000830C368054A0393054B684653F821309E
:1010700052F82110984705B05DF804FB940B00204E
:101080009C0B0020F0B5194B90F800C0DFF86CE025
:1010900043F82C20164B16460A6943F82C204B7F48
:1010A0000EF80C300C4607460FCC89B06D460FC5C4
:1010B00094E80F0085E80F003B78CDF810C01EF8CB
:1010C00003304BB1002E0B4A694608BF3246381D2B
:1010D00002F0B2F909B0F0BD002E074A694608BF18
:1010E000324607F10C0001F06FFEF3E79C0B002085
:1010F000940B00201D10000051100000A40B0020D4
:1011000010B5044618B906493120FFF7ADFEA268B4
:101110002AB163692168206998470023A36010BD44
:1011200061F400000EB433B5059D044618B91149A9
:101130004220FFF799FE63691BB90E494320FFF770
:1011400093FE23681BB90B494420FFF78DFE6368AB
:101150001BB908494520FFF787FE35B106AB01AA48
:1011600029462046019300F071F802B0BDE83040F6
:1011700003B0704761F40000826830B40468551C05
:101180008560A154D0E901329A4202D330BCFFF706
:10119000B7BF30BC704700002DE9F84F9846DDE935
:1011A0000A43154682460F460A464FF00109AA42F5
:1011B0000FD2C14538BFC14613F0010B01D16CB944
:1011C00000240126B8F1010F1BD908F1FF386E4346
:1011D000F8E709F10109B2FBF5F2E8E79B070ED544
:1011E000B8F1000F0CBF30262026A145E9D2013C02
:1011F00031465046FFF7C0FF002CF6D1E0E720262D
:10120000F3E7B7FBF6F39D42E1D9DFF83C80B7FB8B
:10121000F6F3504618F8031006FB1377FFF7ACFF00
:101220003346AB42B6FBF5F6F1D2BBF1000F02D06C
:101230000CB1A14501D3BDE8F88F20215046013CF7
:10124000FFF79AFFF4E700BFF4F400002DE9F74F31
:1012500088461746054620B9AF4940F25220FFF7AD
:1012600003FE6B6923B9AC494FF41570FFF7FCFD21
:101270002B6823B9A84940F25520FFF7F5FD6B68AC
:1012800023B9A54940F25620FFF7EEFDB8F1000F53
:1012900000F03E8118F8011B49B92B7B002B00F0B0
:1012A0003781284603B0BDE8F04FFFF729BF252955
:1012B00040F0B780002698F800302D2B424608F108
:1012C000010823D0302B24D02B2B25D000242A2B0F
:1012D00002F1010123D13B681A1D3A601B680A46DE
:1012E0001C4413782E2B26D101324FF0000A1046F1
:1012F00010F8011BA1F1300CBCF1090F1DD80A2315
:1013000003FB0A13A3F1300A0246F0E746F0010698
:10131000D1E746F00206CEE746F00406CBE711F827
:10132000013CA3F130000928DBD80A2202FB043477
:10133000303C0A46CBE74FF0000A12F8011B01F0DF
:10134000FB0068289046F8D0782909D86F290CD876
:10135000632962D022D8252963D0582900F08880DB
:1013600098F80030002B95D197E770390829F7D805
:1013700001A353F821F000BFEB140000611300003B
:101380006113000081140000611300005F1400006D
:10139000611300006113000071140000642901D082
:1013A0006929DDD13A68111D3960D2F8009089EAC7
:1013B000E972A2EBE9724FF0010B092A35DCD34543
:1013C00038BFD3462CB1B9F1000F01DB720700D54D
:1013D000013CB30702D5BAF1000F03D0F00701D4E6
:1013E0004CBB0024B9F1000F2DDAC9F100092D2101
:1013F0002846FFF7C1FE06F00302022A04D1BAF123
:10140000000F01D11CBB0024CDE9004653460A223F
:1014100049462846FFF7C0FEA2E73B681A1D3A601E
:1014200019782846FFF7A8FE9AE70A230BF1010B6B
:10143000B2FBF3F2C1E7A345D4D220212846013CF8
:10144000FFF79AFECCE77107D5D52B21D0E7A3454E
:10145000DAD230212846013CFFF78EFED2E7396808
:10146000CDE900460A1D3A6053460A220968D0E7D2
:1014700039680A1D3A60CDE9004653461022F5E767
:101480003B681A1D3A6016F00106D3F8009024D18B
:10149000B9F1000F03D0484606F0B2FB0646B4424D
:1014A0001DD809F1FF3919F8011F00293FF458AF81
:1014B0002846FFF761FEF6E728460136FFF75CFE97
:1014C00019F806100029F7D1A642BFF449AF202130
:1014D0002846013CFFF750FEF6E70026F0E7202102
:1014E0002846013CFFF748FED9E73B681A1D3A60E1
:1014F000302128461C68FFF73FFE78212846FFF779
:101500003BFE00220823CDE900322146102280E76D
:1015100003B0BDE8F08F00BFA7F40000F0B595B0B0
:101520001D46164608460C4600F01FFD1A9B0D93FB
:10153000CDE9086500252B46082205A920460A9515
:101540008DF82C500C9500F037FD079B0293069BFD
:1015500003939DF814308DF8115003F00302012A13
:101560001DD1BDF81420059DC3F3C203C2F3831639
:101570008DF81030B20008230EA9204600F01CFDA3
:10158000C5F3952508AB0093324602AB0EA9284659
:1015900000F08CFB204600F0ECFC15B0F0BD022AF8
:1015A000F8D1BDF81650C3F3C203C5F389158DF801
:1015B00010300827082D2E4628BF08263B46324605
:1015C0000EA9204600F0F8FCAD1B08AB02AA31467C
:1015D0000EA8374400F0CEFB002DEBD1DAE7000077
:1015E00008B5FFF7F7F90748042100F0C1FA002811
:1015F00003DA05494820FFF737FC044B01225A71F2
:1016000008BD00BF8814010004F50000240000207C
:10161000037813F0040216D003F00303012B03D068
:10162000022B09D0012070470A6800880232C0F3FB
:10163000831002440A60F5E70B684288023303EB2B
:1016400092130B60EEE71046704700002DE9F04F53
:10165000DFF838A10F4687B00446861C00201546E7
:10166000FFF7C8FBDAF800103960DAE901321344F9
:1016700001335B1A0AF21C470AF583690AF214481F
:10168000B3421BD30020002D7AD004F00F039B013E
:1016900043F0050363F30F00DAF80020DAF80830AE
:1016A0001340033332444AF823000020CAF80020D4
:1016B000FFF7B0FB012007B0BDE8F08F01213846ED
:1016C000FFF702FC4846FFF717FC4046FFF714FC03
:1016D000DAF80400DAF808B0029000EA0B000330F0
:1016E0000AEB800002A9FFF793FF029B0246F8B9BC
:1016F0000BEA03010AEB810103F1020CC8680390B5
:10170000013303EA0B0B0AEB8B0B00F003000128FB
:10171000DBF80C10CDF808C02AD002280BD01A49EB
:10172000019240F28910FFF79FFB019A93460CE06B
:101730000BEA0300D3E7BDF80E30C3F3891303337C
:101740004FEA114B0CEB930302934046FFF7D7FB94
:1017500010B1029BCAF8043059463846FFF7B4FB73
:10176000DAE901231344DAF8002001339B1A87E7F2
:10177000BDF80C30C3F383134FEA114B6344E3E726
:10178000A40544F0060087E774F50000780C0020FB
:101790000B4B0C48FF2210B59A600022C3F81824A6
:1017A000C3E90022C3F81424012283F8202400F0A6
:1017B00095FB044610B9044800F012FC204610BD09
:1017C000780C002074140100E0F5000030B50A4CDC
:1017D00071B10A4A0A49121BD20800239A4201D168
:1017E000002030BD31F82350854202D00133F5E7A7
:1017F000034654F83300F4E70C140100741401009C
:10180000F4090020094B013903EBC000032909D872
:10181000DFE801F00A0204060420704700797047EF
:101820004079704700207047022070470C14010077
:10183000034BD3E90030C31A58425841704700BFE8
:10184000780C00202DE9F04385B0FFF7F1FF064644
:10185000002840F0FA807E4CC4F81804BFF34F8F84
:101860006368A56800932B40033304EB830069464B
:10187000FFF7CEFE009B18B1D4F81824002A62D0DE
:1018800005EA0302991C013304EB82022B4004EBAE
:101890008303D268DB68029302F00303022B0192F8
:1018A000009163D1BDF806306A48C3F38917502F01
:1018B000B84628BF4FF0500808F1080168F38F13AD
:1018C000C1F30901ADF8063000F020FB0646002800
:1018D00000F0A68000F049FB0023082201A9304651
:1018E00000F056FB009925EA01020132B8EB820FA5
:1018F0004FEA820333D95FFA88F863B32940DDB237
:10190000A8EB050803315FFA88F9A846524D04EBAD
:10191000810108234246304600F03AFB3DB108F110
:101920000803DBB24A462946304600F031FB009BF3
:10193000033703EB97070097D4F81834002B4BD1EB
:10194000D4F810545BE0226893428CD36260304636
:1019500005B0BDE8F08340491D469946D9E72940C6
:1019600003310823424604EB8101DDE7012B57D107
:10197000BDF804303748C3F38311062928BF062178
:1019800061F38913023101F00F018900ADF80430D1
:1019900000F0BCFA0646002842D000F0E6FA002328
:1019A000082201A9304600F0F3FA0027BDF8042010
:1019B000C2F38312BB00974203F10803BCD2009923
:1019C0004A1C29400331009204EB81010422304675
:1019D00000F0DEFA0137E9E7304600F0CAFAFFF717
:1019E00027FF80F00100C6B2B1E7EB685B7923B155
:1019F0002B6831461B6828469847EB681D68002D08
:101A0000F3D1304600F0B5FA2846FFF7F3F9D4F8E1
:101A100018340BB9009B63600020FFF7FBF9DEE789
:101A2000D4F8104454B90D4B0D480E49C01AC008E3
:101A3000000440F0020000F073F8D0E7236820466D
:101A40009B689847E3681C68ECE700267FE700BFC7
:101A5000780C002074140100840C00200C14010088
:101A60005C140100CBF500002DE9F74F274E04462A
:101A70000F46914601A901221846D6F808A09846BB
:101A8000FFF7E4FD78B3019D0023A81C434503EB59
:101A9000000132D100211E48FFF7F3F94FEA144943
:101AA00080F3100B1B4B1C4A9B1AB9EBD30F04D3CA
:101AB0001A494FF4D770FFF7D7F96B1C03EA0A03F2
:101AC000E40006EB830304F0380449EA0B4005EA1E
:101AD0000A0544F00104D860033544EA881343EA58
:101AE000872346F8253096F820341BB1FFF7AAFE6D
:101AF0000028FBD103B0BDE8F08F0AEA010106EB34
:101B0000810159F82320CA600133BFE7780C002017
:101B100094100020741401000C14010074F50000EE
:101B200000231A46FFF7A0BF07B50123019201AABF
:101B3000FFF79AFF03B05DF804FB1FB5CDE9012361
:101B4000069B039301AA0323FFF78EFF05B05DF800
:101B500004FB1FB5CDE90023069B0293079B03936B
:101B60006A460423FFF780FF05B05DF804FB000020
:101B700030B51349D1F810440346002022464AB933
:101B8000DC682071D1F8104454B9C1F81034DB6816
:101B90001A6030BDD268157985420AD01268EEE726
:101BA000E468DA6824681460D1F81024D2681360FD
:101BB000EFE701300A28E1D14FF0FF30E9E700BF3D
:101BC000780C002038B5084B0125D3F8104483F871
:101BD000205404B938BDE3685D71236820465B6812
:101BE0009847E3681C68F4E7780C002030B5C38898
:101BF00085B004460D4633B1144A00921449154A83
:101C00002846FFF78FFA217A05291DD0637A4BB158
:101C1000A088FFF7F7FD104B104953F82020284605
:101C2000FFF780FA227A0E4BA08853F82220039205
:101C30000021FFF7CBFD039A0A490346284605B069
:101C4000BDE83040FFF76EBA05B030BD0CF60000BD
:101C5000F4F50000ECF5000078F6000011F6000045
:101C60009CF6000014F6000007B503460846197AF2
:101C7000052911D05B7A2BB1094A0A490190FFF777
:101C800051FA019808490190FFF74CFA019803B006
:101C90005DF804EBFFF734BA002AF8D0F2E700BF92
:101CA0000CF6000011F6000009F600002DE9F043E3
:101CB00085B01F460C9D002395F80C902B730646AB
:101CC0000C46904629463846FFF790FFB8F1060FBC
:101CD00009D8DFE808F00412181F28334000314605
:101CE0002846FFF71FFA002229463846FFF7BCFFB7
:101CF00085F80C9005B0BDE8F0832268314628468F
:101D0000FFF710FAEFE7D4E9002331462846FFF742
:101D100009FAE8E7A36800933146D4E9002328468E
:101D2000FFF700FADFE7E3680193A3680093314609
:101D3000D4E900232846FFF7F5F9D4E72369029395
:101D4000E3680193A36800933146D4E90023284651
:101D5000FFF7E8F9C7E76369039323690293E36830
:101D60000193A36800933146D4E900232846FFF786
:101D7000D9F9B8E708292DE9F84F80460E461746ED
:101D80001C463DD8002593F80C901D73194610464B
:101D9000FFF72CFFDFF890A0DFF890B0AE4231D90A
:101DA00018F8052059462046FFF7BCF90135082DE3
:101DB000F4D11A491A4DDFF878A02046FFF7B2F99E
:101DC0004FF0000B5E4524D918F80B207E2A1ED850
:101DD000511C144BC9B2C95C11F0970F08BF2E22D9
:101DE00051462046FFF79EF90BF1010BBBF1080F9E
:101DF000E8D1012221463846FFF736FF84F80C90DF
:101E0000BDE8F88F51462046FFF78CF9CEE72E2229
:101E1000E6E729462046FFF785F9E5E728F60000C2
:101E200026F60000B410010024F600001EF60000A3
:101E30002AF600002DE9F74F99469DF830300093BF
:101E400088469346064618B92349B620FFF70CF892
:101E5000F28871794A43043A4A4505D81E490192ED
:101E6000C420FFF701F8019ADBF80070B6F806A06D
:101E700007EB0901914209F1040488BFA2EB0907AD
:101E8000B4FBFAF5CBF800700AFB154445B9AAEB90
:101E9000040BBB4528BFBB462FB903B0BDE8F08F8C
:101EA0003668013DF2E7009B043408EB050034443A
:101EB0005A466BB12146A7EB0B0705F011FCBA455A
:101EC0005D443668D3464FF0000428BFBB46E3E7C5
:101ED00001462046EFE700BFB0F60000FFF712B85A
:101EE000F8B546790146721E0546002393422D68D7
:101EF00003D30024A64202D8F8BD0133F6E70F68E9
:101F00002846FFF767F801343946F3E72DE9F8432F
:101F1000CD1C068A0746FFF733F8043E35440446D5
:101F2000B5FBF6F5F0B14FF48073EDB28380C68057
:101F3000013D076081464FF00008A84512D238469F
:101F4000FFF71EF8064648B163790133637108F163
:101F50000108C9F8000007608146EEE72046FFF758
:101F6000BFFF34462046BDE8F88301210430FEF768
:101F7000ABBF10B5012104460430FEF7B1FFC0B27B
:101F800020B92046BDE81040FFF7AABF10BD0000F1
:101F90001FB5144603920022009203AAFFF74AFFDE
:101FA000039BA34203D00349F620FEF75DFF04B074
:101FB00010BD00BFB0F600001FB514460392012209
:101FC000009203AAFFF736FF039BA34204D0034904
:101FD0004FF48070FEF748FF04B010BDB0F600006B
:101FE000826800239360826813618268536182680B
:101FF000D3608268536082681360704710B50D49E2
:10200000A1F58C72914201D800200FE08C1AE30FE9
:1020100003EBE4035B1002EBC30452F8333083425A
:1020200005D802D204F10802ECE7606810BD214631
:10203000E8E700BFC8FB000008B5FFF7DFFF024B71
:10204000002808BF184608BD9AFA000000F1804039
:1020500000F5C040002382B0036003680193019B38
:1020600002B07047C208012300F0070003FA00F035
:102070008B5C18438854704710B50368292B0446BD
:1020800004D9074940F2CD10FEF7EEFE23681F2B5E
:1020900083BF03F01F03034823604FF0A04010BD2F
:1020A00086EB00000003005013B5019001A80C4618
:1020B000FFF7E2FF019B00EB8300D0F8003723F429
:1020C0004033C0F80037D0F8003743EA0443C0F883
:1020D000003702B010BD00004FF0A043D3F8103518
:1020E0000360024BD3F81035436070470003005083
:1020F0002DE9F04F00248BB0CDE90244604D4FF440
:102100008072012102F1804303F5C04390B21B6845
:10211000012B06D1D5F804330B4202D0FFF796FF0E
:102120000C430432B2F5907F4FEA4101EAD1544B9F
:10213000D3F87C31012B08D14FF4BE70FFF786FF36
:1021400002A844F00044FFF7C7FFE3B2D3B14D4FFC
:1021500000250126344210D0AB0003F1804303F583
:10216000C043D3F81005D3F8101557F8253023B124
:10217000C1F30141C0F3052098470135082D4FEA0E
:102180004606E7D1002C78DA0023CDE904334FF07E
:10219000FF33CDE90633DFF8ECA03B4B019300267B
:1021A0003546019B13F9014B0193631C4FD0C4F3D7
:1021B000C2070122E3B204F03F0B04F0070402FA65
:1021C00004F407F128020DEB020717F8101C214256
:1021D0003DD00AEB0B014FEA931991F930105AF8F0
:1021E0002180B8F1000F07D1B9F1030F2FD104A955
:1021F0005846FFF737FF02E0B9F1030FF7D008A800
:10220000CDF820B0FFF738FF089901F5E07150F8DC
:10221000211017F8200C2042C1F3014106D00229F9
:1022200015D1B9F1030F0CD1494605E003290ED1B0
:10223000B9F1030F05D102215846FFF735FF0135EB
:10224000EDB2B8F1000F02D049465846C0470136FA
:10225000042EA6D18DB108A8FFF73EFF029B089A75
:102260009A42099B02D103998B4206D002920393B2
:10227000049A059B069207938FE70BB0BDE8F08F99
:1022800000600040341100208E11002010B5054C74
:1022900023681BB904495120FEF7E6FD2368BDE819
:1022A000104018479C110020D3FB000038B50D46A4
:1022B00028B90C497720FEF7D7FD002038BD0A4B1E
:1022C0009842FAD10020FEF795FD084B1C7914B90D
:1022D00001221D601A710020FEF79CFD002CECD03D
:1022E0001120EBE7D3FB0000002000409C110020F0
:1022F00018B906499B20FEF7B7BD054B984201BFB0
:10230000044B00221A601A71704700BFD3FB000013
:10231000002000409C1100200023435082B043580D
:102320000193019B02B0704738B51D4602230B7123
:102330000B684A7104467BB112F0040F0CBF822176
:102340009221100748BF41F02001D306236848BFFF
:1023500021F08001C3F8001320684FF48271FFF769
:10236000DBFF12F0800F206805BF012343514019A5
:10237000002038BD70B5D0F8103105460C4653B179
:102380004FF48871FFF7C8FF63795A0703D52368B4
:102390000BB101209847D5F814315BB14FF48A7125
:1023A0002846FFF7B9FF63791B0703D523680BB1F4
:1023B00002209847D5F81C315BB128464FF48E7146
:1023C000FFF7AAFF607910F0100002D1236803B173
:1023D0009847D5F8043163B14FF482712846FFF76E
:1023E0009BFF0123237123681BB1BDE870400320CC
:1023F000184770BD10B50368292B044604D9074956
:1024000040F2CD10FEF730FD23681F2B83BF03F091
:102410001F03034823604FF0A04010BD86EB00006F
:10242000000300502DE9F04104460E46154622B93E
:102430001D4940F2AB20FEF717FD2F6827B91A4956
:102440004FF42E70FEF710FD04EB4618C8F8207507
:10245000AF881FBB144940F2C120FEF705FDC8F844
:102460002475AF68B7F1807F04D30F4940F2CB20C9
:10247000FEF7FAFC4FEA461804EB4616C6F8287534
:10248000ED68B5F1807F04D307494FF43570FEF74E
:10249000EBFC4444C4F82C55BDE8F0813B04DED588
:1024A000014940F2C220D8E726FC00002DE9F04F98
:1024B000044689B090460D4619B964498020FEF75C
:1024C000D3FC2779624EFB00019306EBC7031B790F
:1024D000002B40F0B88046F8378005F1FF390DF148
:1024E000100805F1030A19F8012FFF2A00F0A68051
:1024F00022F0800B1306C8F800B0CDF80CB003A88A
:1025000040F19480FFF776FF039901228A40C0F8DA
:10251000082503A8CDF80CB0FFF76CFF039B03F56B
:10252000E073032240F82320CA4508F10408DAD1F9
:102530002368049AC3F86025059AC3F86425069AAF
:10254000C3F86825079AC3F86C2523680122C3F8ED
:102550000025B5F90830D4F8008095F805B095F855
:1025600006A0B5F80890002B04DA3A494FF4287019
:10257000FEF77AFCC8F80CB5C8F804A5C8F80895A9
:1025800023686A89C3F8102522680023C2F8003244
:102590002268C2F8003320684FF48E71FFF7BCFE4A
:1025A00020684FF48871FFF7B7FE20684FF48A71F6
:1025B000FFF7B2FE20684FF48271FFF7ADFE56F8C8
:1025C00037305BB32D792768072D4FEA173847F36B
:1025D000073703D920496B20FEF746FC002FAEBF1A
:1025E00007F160431D4B08F00F084FEA4515A8BFDF
:1025F00003F56143EDB2B4BF03F8085083F800530C
:1026000023681A0B43F30733002B07DB02F01F018B
:1026100001228A405B09124941F82320019B1E4494
:1026200001233371002009B0BDE8F08FFFF7E2FE0F
:10263000039901228A40C0F80C256AE74FF0FF3366
:10264000C8F8003070E70820EDE700BF68FC000024
:10265000A411002026FC0000B3FC000014ED00E0F3
:1026600000E100E02DE9F04115461E460279244BB9
:1026700003EBC208044698F804300F4623B92149F9
:102680004FF48D70FEF7F0FB25B91E4940F21B1088
:10269000FEF7EAFB3B6803F06043B3F1005F04D050
:1026A00018494FF48E70FEF7DFFB20683A46002190
:1026B000FFF7B8FE3A4620680121FFF7B3FE226813
:1026C00005F0010303EB5505C2F81455F20715D4C4
:1026D00016F0020203D0002B14BF08220422216846
:1026E000002BC1F800222046F2B2414618BF0C234D
:1026F000BDE8F04108BF0823FFF716BE1022EEE741
:10270000A411002068FC000001490248FFF732BE16
:10271000A411002000C0014001490248FFF72ABE71
:10272000AC1100200010024000F1804000F5E040B4
:10273000002382B0036003680193019B02B07047DD
:10274000F0B5524B524CD3F8043185B0002B3DD03C
:1027500094F82E204FF48270FFF7E6FF2AB394F826
:102760002F3013BB494AD2F80031002B32D04FF43E
:102770008070FFF7D9FF638B94F82D00834250D906
:1027800021891B1A9BB289B26383CB1A616801EB62
:102790004303C2F82C36C2F830064FF48270FFF7BC
:1027A000C3FF3A4B01225A6014E063680293238905
:1027B000ADF80C30E36800218DF8041033BB2374AE
:1027C000236801A89847002384F82F3094F82E300E
:1027D000002BC7D12D4BD3F810315BB14FF488706B
:1027E000FFF7A2FF0023237402238DF8043001A811
:1027F00023689847254BD3F81431EBB14FF48A7016
:10280000FFF792FF0023237405B0F0BD208B608397
:1028100063602081E160002AD2D11C4B01221A6042
:10282000CEE7BAD1E368012184F82F1013B100215B
:102830006183AEE76383B0E766694FF00047012527
:10284000002EE1D0B6FA86F227FA02F34632920061
:1028500026EA030602F1804303F5E0431B68002BE0
:10286000EED01046A2F58C72FFF75EFFD30882F01F
:102870000402C2F380028DF808308DF804502368FA
:102880008DF8092001A89847DAE700BF00700040E2
:10289000B411002010B50368292B044604D9074958
:1028A00040F2CD10FEF7E0FA23681F2B83BF03F040
:1028B0001F03034823604FF0A04010BD86EB0000CB
:1028C0000003005007B5019001A8FFF7E3FF019A4C
:1028D00001239340C0F80C3503B05DF804FB07B545
:1028E000019001A8FFF7D6FF019A01239340C0F899
:1028F000083503B05DF804FB13B5144BD3F8182169
:1029000012B30022C3F81821D3F81831104C0193E8
:10291000019B236823B90F494FF42770FEF7A4FAEF
:10292000E07FFF2803D0A37F5BB1FFF7CBFF00233D
:1029300063772372D4E90031074802B0BDE8104044
:102940001847FFF7CCFFF2E702B010BD003002409D
:10295000E411002001FD0000EC1100202DE9F743F7
:10296000002406460F4600F5A0754FF48038A146B6
:102970002B688BB1D6F8043308FA04F21A420BD054
:10298000C5F800902B680193019BA30003F5A07389
:1029900098B2D7E9003198470134042C05F10405B9
:1029A000E6D103B0BDE8F08301490248FFF7D6BF86
:1029B000081200200080004001490248FFF7CEBF06
:1029C00014120020009000400023435082B043586E
:1029D0000193019B02B070470B7B032B2DD8DFE8DE
:1029E00003F025291D028A68154B9A4204D1D0F8BC
:1029F0004C350A699A4209D18A6840F202239A4208
:102A00001BD1D0F84C354A699A4216D000230622D1
:102A1000C0F80035C0F8002518467047D0F84C358E
:102A20000A699A42F2D1D0F83C35ECE7D0F84C353F
:102A30000A69E9E7D0F83C35FAE70120704700BFA2
:102A400000020400F0B50B6887B005460C4623B9B8
:102A5000484940F28620FEF707FAD5F82431B3B191
:102A60004FF492712846FFF7AFFFD5F8043173B9E0
:102A7000A368C5F808330223A360A368C5F804332C
:102A800001232B626B6184F82E3007B0F0BDD5F8BE
:102A900004316BB34FF48271284604F10C07FFF741
:102AA00093FF0FCF01AE0FC63B68336094F82E3012
:102AB0003BB921462846FFF78FFF80F0010084F8DC
:102AC0002E004FF4B0712846FFF77EFF4FF4AE7131
:102AD000FFF77AFF94F8303013B194F82E30CBB171
:102AE0000023C5F80032A360234BC5F8083311E07A
:102AF0004FF4A4712846FFF767FF237BEBB904F17D
:102B00000C070FCF01AE0FC63B68336094F830302E
:102B1000002BE6D0D5F8C434C5F8C4349A071ED5C6
:102B200001238DF8003094F830300BB984F82F3041
:102B3000D4E9003168469847A7E74FF40073C5F819
:102B4000003240F20223A36003F1CE73C5F80833CC
:102B5000A368C5F804330123AB602B6295E713F03B
:102B6000050F01D00223DCE794F82E30002BD8D0DB
:102B70000423D6E758FD000002029C0101490248E7
:102B8000FFF760BF201200200030004002494FF0E4
:102B90004020FFF757BF00BF5412002000234350CE
:102BA00082B043580193019B02B070470A4610B5AA
:102BB0004FF48E71FFF7F2FF136A9168C95C136AD4
:102BC00001331362C0F81C1510BD08B502464FF45E
:102BD00092710068FFF7E2FF10684FF48471FFF70D
:102BE000DDFF136801221A6008BD000010B50368FC
:102BF000292B044604D9074940F2CD10FEF734F9D9
:102C000023681F2B83BF03F01F03034823604FF08B
:102C1000A04010BD86EB00000003005007B50190F6
:102C200001A8FFF7E3FF019B03F5E073022240F8E0
:102C3000232003B05DF804FB10B58B690A464FF4FE
:102C4000847123B9FFF7AAFFD0F8183510BDFFF73C
:102C5000A5FF536AD168D0F81805C854536A0133E8
:102C60005362F3E71FB501238DF80030044BCDE923
:102C70000110D3E900126846904705B05DF804FBE7
:102C80008812002030B54E4DD5F804339A0585B032
:102C900051D5D5F82431002B4DD04FF492712846F0
:102CA000FFF77CFF4FF40173C5F80833454B93F8E9
:102CB00029200AB901226A60414902228DF80020C8
:102CC000D1F88024C1F8802403929A690292DA68CC
:102CD00001920022C3E906226846D3E90012904718
:102CE0003748D0F81C315BB1364A5169136A9942B2
:102CF0004ED992F82830002B4AD11146FFF756FFE3
:102D00002F48D0F84431002B57D04FF4A271FFF771
:102D100045FF2C4B93F829200AB1012202609A69E1
:102D2000002A4AD0586AD96800229A6105B0BDE8E5
:102D30003040FFF797BFD5F804335B07D0D5D5F8FF
:102D40000831002BCCD01F4C1D482146FFF774FFE3
:102D5000636AA2699A42C3D1E36953B1A36123694B
:102D6000E168E3600023606AE3616362FFF77AFF72
:102D7000B6E794F829300BB901236B60104B4FF480
:102D80000172C3F808230023606AE168A361EDE7DC
:102D90000B484FF48E71FFF701FF5369002BAFD042
:102DA00051690291002391688DF8003001915361BF
:102DB0006846D2E900139847A2E705B030BD00BFCE
:102DC00000200040881200202DE9F3470546914677
:102DD0000C4619B96D49AA20FEF746F895F804800B
:102DE0006B4E2C2303FB086393F82A30002B40F032
:102DF000C98068492868FFF759FA0746002840F05B
:102E0000C38023685A1C14D001A80193FFF7EEFE7B
:102E1000019B012202FA03F3C0F8083523680193ED
:102E200001A8FFF7E3FE019B03F5E073032240F8DE
:102E300023206368581C09D001A80193FFF7D6FE30
:102E4000019B03F5E073002240F823202B68A26960
:102E5000C3F82425217D637D2A680B43C2F86C35B5
:102E6000D4E900122B68C3F81425C3F80C15237D90
:102E7000012B2BD1A368591C09D001A80193FFF79E
:102E8000B5FE019B03F5E073002240F82320E368C0
:102E90005A1C14D001A80193FFF7A8FE019B012240
:102EA00002FA03F3C0F80835E368019301A8FFF7BD
:102EB0009DFE019B03F5E073032240F82320D4E933
:102EC00002122B68C3F80825C3F810152C2303FB46
:102ED00008F3F218C2F804902269F250B9F1000F19
:102EE0003CD0286894F81C902B4A4FF48E71FFF761
:102EF00055FE28684FF4A271FFF750FE2B68C3F807
:102F000004232C68B9F1070F4FEA143A44F307344D
:102F100003D922496B20FDF7A7FF002CAEBF04F1B7
:102F200060431F4B0AF00F0A4FEA4919A8BF03F587
:102F300061435FFA89F9B4BF03F80A9083F80093FC
:102F40002B681A0B43F30733002B07DB02F01F013A
:102F500001228A405B09134941F823202B6804228F
:102F6000C3F800252C2303FB08630022C3E90622D3
:102F700083F829205A61012283F82A20384602B0BA
:102F8000BDE8F0870827F9E71127F7E7A9FD00005A
:102F900088120020852C000080000200B3FC000095
:102FA00014ED00E000E100E02DE9F8430368067944
:102FB0002A4D0022C3F800252C2303FB06530446A8
:102FC0005B68B3B10368264AC3F8082303681A0B89
:102FD00043F30733002B0CDB02F01F015B090122D6
:102FE0008A4020331F4941F82320BFF34F8FBFF39E
:102FF0006F8F23684FF0FF32D3F80C05D3F8149588
:10300000D3F80875D3F81085C3F81425C3F80C2538
:1030100023689042C3F80825C3F8102501D0FFF7B4
:10302000FDFDB9F1FF3F02D04846FFF7F7FDB8F1CB
:10303000FF3F02D04046FFF7F1FD7B1C02D038462F
:10304000FFF7ECFD2068FFF753F92C2303FB06552F
:10305000002385F82A306B60BDE8F88388120020D1
:103060008402020000E100E00279044B2C2101FB04
:1030700002335869003818BF0120704788120020B9
:103080002DE9F84F344F90F804802C2303FB08738C
:10309000064693F82A30012B8946924604D02F49E0
:1030A0004FF48C70FDF7E0FEB9F1000F04D12B490D
:1030B00040F21910FDF7D8FEBAF1000F04D12749EC
:1030C0004FF48D70FDF7D0FE3046FFF7CDFF04467C
:1030D00000283CD12C2508FB057B4FF48E71CBF8E2
:1030E00014A0CBF80890CBF820008BF828003068AB
:1030F000FFF754FD336801229A6030685946FFF7A4
:1031000055FDDBF804305D461BBB3068DBF814402E
:103110002B6A9C4211D83368D3F81C21002AFBD0BB
:103120000122DA6000202C2303FB087700237B6157
:10313000BDE8F88F95F828303BB9D0F81C31002B4A
:10314000F8D05946FFF732FDE2E70F20EBE71120F8
:10315000EEE72046ECE700BF88120020A9FD000042
:103160002DE9F047494C07792C2303FB074306461A
:1031700093F82A30012B8846154604D044494FF471
:10318000B670FDF771FEB8F1000F04D1404940F26E
:103190006D10FDF769FE25B93D494FF4B770FDF795
:1031A00063FE2C2303FB07435A6822B133684FF4B4
:1031B0000171C3F808132C2303FB0743986950B12E
:1031C000D969002942D022B133684FF40172C3F8A3
:1031D0000423112537E09D61C3F80C805862D86143
:1031E0002C2303FB074393F829301BB910B9304651
:1031F000FFF7EBFC4FF02C0808FB074A3068DAF8C1
:103200000430002B38D14FF4A271D046FFF7C6FC32
:103210003068D0F82491D0F80831D0F84451D3B9AF
:1032200015B9B9F1000FF3D02C2303FB0744002399
:10323000A361B9F1000F25D135BB94F8291033688B
:103240000122B9B11A602846BDE8F087C3F81080A2
:10325000DD610120C4E7B9F1000FE5D1002DE3D114
:103260004146FFF7E9FCDAF82430DAF818209A42F0
:10327000CED8D9E75A60E6E74FF40173C0F80433BB
:103280000025E0E70325DEE70F25DCE788120020B4
:10329000A9FD00000023435082B043580193019BD5
:1032A00002B070471FB50123CDE901218DF8003030
:1032B000D0E900136846984705B05DF804FB0000AC
:1032C00010B50368292B044604D9074940F2CD10F4
:1032D000FDF7CAFD23681F2B83BF03F01F030348BC
:1032E00023604FF0A04010BD86EB000000030050AB
:1032F00007B5019001A8FFF7E3FF019B03F5E07319
:10330000022240F8232003B05DF804FB7FB5D0F81B
:10331000246105460C46002E5CD04FF49271FFF7F5
:10332000B9FF02238DF80030D0F88034C0F8803423
:103330000393D0F83C350293E36801930023C4E97A
:1033400006336846D4E900139847D5F844317BB179
:103350004FF4A2712846FFF79DFFA36943B10023F4
:10336000C4E90633E268D5F83C152046FFF79AFF1A
:10337000D5F82031ABB14FF490712846FFF78AFFA2
:103380000123EB60636963B1D5F84C2502920023F9
:10339000A2688DF8003063610192D4E90013684699
:1033A0009847D5F858319BB14FF4AC712846FFF7D8
:1033B00071FF636963B1D5F84C2502920023A268BE
:1033C0008DF8003063610192D4E900136846984794
:1033D00004B070BDD0F81031002BB6D04FF4887116
:1033E000FFF758FFD0F83C35A1699942ADD1E369A8
:1033F000E26873B1D0F8003223F02003C0F8003245
:10340000E369A3612369E360E6612046FFF74AFFB1
:103410009BE7A361F9E7000001490248FFF776BF87
:10342000B41200200020004001490248FFF76EBF9F
:10343000D8120020008002402DE9F347054691464E
:103440000C4619B97449CF20FDF70EFD95F804809C
:10345000724E242303FB086393F82030002B40F0C6
:10346000D6806F4B286853F82810FEF71FFF0746D9
:10347000002840F0CE8023685A1C13D001A8019385
:10348000FFF71EFF019A01239340C0F80835236817
:10349000019301A8FFF714FF019B03F5E0730322DA
:1034A00040F823206368581C09D001A80193FFF756
:1034B00007FF019B03F5E073002240F823202B68EF
:1034C000A269C3F82425217D637D2A680B43C2F8D5
:1034D0006C35D4E900122B68C3F80C15C3F8142519
:1034E000237D012B2AD1A368591C09D001A801937F
:1034F000FFF7E6FE019B03F5E073002240F823206E
:10350000E3685A1C13D001A80193FFF7D9FE019A72
:1035100001239340C0F80835E368019301A8FFF741
:10352000CFFE019B03F5E073032240F82320D4E98A
:1035300002212B68C3F80815C3F81025242303FBC8
:1035400008F3F218C2F804902269F250B9F1000FA2
:103550004BD0286894F81C90324A4FF48871FFF7DA
:1035600099FE28684FF49071FFF794FE28684FF495
:103570009271FFF78FFE28684FF4A271FFF78AFE61
:1035800028684FF4AC71FFF785FE2B68C3F804235D
:103590002C68B9F1070F4FEA143A44F3073403D902
:1035A00021496B20FDF760FC002CAEBF04F16043A5
:1035B0001E4B0AF00F0A4FEA4919A8BF03F56143F1
:1035C0005FFA89F9B4BF03F80A9083F800932B6877
:1035D0001A0B43F30733002B07DB02F01F01012214
:1035E0008A405B09124941F823202B680822C3F85E
:1035F0000025242303FB08660023C6E90633736114
:10360000012386F82030384602B0BDE8F08708274D
:10361000F9E71127F7E700BFFAFD0000B412002018
:1036200050FE000010034200B3FC000014ED00E067
:1036300000E100E02DE9F843364D0679242303FB31
:10364000065304465B68B3B10368334AC3F80823E2
:1036500003681A0B43F30733002B0CDB02F01F0146
:103660005B0901228A4020332C4941F82320BFF313
:103670004F8FBFF36F8F2268D2F8003223F0200300
:10368000C2F80032236801225A6020684FF4AC71FE
:10369000FFF700FE2368DA602368D3F85821002A78
:1036A000FBD00022C3F8002523684FF0FF32D3F887
:1036B0000C05D3F81495D3F80875D3F81085C3F822
:1036C0000C25C3F8142523689042C3F80825C3F8D5
:1036D000102501D0FFF70CFEB9F1FF3F02D048469C
:1036E000FFF706FEB8F1FF3F02D04046FFF700FEAD
:1036F0007B1C02D03846FFF7FBFD2068FEF7F8FD83
:10370000242303FB0655002385F820306B60BDE8B9
:10371000F88300BFB41200201003420000E100E073
:103720000279044B242101FB02335869003818BF89
:1037300001207047B41200202DE9F0473A4F90F86D
:1037400004A0242303FB0A73054693F82030012BC1
:103750008846914604D0354940F22D10FDF784FB90
:10376000B8F1000F04D131494FF49770FDF77CFB9D
:10377000B9F1000F04D12D4940F22F10FDF774FB71
:103780002B79012B02D8B9F5803F04D327494FF498
:103790009870FDF769FB08F06043B3F1005F3CD11E
:1037A0002846FFF7BDFF0446002838D1242606FB33
:1037B0000A764FF49071C6F81490C6F8088028680D
:1037C000FFF768FD4FF4AC712868FFF763FD2B68C5
:1037D0007269B168C3F84415C3F848252B68012203
:1037E0009A607368EBB92B68D3F82021D3F858019D
:1037F0001AB90028F8D00F2008E00028FBD10122D8
:10380000DA602A68D2F85831002BFBD0242303FB5E
:103810000A7700237B61BDE8F0871020FBE71120C9
:10382000F9E72046F7E700BFB4120020FAFD0000D8
:103830002DE9F041494E0579242303FB0563044635
:1038400093F82030012B8846174604D044494FF4A2
:10385000C070FDF709FBB8F1000F04D1404940F2F8
:103860008110FDF701FB27B93D494FF4C170FDF709
:10387000FBFA2379012B02D8B7F5803F04D33849EE
:1038800040F28310FDF7F0FA08F06043B3F1005FF7
:1038900061D1242303FB0563596821B123684FF4E8
:1038A0000472C3F80823242303FB05639A6952B109
:1038B000DA69002A3DD021B123684FF40472C3F8BD
:1038C0000423112033E09F61C3F80C80DA61206883
:1038D0004FF48871FFF7DEFC20684FF4A271FFF708
:1038E000D9FC2368C3F83485C3F8387523682ABB2C
:1038F00001221A6025792368242202FB056252689E
:103900001ABBD3F81011D3F84421D3F82401114382
:1039100002D10028F5D00A46242303FB05660023C4
:10392000984218BF03209A42B36118BF0F20BDE828
:10393000F081C3F81080DF610122C8E7D3F80022CC
:1039400042F02002C3F80022D4E74FF40472C3F817
:1039500004230020EBE71020E9E700BFB4120020A9
:10396000FAFD000007B501A801F00CFF20B9019095
:10397000019803B05DF804FB019B002BF8D10123F3
:103980000193F5E738B5044601F0F2FD05462046FF
:1039900001F0F4FDA54203D0BDE8384003F002B9C0
:1039A00038BD01F025BE01F02FBE08B502F0E2FBE4
:1039B00000F08AFE03F046F901F082FC01F092FD6E
:1039C00003F0CEF803F022FB01F08EFD03F0D9F8EE
:1039D00003F09AFC03F0D9F802F000FF02F088FE31
:1039E00001F062FE03F0A2FC01F07EFEBDE808409B
:1039F00002F0F0BF012300221146184603F0C6B8BA
:103A000008B590F8803033B1074B084A4FF4F8718D
:103A1000074803F09BFD03F0C3F820B9054B034AA8
:103A20004FF4FB71F4E708BD58FE0000D7FE00001C
:103A300070FE00001B00010001F07ABD01F088BD9E
:103A4000704770477047084609B1FFF7D9BF704704
:103A500030B5054685B00C4661B1CDE90223FFF7CC
:103A600081FFDDE90223009021462846FFF7EBFFA6
:103A700005B030BD0846F6E770477047704770479D
:103A8000704700F1804000F58050002382B0036051
:103A900003680193019B02B070470000034B186854
:103AA00008B190F8800000F0010070470C1300206E
:103AB00008B5FFF7F3FF08B1014B186808BD00BF58
:103AC0000C13002000BF00BF00BF00BF00BF00BF3D
:103AD00070470000134B144AC3F8482500F180409A
:103AE00000F58050C3F84C0521B102F5FD42483283
:103AF000C3F82C290D4AC3F8402502F5AF3202F570
:103B00009672C3F8442529B1D3F8002842F0800208
:103B1000C3F80028034B8022C3F804254022C3F8D1
:103B20000425704700F001403C7101401011004035
:103B3000074B01221A61D3F8002222F48072C3F8E5
:103B4000002203F5B0334FF48072C3F808257047A4
:103B500000900040034B1B781BB1034B1022C3F8AD
:103B600008237047051300200010004010B50446DC
:103B700002F020FEB0F5C07F0B4A12D3C009811EAF
:103B8000B1EBD41F4FEAD41396BFA4EBC1140024A9
:103B9000C31E1460054AC3F31403C2F8643601203F
:103BA00010BD14600020FBE700130020001000404F
:103BB00013B501A801F034FD9DF805009DF80440FF
:103BC00001F06AFD9DF807309DF806201B0643EAC8
:103BD0000243234343EA0020024BC3F86C0602B0C1
:103BE00010BD00BF0010004008B501F0AFFDBDE8FA
:103BF0000840002002F0F8BD08B5054BD3F8480591
:103C000000F07F0001F033FD404240B208BD00BF2C
:103C10000010004013B50446FFF7EEFF2378019033
:103C2000234413F8010C01F029FD02B29200FF2A8F
:103C300028BFFF220199D2B2204602B0BDE8104051
:103C400002F08FBF13B5084B01901C680146204657
:103C500001F0D0FA019928B1204602B0BDE8104029
:103C600002F085BF02B010BD1013002007B501900F
:103C700001F012FC019802F076FF03B05DF804EB4E
:103C800001F03CBB07B5019001F006FC0198FFF77D
:103C9000C1FF03B05DF804EB01F030BB144B4022D0
:103CA000C3F808258022C3F808254FF48072C3F8B2
:103CB0000825104A01211161D3F8000820F0800086
:103CC000C3F800080020C3F82C091161D2F80032B3
:103CD00023F48073C2F80032074B1B783BB1074BCB
:103CE0004FF45052C3F80823C3F80002196170471B
:103CF00000F001400090004005130020001000403B
:103D0000134908B54023C1F808358023C1F80835A8
:103D1000FFF70EFFD1F8003823F08003C1F8003818
:103D200000220C4BC1F82C291B787BB10A4B0A21CD
:103D3000C3F808130121C3F800221961C3F844260F
:103D4000BDE808404FF4AE70FFF79BBE08BD00BF52
:103D500000F001400513002000100040104908B594
:103D60004023C1F808358023C1F80835FFF7E0FE8D
:103D7000D1F8003823F08003C1F800380022094B45
:103D8000C1F82C291B784BB1074B4FF40041C3F805
:103D90000813C3F8002201229A621A6108BD00BF0D
:103DA00000F001400513002000100040104908B544
:103DB0004023C1F808358023C1F80835FFF7B8FE65
:103DC000D1F8003823F08003C1F800380022094BF5
:103DD000C1F82C291B784BB1074B4FF4C021C3F815
:103DE0000813C3F8002201221A631A6108BD00BF3C
:103DF00000F00140051300200010004008B50E4BF4
:103E000001211961D3F8002222F44072C3F8002284
:103E10000A4A1278043A8A4206D9094B094A0A48E2
:103E200040F29E3103F092FB196120B1074B4FF431
:103E30008072C3F8082508BD0090004006130020DA
:103E40006AFE00007B000100F2FE000000F001406D
:103E500010B5104C4023C4F808358023C4F8083549
:103E60000120FFF7CBFFD4F8003823F08003C4F81B
:103E700000380022084BC4F82C291B7843B1074BAB
:103E80000749C3F80813C3F8002201221A631A6114
:103E900010BD00BF00F001400513002000100040DD
:103EA000020004080B3808B5C3B20F2B06D9094B22
:103EB000094A0A4840F2052103F048FB00EB800064
:103EC00000F66510064B80B2A0F51660C3F8080531
:103ED00008BD00BF5EFF0000B9000100F2FE000057
:103EE0000010004008B5084BD3F85035DBB243B999
:103EF000064BFFF7E7FDD3F83C01003818BF01205F
:103F000008BD0120FCE700BF001000400070014028
:103F1000F8B505460F46164601F056F9044680B13D
:103F20004F4B1B78092B00F29280DFE803F0050C61
:103F30000F22565660656E77022F02D0042002F0E1
:103F400053FC2046F8BDFFF705FEFAE7454B1B780A
:103F50005B070BD5002D00F08180FFF79FFE002E40
:103F6000EFD0062002F0FFFD3446EAE7FFF796FEA9
:103F7000E7E7002D72D03C4B4022C3F80825802291
:103F8000C3F808254FF48072C3F80825374A012189
:103F90001161D3F8000820F08000C3F80008002069
:103FA000C3F82C091161D2F8003223F48073C2F8EF
:103FB00000322F4B1B7833B12E4B2F4AC3F8082306
:103FC000C3F800021961002EBBD02C4B18680023E7
:103FD00080F88030FFF71EFEC6E7002D3ED0FFF7C9
:103FE00037FF002EADD00620FFF72CFEA9E7002DED
:103FF00034D0FFF785FEF4E785B3FFF7AFFE002E60
:104000009FD0012002F0B7FDAEE73DB3FFF7CEFE33
:10401000002E96D0012002F0B2FDA5E7124B134905
:104020004022C3F808258022C3F8082501220A612E
:104030004FF48071C3F808150D4B1B7803F0FF0196
:10404000002B3FF47EAF0B4B0C461A6179E70C4B0B
:104050000C4A0D4840F2BC5103F078FA2C4670E748
:10406000061300200413002000F0014000900040DF
:104070000513002000100040020000080C1300206F
:104080006AFE00008C000100F2FE0000054B0022D9
:1040900082B0C3F83C21D3F83C310193019B02B0BC
:1040A000704700BF00700140F8B52C4B1B780646E6
:1040B0000D4617460BB90020F8BD047801F03AFE12
:1040C000631C5B0100283ED103F1CE0015B100F165
:1040D000A80398B202F044FB04460028EBD001F09C
:1040E00055FA1F4B1F4AC3F80C05002D08BF4FF4AB
:1040F000A012C3F804654FF4B670C3F80022FFF7AE
:10410000C0FC1DB34FF4A470FFF7BBFC164A144E5D
:104110004FF48270FFF7B5FC144B197842F002029D
:104120006FF3C3011970C6F80423FFF7AFFF002D2A
:1041300014BF042000200121FFF7CCFC4FB901235C
:1041400033612046B8E703F22E40BFE74FF000622C
:10415000DDE7FFF7C7FE0028F1D0ADE7051300202B
:104160000010004000381400000004080413002070
:1041700038B5144B1B780546EBB1AE2002F0F0FACF
:10418000C8B1114C4FF42053C4F800324FF4A4705E
:10419000FFF777FC4FF4A270FFF773FC4FF4C023D6
:1041A000C4F8043301210420FFF770FFFFF792FCED
:1041B00015B90123236138BDFFF794FE0028F8D01C
:1041C000F9E700BF0513002000100040144938B57E
:1041D0004023C1F8083518B1124B5222C3F800220F
:1041E000114B124A0F4C01251D618023C1F8043583
:1041F000137823F0070313704FF49470FFF741FC1A
:104200001823C4F86035FFF741FF40230848C1F880
:10421000043501F0A3FAFFF765FE00B9256138BD4A
:1042200000F0014000100040009000400413002006
:104230003011004038B5044601F0A8F9084D0021BE
:10424000C5F80C050846FFF721FFFFF743FC14B93A
:1042500001232B6138BDFFF745FE0028F8D0F9E7B0
:104260000010004038B5114B1B780546C3B1104B08
:104270001868FFF77BFC98B10E4C4FF40042C4F86D
:1042800000224FF49E70FFF7FCFB0121C4F80423C9
:104290000420FFF7FBFEFFF71DFC15B90123236186
:1042A00038BDFFF71FFE0028F8D0F9E705130020FE
:1042B0000013002000100040084B0222C3F88020A9
:1042C000BFF34F8FBFF36F8FC3F88021002283F8B5
:1042D0000123BFF34F8FBFF36F8F704700E100E002
:1042E00008B5064B1B7833B102F064FA3B2894BF43
:1042F0000020012008BD0120FCE700BF05130020BD
:1043000010B501F0C7F8044628B1FFF7E9FF0446ED
:1043100008B901F05FF8204610BD000038B5464BE3
:104320001B780546002B7FD0444A137823F01703EF
:10433000137001F02BF9424AC2F80C05FFF7AEFBEF
:104340000446002871D0FFF7B3FB3E4BC2F80405CA
:10435000C2F800321823C2F860354FF49A70FFF7A4
:1043600090FB4FF49470FFF78CFB4FF49870FFF7BD
:1043700088FB354935484FF45053C2F80433D1F81F
:10438000003243F48073C1F800320123C1F8403594
:104390008223C1F84435FFF779FE2D4B2D4AC3F82F
:1043A0004825C3F84C0500F5F030C3F82C09C3F8D4
:1043B0005025C3F85415D3F8002842F08002C3F802
:1043C0000028254AC3F8402502F5AF3202F596725F
:1043D000C3F844258022C3F804254FF48072C3F843
:1043E0000425A0F5EF304022C3F80425D43801F0AD
:1043F000B5F9E5B9124B01221A61ACB901F062F9C5
:10440000164B1860FFF74AFB70B1FFF751FB0C4BDE
:104410000C4AC3F80405C3F80022D3F85025D2B2E1
:10442000022A04BF01229A6038BD522390E7FFF7A9
:1044300059FD0028DED0E0E705130020041300201A
:10444000001000405200080000900040041000409E
:1044500000F001403C710140101100400C1300209D
:104460002DE9FF410446002800F0BC8002F0A2F9CB
:104470003B2840F20881854E337803F0FF07002B7C
:1044800040F00181824C01250F233946C4F8FC7F9E
:104490000D22C4F8FC5F6846C4F8103503F036FA04
:1044A00008238DF800307F238DF808309DF8023006
:1044B0009DF801208DF806501B0443EA02239DF865
:1044C0000320002A18BF4FF480119DF8042008BF74
:1044D00000210B4343EA82539DF8072043EA4273CD
:1044E00043F0C0634FF0020843F008038DF80580E5
:1044F000C4F814359DF80A309DF809209DF80C1079
:104500001B0443EA02239DF80B20002A14BF4FF03E
:1045100080720022002914BF4FF0007100210B436C
:10452000134343F07F03C4F8183540F20223C4F864
:104530005056C4F83435574BC4F83835FFF738FBBC
:10454000554BC4F84476C4F8483601F011F8FFF72B
:10455000A9FC524B83F80173C3F88081D4F8003270
:1045600033B14F4B4F4A40F22C714F4802F0EEFFEF
:10457000357001F0DDF84D4B1B78092B2DD8DFE8A5
:1045800003F0822C052C0B142C171D23002004B0E3
:10459000BDE8F041FFF7C2BE00220121444B18687C
:1045A00004B0BDE8F041FFF77FBD00221146F5E7FA
:1045B000002004B0BDE8F041FFF754BE002004B075
:1045C000BDE8F041FFF7D4BD3378002B5BD000206D
:1045D00004B0BDE8F041FFF72DBE364B314A40F242
:1045E0005371C2E7294B1A783AB3187002F0BAF83F
:1045F00038B1FFF761FE264B0122C3F8FC4FC3F828
:10460000FC2F01F0A3F8002202210120FFF780FC1B
:1046100020B9294B294A40F27171A6E7234B1A7839
:10462000092A2BD8DFE802F009050E162020200900
:10463000090900221A70FFF7D7FA04B0BDE8F0416B
:1046400002F08CB81E4B1B785B07F6D50520FFF7F0
:104650000DFBF2E702221A701A4B1868002380F84B
:104660008030FFF70FFBE8E702221A7000F014FF1A
:104670000420FFF7E7FA00F041FEDEE70D4B0F4A9A
:104680004FF4F36171E704B0BDE8F0810513002039
:104690000010004021100100000700FF00E100E0D1
:1046A0007DFF0000C5000100F2FE0000061300209F
:1046B000101300206AFE00001B000100A80001008A
:1046C000041300200C1300200D4A002313700D4A20
:1046D00013700D4BD3F8042522F00302C3F8042510
:1046E000D3F8082542F00302C3F80825D3F81025B3
:1046F00022F00F0242F00402C3F8102501F0CCBDF5
:104700000613002005130020009000402DE9F84317
:10471000074688461546994600F0BCFE044600B39D
:10472000124E3378022B06D03378032B03D0FFF7D9
:10473000D7FD40B900240DB12046A84700F04AFE3D
:104740002046BDE8F8834A4641463846FFF7E0FB7D
:1047500004460028EED0022301203370FFF7DEFD6F
:10476000E9E7002DECD0A847EAE700BF06130020D8
:104770002DE9F7430B9D01919DF82890804617463F
:104780001E46FFF7BDFD0199044638B3012240469D
:10479000FFF7BEFB044648B900240DB12046A847E8
:1047A00000F018FE204603B0BDE8F083DFF8388043
:1047B000022388F800300B4B0122314638461F6037
:1047C000FFF772FCB9F1000F01D00028E4D0002EF1
:1047D00014BF0423052388F80030DEE7002DE1D064
:1047E000A847DFE7101300200613002010B5044689
:1047F000FFF786FD012184F8801058B1204B1B780B
:1048000033B1204B1B78022BDAB205D0062A1FD019
:1048100000F0E0FD012010BD1B4AD2F85035DBB29C
:10482000022BF5D1D2F80032522B06D0174B184A82
:1048300040F62E41174802F089FE174B1C60FFF727
:1048400037F9164BC2F80405C2F800329160DFE771
:104850000D4AD2F85035DBB2022BD9D1D2F8003252
:10486000122B04D00E4B0A4A40F63D41E2E70A4BB8
:104870001C60FFF71DF90B4BC2F80405E4E700BF0D
:10488000051300200613002000100040A3FF0000C5
:1048900058000100F2FE00000C1300205200080036
:1048A000C7FF00001200080038B5FFF729FD0446D5
:1048B00078B1124D2B781BB100F05AFEFFF7F2FAD7
:1048C0000F4B1B78022BDAB205D0092A0ED000F06C
:1048D00081FD204638BD012211460020FFF718FB5C
:1048E0000028F4D00120FFF719FDF0E72B78002B0A
:1048F000EDD0044B01221A61E9E700BF0513002047
:1049000006130020001000402DE9F04F8FB000F09A
:10491000E3FCAA4BD3F80423920728D5D3F804313B
:104920002BB34FF48270FFF7ACF8A54B1A78052A29
:10493000D3B209D8032B0CD838D0A24BA24A40F6E8
:104940008521A24802F002FE062BF6D100F07AFC87
:104950000DE09F4B1C68204600F060FC10B1204623
:10496000FFF770F89B4A137843F008031370934ED7
:10497000D6F804335F0547D5D6F82831002B43D04D
:104980004FF49470FFF77DF88D4B1B78022B40F0AD
:104990000A81D6F86075C7F3C707022F8DF820701B
:1049A00009D88D4B8D4A4FF4FA61CAE78C4B1868D1
:1049B000FFF746F8DBE7D6F834312BBB854D2B7873
:1049C00013F0010800F0B4804FF001082B789E0727
:1049D0001AD4B8F1000F17D0824E3068047801F075
:1049E000A9F9631C5B01002840F0D48003F1A0000A
:1049F00001F0B6FE002800F0D0802B78306843F03C
:104A000002032B7000F01CFC6C4BD3F804239404BD
:104A100012D5D3F834317BB14FF49A70FFF731F8E7
:104A2000674B1B78022BDCB240F0C2800020FFF7FE
:104A3000CDFB2046FFF71AF9604BD3F80423D004CE
:104A400040F11681D3F83031002B00F011815C4E1B
:104A50004FF49870FFF715F83378022B40F0B381CC
:104A60005C4F604C3B78256843F01003D9073B70DE
:104A700040F1BE80206801F05DF9002800F0C1809F
:104A800000F05EFD002800F0BC80206801F00CFC06
:104A9000534B1860002800F0B480484A5249C2F8CD
:104AA00004054FF4A013C2F800324FF4AA70FEF7C9
:104AB000E8FF4E4BC3F858154FF40071C3F85C255E
:104AC000C3F80415A3F5B0330121D3F84405D96424
:104AD000D3F84C15D3F84035884205D9984240F2B6
:104AE000B580994200F2B280FEF7ECFFD2F8503563
:104AF000DBB2092B00F0AA80D2F85431002B40F031
:104B0000A580226882F88030384A4FF40071C2F8DC
:104B10000815C2F85835C2F85C35C2F83439FFF7C9
:104B2000BDF80120FFF7FAFB2846FFF7ABF89FE03E
:104B3000DFF8B09043F00403D9F800002B7008A907
:104B400000F0EAFF044660B99DF820309F4203D090
:104B5000DB00C6F8603537E72B7843F001032B7094
:104B600032E7092810D1FFF799F80120FFF7D6FBAB
:104B7000D9F800305B7803F00703022B3FF426AF2F
:104B80002046FFF773F821E700F0CAFC00287FF405
:104B90001BAFE8E703F530702AE7FFF77FF8052041
:104BA00001F0E1FF30E7074B074A40F69A21C8E6DB
:104BB000044B054A4FF42B61C3E600BF00100040D0
:104BC000061300206AFE00004C000100F2FE000007
:104BD0001013002004130020EFFF00003700010035
:104BE000081300200C1300204491004000F0014005
:104BF00000F096FC002800F0DD803B78DA073FF5F6
:104C000039AF0120FFF7E2FA6B7803F00703022BBC
:104C100000F0BE802368002283F8802000F052FD5F
:104C20002060FEF73BFF00283FF47EAFFEF740FF19
:104C3000B94BBA4AC3F80405C3F80022D3F850258B
:104C4000D2B2022A04BF01229A606DE7B24A03235E
:104C500033704FF45053C2F808334FF4B670FEF778
:104C600010FF4FF48270FEF70CFFAD4BC2F8043317
:104C7000A94CD4F804331B0140F11081D4F86C31F5
:104C8000002B00F00B81A74EA74F4FF4B670FEF734
:104C9000F8FE3278032AD3B200F09A80043B012B4D
:104CA00000F273813B781F0740F1F8809F4F38680E
:104CB00001F040F80546002800F05081FEF7EEFEB6
:104CC0009B4A9C4B051E08BF12234FF04001C2F8BF
:104CD0000815C4F8003203D0FEF7EAFEC4F8040554
:104CE0004FF48670FEF7CDFE934BC4F808334FF4B3
:104CF0008270FEF7C6FE0A23C4F804330020FFF7D3
:104D00007DF88B498D4BC1F84835A3F5B033A3F539
:104D10009C73C1F84C3503F5F033C1F82C39FFF71B
:104D2000B5F98023C1F804354023C1F804350623C2
:104D30003370FFF7D7F808B901232361ADB900F04C
:104D4000C1FC7F4B1860FEF7A9FE70B1FEF7B0FE04
:104D5000714B784AC3F80405C3F80022D3F85025F4
:104D6000D2B2022A04BF01229A603A68937803F013
:104D70003003202B00F092804FF4AE70FEF781FEDE
:104D8000D378654A1B0643F40073C2F8443685E0C5
:104D900000F0C6FB00287FF43DAF5F4B5F4AC3F8CD
:104DA0000022D3F85025D2B2022A7FF461AF01224B
:104DB0009A605DE7FEF772FF0120FFF7AFFA04206B
:104DC000FEF754FF54E75F4B5F4A40F6C421B8E555
:104DD00057495E4ADFF868914FF0400B4FF0010AE7
:104DE0005223D9F80080C1F808B5C2F810A0C4F861
:104DF00000321823C4F86035494BC4F808334FF427
:104E00009A70FEF73EFE4FF49470FEF73AFE4FF4B0
:104E10009870FEF736FE4FF45053C4F804334FF445
:104E20000073C2F810A00025C1F808358023C1F82E
:104E30005855C1F85C55C1F83459C1F80435FFF72D
:104E400025F94348C1F804B500F088FCFFF74AF89B
:104E500008B9C4F810A0D9F8003083F8805000F0E9
:104E600031FCC9F80000FEF719FE70B1FEF720FE14
:104E7000294B2A4AC3F80405C3F80022D3F8502569
:104E8000D2B2022A04BF01229A60022333703B7817
:104E900023F007033B704046FEF7F4FE1E4AD2F8AB
:104EA00004331D0740F1B880D2F80C31002B00F01C
:104EB000B3801C4E4FF48670FEF7E3FD3378062B6B
:104EC00040F02D811E4FD2F85C313D681BB1D2F805
:104ED0000034DC0773D4154B1868837803F0300373
:104EE000202B69D1AB7803F03003202B64D16B7891
:104EF00003F00703022B5FD1074BD3F8004414F0F3
:104F000001045AD002A900F0B3FF002842D1114B8E
:104F1000114A4FF4206114E50010004052000800CF
:104F200002000008061300200413002010130020C4
:104F300000F0014012000800020004083C7101402A
:104F40000C1300206AFE00004C000100009000409D
:104F5000301100401500010022000100FEF778FF2B
:104F6000022301203370FFF7D9F93868009000F070
:104F700093FA009800F03CF900982B462A462946FF
:104F800001F0F3FD00F0BAF988E7884B884A40F653
:104F9000DC21D6E408A9284600F06AFF60B1059834
:104FA00050B1099941B19DF81D309DF834209A42C5
:104FB00002D102F063FB10B10024254604E03D68F5
:104FC000002385F880300124FEF79AFE0227012095
:104FD0003770FFF7A3F9002C00F09B80FEF70CFE62
:104FE0002B7801902B4413F8010C00F047FB714B18
:104FF00004B218680090BC4000F04EFA009800F02F
:10500000F7F8FF2C28BFFF24019A0098E3B2294645
:1050100001F0ABFD00F072F9674BD3F80423D00622
:1050200010D5D3F810316BB164494FF48870FEF796
:1050300028FD0B78012B77D1FEF78CFD00230B7038
:10504000FEF7D2FD5C4BD3F80423910318D5D3F8B7
:105050004431ABB14FF4A270FEF713FD574803780B
:10506000082B66D1FEF7A2FE022303700120FFF792
:1050700055F900F011FA012001F07FFD00F03EF932
:105080004D4BD3F8042352031CD5D3F84831CBB190
:105090004A4C4FF4A470FEF7F4FC2278052AD3B2F0
:1050A0004FF002054AD8032B4AD9FEF7D1FE012062
:1050B0002570FFF733F900F0EFF90120FEF7C2FD8C
:1050C00000F01CF93C4CD4F804331B041CD5D4F874
:1050D0003C31CBB1394E4FF49E70FEF7D2FC3378A1
:1050E000072B5DD1364DD4F868362A78DBB293426F
:1050F00038BF13462B70334B1868002835D0FEF7A5
:1051000035FD78B3012363620FB0BDE8F04F00F0C6
:1051100061B900F0C1F93846FEF794FD7AE7234BF8
:10512000234A40F6EF210CE4204B214A40F602319D
:1051300007E41E4B1E4A40F6153102E4082B05D049
:105140001A4B1B4A40F62D31FFF7FBBB0120FEF73F
:105150002DFE2570FFF7E2F800F09EF9002001F027
:105160000CFDADE7FEF7E4FCCEE700F001FAFEF738
:1051700099FEFEF7F3FD012002233370FFF7CEF80E
:10518000287800F082FA00B2840000F085F9FF2C44
:1051900028BFFF24E0B201F0ECFC00F0AFF8B3E769
:1051A000024B034A4FF43461FFF7CBBB6AFE0000A9
:1051B0004C000100101300200010004006130020D6
:1051C000FC12002000130020F8B5084E05460F46DB
:1051D000002456F8043B33B139462846984718B1A5
:1051E0000134042CF5D10120F8BD00BFD800010026
:1051F00000F012BFF8B5084E05460F46002456F8D9
:10520000043B33B139462846984718B10134032C82
:10521000F5D10120F8BD00BFE800010070B5074ED0
:105220000546002456F8043B2BB12846984718B190
:105230000134032CF6D1012070BD00BFF400010041
:1052400000F054BC00F004BF08B5174AD2E84F3F45
:10525000DBB2FF2B05D1154B154A16487B2102F016
:1052600075F90133DBB2C2E8413F0029EED101F00C
:10527000DFFA01F00BFF0121084601F081FA38B195
:105280000D4B0222C3F88020BFF34F8FBFF36F8F07
:10529000BFF34F8FBFF36F8F084A13780133DBB230
:1052A0001370012008BD00BF17130020000101008A
:1052B000800301001001010000E100E0151300204F
:1052C000034B00221A70034BFF221A70704700BF75
:1052D000171300201613002008B5FFF7B5FF28B9F3
:1052E000034B044A0448E52102F030F908BD00BF31
:1052F00088010100530301001001010008B50B4BA8
:105300001A78120606D50A4B0A4A4FF480710A48E9
:1053100002F01CF9094A127822B9094B054A40F2F9
:105320000111F4E7FF221A7008BD00BF1613002018
:10533000A1010100EA020100100101001713002081
:10534000D101010008B512494A68C2F30803E3B16C
:1053500012F4F87F06D10F4B0F4A104840F2171194
:1053600002F0F4F8103BDAB25BB2002BB5BF02F0EA
:105370000F0303F16043043B03F56143B6BF5B18C1
:1053800093F80003187E400908BD4FF0FF30FBE79B
:1053900000ED00E0F8010100B3020100100101007E
:1053A00008B50A4B1B781BB9BDE80840FFF74CBF96
:1053B000FFF7C8FF431C064B1B7808BF7F205BB27A
:1053C00040B29842F0D0002008BD00BF1713002063
:1053D000161300202DE9F041244D2B7803F0FF0433
:1053E0006BB1DFF8AC80224E98F80070012CFFB250
:1053F0001AD133784BB11F4B1F4A9E2102E01F4B3D
:105400001D4A95211E4802F0A1F8347001F012FAED
:105410002146204601F0B4F910B11A4B02221A605D
:1054200001F048FE00233370631EDBB2D5E84F2F36
:10543000D2B2944203D0144B0F4AAC21E2E7C5E844
:10544000423F002AF2D1012C0ED101F003FA18B923
:1054500098F800309F4207D0FFF7A2FF0028C3D181
:105460000A4B054AB921CDE7BDE8F08117130020AA
:1054700014130020320201003D0301002A02010042
:105480001001010000E100E0450201001B000100E5
:1054900015130020FFF784BF10B50C4C2378FF2BA9
:1054A00005D00B4B0B4AF6210B4802F04FF80B4B83
:1054B0001B781BB90A4B074AF821F5E7FFF742FFB3
:1054C000431C08BF7F2040B2207010BD161300207F
:1054D00057020100130301001001010017130020FF
:1054E000D10101007047000010B50C4C5A23022274
:1054F000FF21601C637402F009FAFE23E3700822A6
:10550000FF230021601D237102F000FA0023637362
:105510001423A373E3730223237410BD1813002014
:10552000024B587C00F00100704700BF18130020A8
:10553000024B5A7C60F300025A7470471813002023
:10554000024B587CC0F34000704700BF1813002086
:10555000024B5A7C60F341025A74704718130020C2
:10556000024B587CC0F38000704700BF1813002026
:10557000014B587CC008704718130020024B5A7C1E
:1055800060F3C7025A74704718130020F0B5144B2B
:10559000587C93F9001085B0C00800F0AFF9114BAA
:1055A0006A46044603F10807154618685968164606
:1055B00003C60833BB423246F7D118689B88306077
:1055C000072CB38009DC2B46002213F8010B41B2F3
:1055D0008C4203DD01320E2AF7D1082005B0F0BD60
:1055E000181300209703010000487047191300208A
:1055F00001460222014802F073B800BF19130020CF
:10560000004870471D13002001460822014802F09F
:1056100067B800BF1D130020004870471B1300200F
:105620000149042202F05CB82513002008B501F0FE
:105630007EFE10F11D0F0FDB10F1090F0EDB0A28A3
:105640000EDD1E280EDD32280EDD4728B4BF6FF0B8
:1056500001006FF0020008BD0320FCE70220FAE71A
:105660000120F8E70020F6E74FF0FF30F3E710B530
:105670000446FFF7DBFF2044C0B210BD10B504465E
:10568000FFF7D4FF201AC0B210BD10B50446FFF7D3
:10569000CDFF201AC0B210BD10B50446FFF7C6FFFB
:1056A000201AC0B210BD0000054A002301210133B9
:1056B000102B82F8801002F18102F8D1704700BFF0
:1056C0002A130020074A0023114692F8800018B1DF
:1056D00003EBC313C81870470133102B02F181028A
:1056E000F3D170472A1300200E4A002310B513602F
:1056F0000D4A137001F0FFFA01F0A2FD044601F01B
:105700001BFB0A4B4FF40052C3F87845C3F87C05E5
:10571000C3F80425D3F8042842F48042C3F80428CF
:1057200010BD00BF3C1B0020401B002000F00140CA
:1057300008B5054B00221A7001F0DEFA01F000FBFB
:10574000BDE8084001F028BD4C1B002008B501F061
:10575000EDFABDE8084001F065BD000010B5044653
:1057600001F01CFB054B064AC3F88045C3F88405CD
:10577000C3F8482901229A6010BD00BF00F0014023
:105780000CF001402DE9F041064628B9244B254A8A
:105790002548992101F0DAFE244B1B7803F0FF081D
:1057A00083B3234F01F0FEFA7B68C51A214B1878AA
:1057B00020B3214B1968CB1711F58002A5FB010C12
:1057C00005FB03CC43F1000311F5800FACBF0021B2
:1057D0000121B1EBDC7F4FEAD37416D0A41843F15A
:1057E0000001640844EAC17464424FEA610161EB5C
:1057F000410120184CEB010108F09AFF3B681D4461
:10580000281A30604046BDE8F081A41843F1000139
:10581000640844EAC17420184CEB6101ECE700BF56
:10582000A50301002C040100B90301004C1B00205A
:10583000441B0020401B00203C1B0020F7B501A8A2
:1058400001F08EFA00284CD0284E294C294D01F049
:10585000FBFC3378009013B32268019FC2F500115E
:105860003A4467680144D21B101A4FEAD1524FEAFA
:1058700091534BBF801A801890FBF3F0B0FBF3F00C
:105880002B781D495BB30B68C3EBC3031B1821D5F1
:105890001A1F00D5DA1CD2100A6001232B700023D6
:1058A0003370BFF35F8F02AB13E9030084E803009A
:1058B000BFF35F8F0123337001F042FA2B78206829
:1058C000002B14BF4FF080714FF4800101F094FC65
:1058D00003B0F0BD1A1D48BF03F10B02DBE70860FF
:1058E000DBE701F02DFA01F057FCF1E74C1B00203B
:1058F000441B0020401B00203C1B00200846704732
:1059000070B501F011FD0C4B0C4D1C780123A34028
:10591000013B184000260A4BAB60C4B2EE6001F0B8
:105920006BF828604FF4A07044436C603146284601
:10593000BDE8704001F06CB84D1B0020501B0020EA
:105940008159000010B50B4A0B4913780133DBB2C3
:1059500013700A78042A9CBF01320A70032B4FF09F
:10596000000403D8FFF7CCFF204610BD034B0120F5
:105970001C70FAE74F1B00204D1B00204E1B00201F
:1059800013B50B4C23788BB10A4B0B4A01930020C3
:10599000009012680123032101F0FAF830B923784E
:1059A00023B102B0BDE81040FFF7CCBF02B010BD7C
:1059B0004E1B0020BD590000641B002040B9054B60
:1059C0001B78022B04D9044B0121186801F0CFB8D1
:1059D000704700BF4F1B0020641B0020012910B539
:1059E00007D8074C38B10748002101F075F80023AB
:1059F0002370012002E0207880F0010010BD00BF7C
:105A00004E1B0020501B0020054B1B68834204D115
:105A1000044B1B780BB1FFF795BF0120704700BF07
:105A2000641B00204E1B002008B5094B1B688342F5
:105A30000BD1084801F05AF828B1074B074A08482B
:105A4000F92101F083FD074B1870012008BD00BF4C
:105A5000641B0020501B0020E5040100120501001A
:105A6000690401004E1B002013B50C4A531CD3E8F7
:105A70004F3FDBB28DF807309DF80730834204D0EA
:105A8000BFF32F8F002002B010BD541CC4E8431F89
:105A9000002BEBD1BFF35F8F0120F4E7681B0020E0
:105AA000052910B5034615D00C4C6278022AD0B2F5
:105AB00010D18BB10021FFF7D7FF10B10A2001F000
:105AC00052F8637833B1064B064A07484FF4027127
:105AD00001F03CFD012010BD1846FCE7681B0020CA
